{
  "address": "0x5FbDB2315678afecb367f032d93F642f64180aa3",
  "abi": [
    {
      "inputs": [
        {
          "internalType": "uint8",
          "name": "decimals_",
          "type": "uint8"
        },
        {
          "internalType": "int256",
          "name": "initialPrice_",
          "type": "int256"
        }
      ],
      "stateMutability": "nonpayable",
      "type": "constructor"
    },
    {
      "inputs": [],
      "name": "decimals",
      "outputs": [
        {
          "internalType": "uint8",
          "name": "",
          "type": "uint8"
        }
      ],
      "stateMutability": "view",
      "type": "function"
    },
    {
      "inputs": [],
      "name": "latestRoundData",
      "outputs": [
        {
          "internalType": "uint80",
          "name": "",
          "type": "uint80"
        },
        {
          "internalType": "int256",
          "name": "",
          "type": "int256"
        },
        {
          "internalType": "uint256",
          "name": "",
          "type": "uint256"
        },
        {
          "internalType": "uint256",
          "name": "",
          "type": "uint256"
        },
        {
          "internalType": "uint80",
          "name": "",
          "type": "uint80"
        }
      ],
      "stateMutability": "view",
      "type": "function"
    },
    {
      "inputs": [
        {
          "internalType": "int256",
          "name": "price_",
          "type": "int256"
        }
      ],
      "name": "setPrice",
      "outputs": [],
      "stateMutability": "nonpayable",
      "type": "function"
    }
  ],
  "transactionHash": "0x9602355e97070681005d036b43d27572f7dc436eebdf272b4b563646a5fd1c06",
  "args": [
    8,
    "200000000000"
  ],
  "numDeployments": 1,
  "solcInputHash": "4999c60abe4a966d5ec8bd181d9592c1",
  "bytecode": "0x608060405234801561001057600080fd5b50604051610375380380610375833981810160405281019061003291906100ce565b816000806101000a81548160ff021916908360ff16021790555080600181905550505061010e565b600080fd5b600060ff82169050919050565b6100758161005f565b811461008057600080fd5b50565b6000815190506100928161006c565b92915050565b6000819050919050565b6100ab81610098565b81146100b657600080fd5b50565b6000815190506100c8816100a2565b92915050565b600080604083850312156100e5576100e461005a565b5b60006100f385828601610083565b9250506020610104858286016100b9565b9150509250929050565b6102588061011d6000396000f3fe608060405234801561001057600080fd5b50600436106100415760003560e01c8063313ce56714610046578063f7a3080614610064578063feaf968c14610080575b600080fd5b61004e6100a2565b60405161005b91906100ff565b60405180910390f35b61007e60048036038101906100799190610155565b6100b8565b005b6100886100c2565b6040516100999594939291906101cf565b60405180910390f35b60008060009054906101000a900460ff16905090565b8060018190555050565b60008060008060008060015442426000945094509450945094509091929394565b600060ff82169050919050565b6100f9816100e3565b82525050565b600060208201905061011460008301846100f0565b92915050565b600080fd5b6000819050919050565b6101328161011f565b811461013d57600080fd5b50565b60008135905061014f81610129565b92915050565b60006020828403121561016b5761016a61011a565b5b600061017984828501610140565b91505092915050565b600069ffffffffffffffffffff82169050919050565b6101a181610182565b82525050565b6101b08161011f565b82525050565b6000819050919050565b6101c9816101b6565b82525050565b600060a0820190506101e46000830188610198565b6101f160208301876101a7565b6101fe60408301866101c0565b61020b60608301856101c0565b6102186080830184610198565b969550505050505056fea264697066735822122030017557769f890f46ba33ac1c8635fc2544088817dcf99c3b178526692907f064736f6c634300081c0033",
  "devdoc": {
    "kind": "dev",
    "methods": {},
    "version": 1
  },
  "userdoc": {
    "kind": "user",
    "methods": {},
    "version": 1
  },
  "storageLayout": {
    "storage": [
      {
        "astId": 10348,
        "contract": "contracts/mocks/MockAggregator.sol:MockAggregator",
        "label": "_decimals",
        "offset": 0,
        "slot": "0",
        "type": "t_uint8"
      },
      {
        "astId": 10350,
        "contract": "contracts/mocks/MockAggregator.sol:MockAggregator",
        "label": "_price",
        "offset": 0,
        "slot": "1",
        "type": "t_int256"
      }
    ],
    "types": {
      "t_int256": {
        "encoding": "inplace",
        "label": "int256",
        "numberOfBytes": "32"
      },
      "t_uint8": {
        "encoding": "inplace",
        "label": "uint8",
        "numberOfBytes": "1"
      }
    }
  }
}