{
  "address": "0xe7f1725E7734CE288F8367e1Bb143E90bb3F0512",
  "abi": [
    {
      "inputs": [
        {
          "internalType": "address",
          "name": "target",
          "type": "address"
        }
      ],
      "name": "AddressEmptyCode",
      "type": "error"
    },
    {
      "inputs": [
        {
          "internalType": "address",
          "name": "implementation",
          "type": "address"
        }
      ],
      "name": "ERC1967InvalidImplementation",
      "type": "error"
    },
    {
      "inputs": [],
      "name": "ERC1967NonPayable",
      "type": "error"
    },
    {
      "inputs": [],
      "name": "FailedCall",
      "type": "error"
    },
    {
      "inputs": [],
      "name": "InvalidInitialization",
      "type": "error"
    },
    {
      "inputs": [],
      "name": "NotInitializing",
      "type": "error"
    },
    {
      "inputs": [
        {
          "internalType": "address",
          "name": "owner",
          "type": "address"
        }
      ],
      "name": "OwnableInvalidOwner",
      "type": "error"
    },
    {
      "inputs": [
        {
          "internalType": "address",
          "name": "account",
          "type": "address"
        }
      ],
      "name": "OwnableUnauthorizedAccount",
      "type": "error"
    },
    {
      "inputs": [],
      "name": "UUPSUnauthorizedCallContext",
      "type": "error"
    },
    {
      "inputs": [
        {
          "internalType": "bytes32",
          "name": "slot",
          "type": "bytes32"
        }
      ],
      "name": "UUPSUnsupportedProxiableUUID",
      "type": "error"
    },
    {
      "anonymous": false,
      "inputs": [
        {
          "indexed": true,
          "internalType": "uint256",
          "name": "auctionId",
          "type": "uint256"
        }
      ],
      "name": "AuctionCanceled",
      "type": "event"
    },
    {
      "anonymous": false,
      "inputs": [
        {
          "indexed": true,
          "internalType": "uint256",
          "name": "auctionId",
          "type": "uint256"
        },
        {
          "indexed": true,
          "internalType": "address",
          "name": "nft",
          "type": "address"
        },
        {
          "indexed": true,
          "internalType": "uint256",
          "name": "tokenId",
          "type": "uint256"
        },
        {
          "indexed": false,
          "internalType": "address",
          "name": "seller",
          "type": "address"
        },
        {
          "indexed": false,
          "internalType": "uint256",
          "name": "minBidUSD18",
          "type": "uint256"
        },
        {
          "indexed": false,
          "internalType": "uint256",
          "name": "duration",
          "type": "uint256"
        }
      ],
      "name": "AuctionCreated",
      "type": "event"
    },
    {
      "anonymous": false,
      "inputs": [
        {
          "indexed": true,
          "internalType": "uint256",
          "name": "auctionId",
          "type": "uint256"
        },
        {
          "indexed": true,
          "internalType": "address",
          "name": "winner",
          "type": "address"
        },
        {
          "indexed": true,
          "internalType": "address",
          "name": "paymentToken",
          "type": "address"
        },
        {
          "indexed": false,
          "internalType": "uint256",
          "name": "amountRaw",
          "type": "uint256"
        },
        {
          "indexed": false,
          "internalType": "uint256",
          "name": "amountUsd18",
          "type": "uint256"
        }
      ],
      "name": "AuctionEnded",
      "type": "event"
    },
    {
      "anonymous": false,
      "inputs": [
        {
          "indexed": true,
          "internalType": "uint256",
          "name": "auctionId",
          "type": "uint256"
        },
        {
          "indexed": true,
          "internalType": "address",
          "name": "bidder",
          "type": "address"
        },
        {
          "indexed": false,
          "internalType": "uint256",
          "name": "amountWei",
          "type": "uint256"
        },
        {
          "indexed": false,
          "internalType": "uint256",
          "name": "amountUsd18",
          "type": "uint256"
        }
      ],
      "name": "BidEth",
      "type": "event"
    },
    {
      "anonymous": false,
      "inputs": [
        {
          "indexed": true,
          "internalType": "uint256",
          "name": "auctionId",
          "type": "uint256"
        },
        {
          "indexed": true,
          "internalType": "address",
          "name": "bidder",
          "type": "address"
        },
        {
          "indexed": true,
          "internalType": "address",
          "name": "token",
          "type": "address"
        },
        {
          "indexed": false,
          "internalType": "uint256",
          "name": "amount",
          "type": "uint256"
        },
        {
          "indexed": false,
          "internalType": "uint256",
          "name": "amountUsd18",
          "type": "uint256"
        }
      ],
      "name": "BidToken",
      "type": "event"
    },
    {
      "anonymous": false,
      "inputs": [
        {
          "indexed": false,
          "internalType": "uint64",
          "name": "version",
          "type": "uint64"
        }
      ],
      "name": "Initialized",
      "type": "event"
    },
    {
      "anonymous": false,
      "inputs": [
        {
          "indexed": true,
          "internalType": "address",
          "name": "previousOwner",
          "type": "address"
        },
        {
          "indexed": true,
          "internalType": "address",
          "name": "newOwner",
          "type": "address"
        }
      ],
      "name": "OwnershipTransferred",
      "type": "event"
    },
    {
      "anonymous": false,
      "inputs": [
        {
          "indexed": true,
          "internalType": "address",
          "name": "implementation",
          "type": "address"
        }
      ],
      "name": "Upgraded",
      "type": "event"
    },
    {
      "anonymous": false,
      "inputs": [
        {
          "indexed": true,
          "internalType": "address",
          "name": "account",
          "type": "address"
        },
        {
          "indexed": false,
          "internalType": "uint256",
          "name": "amount",
          "type": "uint256"
        }
      ],
      "name": "WithdrawEth",
      "type": "event"
    },
    {
      "anonymous": false,
      "inputs": [
        {
          "indexed": true,
          "internalType": "address",
          "name": "token",
          "type": "address"
        },
        {
          "indexed": true,
          "internalType": "address",
          "name": "account",
          "type": "address"
        },
        {
          "indexed": false,
          "internalType": "uint256",
          "name": "amount",
          "type": "uint256"
        }
      ],
      "name": "WithdrawToken",
      "type": "event"
    },
    {
      "inputs": [],
      "name": "UPGRADE_INTERFACE_VERSION",
      "outputs": [
        {
          "internalType": "string",
          "name": "",
          "type": "string"
        }
      ],
      "stateMutability": "view",
      "type": "function"
    },
    {
      "inputs": [
        {
          "internalType": "uint256",
          "name": "",
          "type": "uint256"
        }
      ],
      "name": "auctions",
      "outputs": [
        {
          "internalType": "address",
          "name": "nft",
          "type": "address"
        },
        {
          "internalType": "uint256",
          "name": "tokenId",
          "type": "uint256"
        },
        {
          "internalType": "address",
          "name": "seller",
          "type": "address"
        },
        {
          "internalType": "uint256",
          "name": "minBidUSD18",
          "type": "uint256"
        },
        {
          "internalType": "uint256",
          "name": "startTime",
          "type": "uint256"
        },
        {
          "internalType": "uint256",
          "name": "duration",
          "type": "uint256"
        },
        {
          "internalType": "address",
          "name": "highestBidder",
          "type": "address"
        },
        {
          "internalType": "uint256",
          "name": "highestBidUSD18",
          "type": "uint256"
        },
        {
          "internalType": "address",
          "name": "paymentToken",
          "type": "address"
        },
        {
          "internalType": "uint256",
          "name": "highestBidAmount",
          "type": "uint256"
        },
        {
          "internalType": "bool",
          "name": "ended",
          "type": "bool"
        },
        {
          "internalType": "bool",
          "name": "canceled",
          "type": "bool"
        }
      ],
      "stateMutability": "view",
      "type": "function"
    },
    {
      "inputs": [
        {
          "internalType": "uint256",
          "name": "auctionId",
          "type": "uint256"
        }
      ],
      "name": "bidEth",
      "outputs": [],
      "stateMutability": "payable",
      "type": "function"
    },
    {
      "inputs": [
        {
          "internalType": "uint256",
          "name": "auctionId",
          "type": "uint256"
        },
        {
          "internalType": "address",
          "name": "token",
          "type": "address"
        },
        {
          "internalType": "uint256",
          "name": "amount",
          "type": "uint256"
        }
      ],
      "name": "bidToken",
      "outputs": [],
      "stateMutability": "nonpayable",
      "type": "function"
    },
    {
      "inputs": [
        {
          "internalType": "uint256",
          "name": "auctionId",
          "type": "uint256"
        }
      ],
      "name": "cancelAuction",
      "outputs": [],
      "stateMutability": "nonpayable",
      "type": "function"
    },
    {
      "inputs": [
        {
          "internalType": "address",
          "name": "nft",
          "type": "address"
        },
        {
          "internalType": "uint256",
          "name": "tokenId",
          "type": "uint256"
        },
        {
          "internalType": "uint256",
          "name": "minBidUSD18",
          "type": "uint256"
        },
        {
          "internalType": "uint256",
          "name": "duration",
          "type": "uint256"
        }
      ],
      "name": "createAuction",
      "outputs": [],
      "stateMutability": "nonpayable",
      "type": "function"
    },
    {
      "inputs": [
        {
          "internalType": "uint256",
          "name": "auctionId",
          "type": "uint256"
        }
      ],
      "name": "endAuction",
      "outputs": [],
      "stateMutability": "nonpayable",
      "type": "function"
    },
    {
      "inputs": [],
      "name": "ethUsdFeed",
      "outputs": [
        {
          "internalType": "contract AggregatorV3Interface",
          "name": "",
          "type": "address"
        }
      ],
      "stateMutability": "view",
      "type": "function"
    },
    {
      "inputs": [
        {
          "internalType": "address",
          "name": "owner_",
          "type": "address"
        },
        {
          "internalType": "address",
          "name": "ethFeed_",
          "type": "address"
        }
      ],
      "name": "initialize",
      "outputs": [],
      "stateMutability": "nonpayable",
      "type": "function"
    },
    {
      "inputs": [],
      "name": "owner",
      "outputs": [
        {
          "internalType": "address",
          "name": "",
          "type": "address"
        }
      ],
      "stateMutability": "view",
      "type": "function"
    },
    {
      "inputs": [
        {
          "internalType": "address",
          "name": "",
          "type": "address"
        }
      ],
      "name": "pendingReturnsEth",
      "outputs": [
        {
          "internalType": "uint256",
          "name": "",
          "type": "uint256"
        }
      ],
      "stateMutability": "view",
      "type": "function"
    },
    {
      "inputs": [
        {
          "internalType": "address",
          "name": "",
          "type": "address"
        },
        {
          "internalType": "address",
          "name": "",
          "type": "address"
        }
      ],
      "name": "pendingReturnsToken",
      "outputs": [
        {
          "internalType": "uint256",
          "name": "",
          "type": "uint256"
        }
      ],
      "stateMutability": "view",
      "type": "function"
    },
    {
      "inputs": [],
      "name": "proxiableUUID",
      "outputs": [
        {
          "internalType": "bytes32",
          "name": "",
          "type": "bytes32"
        }
      ],
      "stateMutability": "view",
      "type": "function"
    },
    {
      "inputs": [],
      "name": "renounceOwnership",
      "outputs": [],
      "stateMutability": "nonpayable",
      "type": "function"
    },
    {
      "inputs": [
        {
          "internalType": "address",
          "name": "feed",
          "type": "address"
        }
      ],
      "name": "setEthUsdFeed",
      "outputs": [],
      "stateMutability": "nonpayable",
      "type": "function"
    },
    {
      "inputs": [
        {
          "internalType": "address",
          "name": "token",
          "type": "address"
        },
        {
          "internalType": "address",
          "name": "feed",
          "type": "address"
        }
      ],
      "name": "setTokenUsdFeed",
      "outputs": [],
      "stateMutability": "nonpayable",
      "type": "function"
    },
    {
      "inputs": [
        {
          "internalType": "address",
          "name": "",
          "type": "address"
        }
      ],
      "name": "tokenUsdFeed",
      "outputs": [
        {
          "internalType": "contract AggregatorV3Interface",
          "name": "",
          "type": "address"
        }
      ],
      "stateMutability": "view",
      "type": "function"
    },
    {
      "inputs": [
        {
          "internalType": "address",
          "name": "newOwner",
          "type": "address"
        }
      ],
      "name": "transferOwnership",
      "outputs": [],
      "stateMutability": "nonpayable",
      "type": "function"
    },
    {
      "inputs": [
        {
          "internalType": "address",
          "name": "newImplementation",
          "type": "address"
        },
        {
          "internalType": "bytes",
          "name": "data",
          "type": "bytes"
        }
      ],
      "name": "upgradeToAndCall",
      "outputs": [],
      "stateMutability": "payable",
      "type": "function"
    },
    {
      "inputs": [],
      "name": "withdrawEth",
      "outputs": [],
      "stateMutability": "nonpayable",
      "type": "function"
    },
    {
      "inputs": [
        {
          "internalType": "address",
          "name": "token",
          "type": "address"
        }
      ],
      "name": "withdrawToken",
      "outputs": [],
      "stateMutability": "nonpayable",
      "type": "function"
    }
  ],
  "transactionHash": "0xafe0ca6e6b97b8645c88600a3cb231971b9b6ce025ae424c68bb17c82b2352c7",
  "args": [],
  "numDeployments": 1,
  "solcInputHash": "fa89fba83ef3aa7dec4f1382fee57b7f",
  "bytecode": "0x60a06040523073ffffffffffffffffffffffffffffffffffffffff1660809073ffffffffffffffffffffffffffffffffffffffff16815250348015604257600080fd5b50608051614a4061006c60003960008181612968015281816129bd0152612b780152614a406000f3fe60806040526004361061012a5760003560e01c80638009b7bd116100ab578063ad3cb1cc1161006f578063ad3cb1cc146103a5578063ae6a4390146103d0578063b9a2de3a1461040d578063e6d590ed14610436578063f2fde38b1461045f578063f9ac1f67146104885761012a565b80638009b7bd146102e657806389476069146103115780638da5cb5b1461033a57806396b5a75514610365578063a0ef91df1461038e5761012a565b806355a75475116100f257806355a754751461021957806355c623c614610242578063571a26a01461025e57806361beb1d7146102a6578063715018a6146102cf5761012a565b806305f7b3b41461012f57806312d2d79b1461016c578063485cc955146101a95780634f1ef286146101d257806352d1902d146101ee575b600080fd5b34801561013b57600080fd5b506101566004803603810190610151919061340d565b6104b1565b6040516101639190613453565b60405180910390f35b34801561017857600080fd5b50610193600480360381019061018e919061340d565b6104c9565b6040516101a091906134cd565b60405180910390f35b3480156101b557600080fd5b506101d060048036038101906101cb91906134e8565b6104fc565b005b6101ec60048036038101906101e7919061366e565b6106d5565b005b3480156101fa57600080fd5b506102036106f4565b60405161021091906136e3565b60405180910390f35b34801561022557600080fd5b50610240600480360381019061023b919061340d565b610727565b005b61025c6004803603810190610257919061372a565b610773565b005b34801561026a57600080fd5b506102856004803603810190610280919061372a565b610cfb565b60405161029d9c9b9a99989796959493929190613781565b60405180910390f35b3480156102b257600080fd5b506102cd60048036038101906102c8919061383b565b610df5565b005b3480156102db57600080fd5b506102e46113a6565b005b3480156102f257600080fd5b506102fb6113ba565b60405161030891906134cd565b60405180910390f35b34801561031d57600080fd5b506103386004803603810190610333919061340d565b6113e0565b005b34801561034657600080fd5b5061034f61164c565b60405161035c91906138a2565b60405180910390f35b34801561037157600080fd5b5061038c6004803603810190610387919061372a565b611684565b005b34801561039a57600080fd5b506103a361187a565b005b3480156103b157600080fd5b506103ba611a44565b6040516103c7919061393c565b60405180910390f35b3480156103dc57600080fd5b506103f760048036038101906103f291906134e8565b611a7d565b6040516104049190613453565b60405180910390f35b34801561041957600080fd5b50610434600480360381019061042f919061372a565b611aa2565b005b34801561044257600080fd5b5061045d6004803603810190610458919061395e565b612095565b005b34801561046b57600080fd5b506104866004803603810190610481919061340d565b612824565b005b34801561049457600080fd5b506104af60048036038101906104aa91906134e8565b6128aa565b005b60026020528060005260406000206000915090505481565b60056020528060005260406000206000915054906101000a900473ffffffffffffffffffffffffffffffffffffffff1681565b6000610506612934565b905060008160000160089054906101000a900460ff1615905060008260000160009054906101000a900467ffffffffffffffff1690506000808267ffffffffffffffff161480156105545750825b9050600060018367ffffffffffffffff16148015610589575060003073ffffffffffffffffffffffffffffffffffffffff163b145b905081158015610597575080155b156105ce576040517ff92ee8a900000000000000000000000000000000000000000000000000000000815260040160405180910390fd5b60018560000160006101000a81548167ffffffffffffffff021916908367ffffffffffffffff160217905550831561061e5760018560000160086101000a81548160ff0219169083151502179055505b61062787612948565b61062f61295c565b85600460006101000a81548173ffffffffffffffffffffffffffffffffffffffff021916908373ffffffffffffffffffffffffffffffffffffffff16021790555083156106cc5760008560000160086101000a81548160ff0219169083151502179055507fc7f505b2f371ae2175ee4913f4499e1f2633a7b5936321eed1cdaeb6115181d260016040516106c39190613a00565b60405180910390a15b50505050505050565b6106dd612966565b6106e682612a4c565b6106f08282612a57565b5050565b60006106fe612b76565b7f360894a13ba1a3210667c828492db98dca3e2076cc3735a920a3ca505d382bbc60001b905090565b61072f612bfd565b80600460006101000a81548173ffffffffffffffffffffffffffffffffffffffff021916908373ffffffffffffffffffffffffffffffffffffffff16021790555050565b6000806000838152602001908152602001600020905080600a0160019054906101000a900460ff161580156107b7575080600a0160009054906101000a900460ff16155b80156108145750600073ffffffffffffffffffffffffffffffffffffffff168160020160009054906101000a900473ffffffffffffffffffffffffffffffffffffffff1673ffffffffffffffffffffffffffffffffffffffff1614155b610853576040517f08c379a000000000000000000000000000000000000000000000000000000000815260040161084a90613a67565b60405180910390fd5b806005015481600401546108679190613ab6565b42106108a8576040517f08c379a000000000000000000000000000000000000000000000000000000000815260040161089f90613b36565b60405180910390fd5b600073ffffffffffffffffffffffffffffffffffffffff16600460009054906101000a900473ffffffffffffffffffffffffffffffffffffffff1673ffffffffffffffffffffffffffffffffffffffff1603610939576040517f08c379a000000000000000000000000000000000000000000000000000000000815260040161093090613ba2565b60405180910390fd5b600061096934600460009054906101000a900473ffffffffffffffffffffffffffffffffffffffff166012612c84565b905081600301548110156109b2576040517f08c379a00000000000000000000000000000000000000000000000000000000081526004016109a990613c0e565b60405180910390fd5b816007015481116109f8576040517f08c379a00000000000000000000000000000000000000000000000000000000081526004016109ef90613c7a565b60405180910390fd5b600073ffffffffffffffffffffffffffffffffffffffff168260060160009054906101000a900473ffffffffffffffffffffffffffffffffffffffff1673ffffffffffffffffffffffffffffffffffffffff1614610c0c57600073ffffffffffffffffffffffffffffffffffffffff168260080160009054906101000a900473ffffffffffffffffffffffffffffffffffffffff1673ffffffffffffffffffffffffffffffffffffffff1603610b2b578160090154600260008460060160009054906101000a900473ffffffffffffffffffffffffffffffffffffffff1673ffffffffffffffffffffffffffffffffffffffff1673ffffffffffffffffffffffffffffffffffffffff1681526020019081526020016000206000828254610b1f9190613ab6565b92505081905550610c0b565b8160090154600360008460080160009054906101000a900473ffffffffffffffffffffffffffffffffffffffff1673ffffffffffffffffffffffffffffffffffffffff1673ffffffffffffffffffffffffffffffffffffffff16815260200190815260200160002060008460060160009054906101000a900473ffffffffffffffffffffffffffffffffffffffff1673ffffffffffffffffffffffffffffffffffffffff1673ffffffffffffffffffffffffffffffffffffffff1681526020019081526020016000206000828254610c039190613ab6565b925050819055505b5b338260060160006101000a81548173ffffffffffffffffffffffffffffffffffffffff021916908373ffffffffffffffffffffffffffffffffffffffff16021790555080826007018190555060008260080160006101000a81548173ffffffffffffffffffffffffffffffffffffffff021916908373ffffffffffffffffffffffffffffffffffffffff1602179055503482600901819055503373ffffffffffffffffffffffffffffffffffffffff16837f03a7130b53d72323663fc68d91ac56299bf96ba24562da36d80a5d0f807ea6163484604051610cee929190613c9a565b60405180910390a3505050565b60006020528060005260406000206000915090508060000160009054906101000a900473ffffffffffffffffffffffffffffffffffffffff16908060010154908060020160009054906101000a900473ffffffffffffffffffffffffffffffffffffffff16908060030154908060040154908060050154908060060160009054906101000a900473ffffffffffffffffffffffffffffffffffffffff16908060070154908060080160009054906101000a900473ffffffffffffffffffffffffffffffffffffffff169080600901549080600a0160009054906101000a900460ff169080600a0160019054906101000a900460ff1690508c565b60008211610e38576040517f08c379a0000000000000000000000000000000000000000000000000000000008152600401610e2f90613d0f565b60405180910390fd5b600a811015610e7c576040517f08c379a0000000000000000000000000000000000000000000000000000000008152600401610e7390613d7b565b60405180910390fd5b3373ffffffffffffffffffffffffffffffffffffffff168473ffffffffffffffffffffffffffffffffffffffff16636352211e856040518263ffffffff1660e01b8152600401610ecc9190613453565b602060405180830381865afa158015610ee9573d6000803e3d6000fd5b505050506040513d601f19601f82011682018060405250810190610f0d9190613db0565b73ffffffffffffffffffffffffffffffffffffffff1614610f63576040517f08c379a0000000000000000000000000000000000000000000000000000000008152600401610f5a90613e29565b60405180910390fd5b3073ffffffffffffffffffffffffffffffffffffffff168473ffffffffffffffffffffffffffffffffffffffff1663081812fc856040518263ffffffff1660e01b8152600401610fb39190613453565b602060405180830381865afa158015610fd0573d6000803e3d6000fd5b505050506040513d601f19601f82011682018060405250810190610ff49190613db0565b73ffffffffffffffffffffffffffffffffffffffff16148061108e57508373ffffffffffffffffffffffffffffffffffffffff1663e985e9c533306040518363ffffffff1660e01b815260040161104c929190613e49565b602060405180830381865afa158015611069573d6000803e3d6000fd5b505050506040513d601f19601f8201168201806040525081019061108d9190613e9e565b5b6110cd576040517f08c379a00000000000000000000000000000000000000000000000000000000081526004016110c490613f17565b60405180910390fd5b60006001600081546110de90613f37565b91905081905590506040518061018001604052808673ffffffffffffffffffffffffffffffffffffffff1681526020018581526020013373ffffffffffffffffffffffffffffffffffffffff168152602001848152602001428152602001838152602001600073ffffffffffffffffffffffffffffffffffffffff16815260200160008152602001600073ffffffffffffffffffffffffffffffffffffffff168152602001600081526020016000151581526020016000151581525060008083815260200190815260200160002060008201518160000160006101000a81548173ffffffffffffffffffffffffffffffffffffffff021916908373ffffffffffffffffffffffffffffffffffffffff1602179055506020820151816001015560408201518160020160006101000a81548173ffffffffffffffffffffffffffffffffffffffff021916908373ffffffffffffffffffffffffffffffffffffffff160217905550606082015181600301556080820151816004015560a0820151816005015560c08201518160060160006101000a81548173ffffffffffffffffffffffffffffffffffffffff021916908373ffffffffffffffffffffffffffffffffffffffff16021790555060e082015181600701556101008201518160080160006101000a81548173ffffffffffffffffffffffffffffffffffffffff021916908373ffffffffffffffffffffffffffffffffffffffff160217905550610120820151816009015561014082015181600a0160006101000a81548160ff02191690831515021790555061016082015181600a0160016101000a81548160ff021916908315150217905550905050838573ffffffffffffffffffffffffffffffffffffffff16827f0330edd30cf346409c694666d69b24f917bbad510da55f45089d776baff1f42b33878760405161139793929190613f7f565b60405180910390a45050505050565b6113ae612bfd565b6113b86000612e4e565b565b600460009054906101000a900473ffffffffffffffffffffffffffffffffffffffff1681565b6000600360008373ffffffffffffffffffffffffffffffffffffffff1673ffffffffffffffffffffffffffffffffffffffff16815260200190815260200160002060003373ffffffffffffffffffffffffffffffffffffffff1673ffffffffffffffffffffffffffffffffffffffff168152602001908152602001600020549050600081116114a4576040517f08c379a000000000000000000000000000000000000000000000000000000000815260040161149b90614002565b60405180910390fd5b6000600360008473ffffffffffffffffffffffffffffffffffffffff1673ffffffffffffffffffffffffffffffffffffffff16815260200190815260200160002060003373ffffffffffffffffffffffffffffffffffffffff1673ffffffffffffffffffffffffffffffffffffffff168152602001908152602001600020819055508173ffffffffffffffffffffffffffffffffffffffff1663a9059cbb33836040518363ffffffff1660e01b8152600401611561929190614022565b6020604051808303816000875af1158015611580573d6000803e3d6000fd5b505050506040513d601f19601f820116820180604052508101906115a49190613e9e565b6115e3576040517f08c379a00000000000000000000000000000000000000000000000000000000081526004016115da90614097565b60405180910390fd5b3373ffffffffffffffffffffffffffffffffffffffff168273ffffffffffffffffffffffffffffffffffffffff167f037238854fe57fbf51f09946f854fc3916fe83938d6521f09bd05463839f1304836040516116409190613453565b60405180910390a35050565b600080611657612f25565b90508060000160009054906101000a900473ffffffffffffffffffffffffffffffffffffffff1691505090565b600080600083815260200190815260200160002090503373ffffffffffffffffffffffffffffffffffffffff168160020160009054906101000a900473ffffffffffffffffffffffffffffffffffffffff1673ffffffffffffffffffffffffffffffffffffffff161461172c576040517f08c379a000000000000000000000000000000000000000000000000000000000815260040161172390614103565b60405180910390fd5b80600a0160019054906101000a900460ff1615801561175a575080600a0160009054906101000a900460ff16155b611799576040517f08c379a00000000000000000000000000000000000000000000000000000000081526004016117909061416f565b60405180910390fd5b600073ffffffffffffffffffffffffffffffffffffffff168160060160009054906101000a900473ffffffffffffffffffffffffffffffffffffffff1673ffffffffffffffffffffffffffffffffffffffff161461182c576040517f08c379a0000000000000000000000000000000000000000000000000000000008152600401611823906141db565b60405180910390fd5b600181600a0160016101000a81548160ff021916908315150217905550817f28601d865dccc9f113e15a7185c1b38c085d598c71250d3337916a428536d77160405160405180910390a25050565b6000600260003373ffffffffffffffffffffffffffffffffffffffff1673ffffffffffffffffffffffffffffffffffffffff16815260200190815260200160002054905060008111611901576040517f08c379a00000000000000000000000000000000000000000000000000000000081526004016118f890614002565b60405180910390fd5b6000600260003373ffffffffffffffffffffffffffffffffffffffff1673ffffffffffffffffffffffffffffffffffffffff1681526020019081526020016000208190555060003373ffffffffffffffffffffffffffffffffffffffff168260405161196c9061422c565b60006040518083038185875af1925050503d80600081146119a9576040519150601f19603f3d011682016040523d82523d6000602084013e6119ae565b606091505b50509050806119f2576040517f08c379a00000000000000000000000000000000000000000000000000000000081526004016119e990614097565b60405180910390fd5b3373ffffffffffffffffffffffffffffffffffffffff167fccbd99ba6da8f29b2a4f65e474e3c3973564d356c162c08d45f3dc7f0cb5b3aa83604051611a389190613453565b60405180910390a25050565b6040518060400160405280600581526020017f352e302e3000000000000000000000000000000000000000000000000000000081525081565b6003602052816000526040600020602052806000526040600020600091509150505481565b6000806000838152602001908152602001600020905080600a0160019054906101000a900460ff16158015611ae6575080600a0160009054906101000a900460ff16155b8015611b435750600073ffffffffffffffffffffffffffffffffffffffff168160020160009054906101000a900473ffffffffffffffffffffffffffffffffffffffff1673ffffffffffffffffffffffffffffffffffffffff1614155b611b82576040517f08c379a0000000000000000000000000000000000000000000000000000000008152600401611b7990613a67565b60405180910390fd5b80600501548160040154611b969190613ab6565b421015611bd8576040517f08c379a0000000000000000000000000000000000000000000000000000000008152600401611bcf9061428d565b60405180910390fd5b600181600a0160006101000a81548160ff021916908315150217905550600073ffffffffffffffffffffffffffffffffffffffff168160060160009054906101000a900473ffffffffffffffffffffffffffffffffffffffff1673ffffffffffffffffffffffffffffffffffffffff1614612025578060000160009054906101000a900473ffffffffffffffffffffffffffffffffffffffff1673ffffffffffffffffffffffffffffffffffffffff166323b872dd8260020160009054906101000a900473ffffffffffffffffffffffffffffffffffffffff168360060160009054906101000a900473ffffffffffffffffffffffffffffffffffffffff1684600101546040518463ffffffff1660e01b8152600401611cfa939291906142ad565b600060405180830381600087803b158015611d1457600080fd5b505af1158015611d28573d6000803e3d6000fd5b50505050600073ffffffffffffffffffffffffffffffffffffffff168160080160009054906101000a900473ffffffffffffffffffffffffffffffffffffffff1673ffffffffffffffffffffffffffffffffffffffff1603611e5e5760008160020160009054906101000a900473ffffffffffffffffffffffffffffffffffffffff1673ffffffffffffffffffffffffffffffffffffffff168260090154604051611dd29061422c565b60006040518083038185875af1925050503d8060008114611e0f576040519150601f19603f3d011682016040523d82523d6000602084013e611e14565b606091505b5050905080611e58576040517f08c379a0000000000000000000000000000000000000000000000000000000008152600401611e4f90614330565b60405180910390fd5b50611f68565b8060080160009054906101000a900473ffffffffffffffffffffffffffffffffffffffff1673ffffffffffffffffffffffffffffffffffffffff1663a9059cbb8260020160009054906101000a900473ffffffffffffffffffffffffffffffffffffffff1683600901546040518363ffffffff1660e01b8152600401611ee5929190614022565b6020604051808303816000875af1158015611f04573d6000803e3d6000fd5b505050506040513d601f19601f82011682018060405250810190611f289190613e9e565b611f67576040517f08c379a0000000000000000000000000000000000000000000000000000000008152600401611f5e9061439c565b60405180910390fd5b5b8060080160009054906101000a900473ffffffffffffffffffffffffffffffffffffffff1673ffffffffffffffffffffffffffffffffffffffff168160060160009054906101000a900473ffffffffffffffffffffffffffffffffffffffff1673ffffffffffffffffffffffffffffffffffffffff16837f596165d0521c3cb4157fad2621686f086daed4663acb3d03441a92b9277f568384600901548560070154604051612018929190613c9a565b60405180910390a4612091565b600073ffffffffffffffffffffffffffffffffffffffff16600073ffffffffffffffffffffffffffffffffffffffff16837f596165d0521c3cb4157fad2621686f086daed4663acb3d03441a92b9277f56836000806040516120889291906143f7565b60405180910390a45b5050565b6000806000858152602001908152602001600020905080600a0160019054906101000a900460ff161580156120d9575080600a0160009054906101000a900460ff16155b80156121365750600073ffffffffffffffffffffffffffffffffffffffff168160020160009054906101000a900473ffffffffffffffffffffffffffffffffffffffff1673ffffffffffffffffffffffffffffffffffffffff1614155b612175576040517f08c379a000000000000000000000000000000000000000000000000000000000815260040161216c90613a67565b60405180910390fd5b806005015481600401546121899190613ab6565b42106121ca576040517f08c379a00000000000000000000000000000000000000000000000000000000081526004016121c190613b36565b60405180910390fd5b600073ffffffffffffffffffffffffffffffffffffffff16600560008573ffffffffffffffffffffffffffffffffffffffff1673ffffffffffffffffffffffffffffffffffffffff16815260200190815260200160002060009054906101000a900473ffffffffffffffffffffffffffffffffffffffff1673ffffffffffffffffffffffffffffffffffffffff1603612298576040517f08c379a000000000000000000000000000000000000000000000000000000000815260040161228f9061446c565b60405180910390fd5b600082116122db576040517f08c379a00000000000000000000000000000000000000000000000000000000081526004016122d2906144d8565b60405180910390fd5b8273ffffffffffffffffffffffffffffffffffffffff166323b872dd3330856040518463ffffffff1660e01b8152600401612318939291906142ad565b6020604051808303816000875af1158015612337573d6000803e3d6000fd5b505050506040513d601f19601f8201168201806040525081019061235b9190613e9e565b61239a576040517f08c379a000000000000000000000000000000000000000000000000000000000815260040161239190614544565b60405180910390fd5b60008373ffffffffffffffffffffffffffffffffffffffff1663313ce5676040518163ffffffff1660e01b8152600401602060405180830381865afa1580156123e7573d6000803e3d6000fd5b505050506040513d601f19601f8201168201806040525081019061240b919061459d565b9050600061247984600560008873ffffffffffffffffffffffffffffffffffffffff1673ffffffffffffffffffffffffffffffffffffffff16815260200190815260200160002060009054906101000a900473ffffffffffffffffffffffffffffffffffffffff1684612c84565b905082600301548110156124c2576040517f08c379a00000000000000000000000000000000000000000000000000000000081526004016124b990613c0e565b60405180910390fd5b82600701548111612508576040517f08c379a00000000000000000000000000000000000000000000000000000000081526004016124ff90613c7a565b60405180910390fd5b600073ffffffffffffffffffffffffffffffffffffffff168360060160009054906101000a900473ffffffffffffffffffffffffffffffffffffffff1673ffffffffffffffffffffffffffffffffffffffff161461271c57600073ffffffffffffffffffffffffffffffffffffffff168360080160009054906101000a900473ffffffffffffffffffffffffffffffffffffffff1673ffffffffffffffffffffffffffffffffffffffff160361263b578260090154600260008560060160009054906101000a900473ffffffffffffffffffffffffffffffffffffffff1673ffffffffffffffffffffffffffffffffffffffff1673ffffffffffffffffffffffffffffffffffffffff168152602001908152602001600020600082825461262f9190613ab6565b9250508190555061271b565b8260090154600360008560080160009054906101000a900473ffffffffffffffffffffffffffffffffffffffff1673ffffffffffffffffffffffffffffffffffffffff1673ffffffffffffffffffffffffffffffffffffffff16815260200190815260200160002060008560060160009054906101000a900473ffffffffffffffffffffffffffffffffffffffff1673ffffffffffffffffffffffffffffffffffffffff1673ffffffffffffffffffffffffffffffffffffffff16815260200190815260200160002060008282546127139190613ab6565b925050819055505b5b338360060160006101000a81548173ffffffffffffffffffffffffffffffffffffffff021916908373ffffffffffffffffffffffffffffffffffffffff160217905550808360070181905550848360080160006101000a81548173ffffffffffffffffffffffffffffffffffffffff021916908373ffffffffffffffffffffffffffffffffffffffff1602179055508383600901819055508473ffffffffffffffffffffffffffffffffffffffff163373ffffffffffffffffffffffffffffffffffffffff16877f09c98ce1f33738c27958761c7d088e46dc02d7853f9a9ec172d1364a54d683c48785604051612814929190613c9a565b60405180910390a4505050505050565b61282c612bfd565b600073ffffffffffffffffffffffffffffffffffffffff168173ffffffffffffffffffffffffffffffffffffffff160361289e5760006040517f1e4fbdf700000000000000000000000000000000000000000000000000000000815260040161289591906138a2565b60405180910390fd5b6128a781612e4e565b50565b6128b2612bfd565b80600560008473ffffffffffffffffffffffffffffffffffffffff1673ffffffffffffffffffffffffffffffffffffffff16815260200190815260200160002060006101000a81548173ffffffffffffffffffffffffffffffffffffffff021916908373ffffffffffffffffffffffffffffffffffffffff1602179055505050565b60008061293f612f4d565b90508091505090565b612950612f78565b61295981612fb8565b50565b612964612f78565b565b7f000000000000000000000000000000000000000000000000000000000000000073ffffffffffffffffffffffffffffffffffffffff163073ffffffffffffffffffffffffffffffffffffffff161480612a1357507f000000000000000000000000000000000000000000000000000000000000000073ffffffffffffffffffffffffffffffffffffffff166129fa61303e565b73ffffffffffffffffffffffffffffffffffffffff1614155b15612a4a576040517fe07c8dba00000000000000000000000000000000000000000000000000000000815260040160405180910390fd5b565b612a54612bfd565b50565b8173ffffffffffffffffffffffffffffffffffffffff166352d1902d6040518163ffffffff1660e01b8152600401602060405180830381865afa925050508015612abf57506040513d601f19601f82011682018060405250810190612abc91906145f6565b60015b612b0057816040517f4c9c8ce3000000000000000000000000000000000000000000000000000000008152600401612af791906138a2565b60405180910390fd5b7f360894a13ba1a3210667c828492db98dca3e2076cc3735a920a3ca505d382bbc60001b8114612b6757806040517faa1d49a4000000000000000000000000000000000000000000000000000000008152600401612b5e91906136e3565b60405180910390fd5b612b718383613095565b505050565b7f000000000000000000000000000000000000000000000000000000000000000073ffffffffffffffffffffffffffffffffffffffff163073ffffffffffffffffffffffffffffffffffffffff1614612bfb576040517fe07c8dba00000000000000000000000000000000000000000000000000000000815260040160405180910390fd5b565b612c05613108565b73ffffffffffffffffffffffffffffffffffffffff16612c2361164c565b73ffffffffffffffffffffffffffffffffffffffff1614612c8257612c46613108565b6040517f118cdaa7000000000000000000000000000000000000000000000000000000008152600401612c7991906138a2565b60405180910390fd5b565b6000808373ffffffffffffffffffffffffffffffffffffffff1663feaf968c6040518163ffffffff1660e01b815260040160a060405180830381865afa158015612cd2573d6000803e3d6000fd5b505050506040513d601f19601f82011682018060405250810190612cf691906146b0565b50505091505060008113612d3f576040517f08c379a0000000000000000000000000000000000000000000000000000000008152600401612d3690614777565b60405180910390fd5b60008473ffffffffffffffffffffffffffffffffffffffff1663313ce5676040518163ffffffff1660e01b8152600401602060405180830381865afa158015612d8c573d6000803e3d6000fd5b505050506040513d601f19601f82011682018060405250810190612db0919061459d565b905060008460ff16600a612dc491906148ca565b905060008260ff16600a612dd891906148ca565b9050600082670de0b6b3a76400008a612df19190614915565b612dfb9190614986565b9050600082670de0b6b3a764000087612e149190614915565b612e1e9190614986565b9050670de0b6b3a76400008183612e359190614915565b612e3f9190614986565b96505050505050509392505050565b6000612e58612f25565b905060008160000160009054906101000a900473ffffffffffffffffffffffffffffffffffffffff169050828260000160006101000a81548173ffffffffffffffffffffffffffffffffffffffff021916908373ffffffffffffffffffffffffffffffffffffffff1602179055508273ffffffffffffffffffffffffffffffffffffffff168173ffffffffffffffffffffffffffffffffffffffff167f8be0079c531659141344cd1fd0a4f28419497f9722a3daafe3b4186f6b6457e060405160405180910390a3505050565b60007f9016d09d72d40fdae2fd8ceac6b6234c7706214fd39c1cd1e609a0528c199300905090565b60007ff0c57e16840df040f15088dc2f81fe391c3923bec73e23a9662efc9c229c6a0060001b905090565b612f80613110565b612fb6576040517fd7e6bcf800000000000000000000000000000000000000000000000000000000815260040160405180910390fd5b565b612fc0612f78565b600073ffffffffffffffffffffffffffffffffffffffff168173ffffffffffffffffffffffffffffffffffffffff16036130325760006040517f1e4fbdf700000000000000000000000000000000000000000000000000000000815260040161302991906138a2565b60405180910390fd5b61303b81612e4e565b50565b600061306c7f360894a13ba1a3210667c828492db98dca3e2076cc3735a920a3ca505d382bbc60001b613130565b60000160009054906101000a900473ffffffffffffffffffffffffffffffffffffffff16905090565b61309e8261313a565b8173ffffffffffffffffffffffffffffffffffffffff167fbc7cd75a20ee27fd9adebab32041f755214dbc6bffa90cc0225b39da2e5c2d3b60405160405180910390a26000815111156130fb576130f58282613207565b50613104565b61310361328b565b5b5050565b600033905090565b600061311a612934565b60000160089054906101000a900460ff16905090565b6000819050919050565b60008173ffffffffffffffffffffffffffffffffffffffff163b0361319657806040517f4c9c8ce300000000000000000000000000000000000000000000000000000000815260040161318d91906138a2565b60405180910390fd5b806131c37f360894a13ba1a3210667c828492db98dca3e2076cc3735a920a3ca505d382bbc60001b613130565b60000160006101000a81548173ffffffffffffffffffffffffffffffffffffffff021916908373ffffffffffffffffffffffffffffffffffffffff16021790555050565b60606000808473ffffffffffffffffffffffffffffffffffffffff168460405161323191906149f3565b600060405180830381855af49150503d806000811461326c576040519150601f19603f3d011682016040523d82523d6000602084013e613271565b606091505b50915091506132818583836132c8565b9250505092915050565b60003411156132c6576040517fb398979f00000000000000000000000000000000000000000000000000000000815260040160405180910390fd5b565b6060826132dd576132d882613357565b61334f565b60008251148015613305575060008473ffffffffffffffffffffffffffffffffffffffff163b145b1561334757836040517f9996b31500000000000000000000000000000000000000000000000000000000815260040161333e91906138a2565b60405180910390fd5b819050613350565b5b9392505050565b60008151111561336957805160208201fd5b6040517fd6bda27500000000000000000000000000000000000000000000000000000000815260040160405180910390fd5b6000604051905090565b600080fd5b600080fd5b600073ffffffffffffffffffffffffffffffffffffffff82169050919050565b60006133da826133af565b9050919050565b6133ea816133cf565b81146133f557600080fd5b50565b600081359050613407816133e1565b92915050565b600060208284031215613423576134226133a5565b5b6000613431848285016133f8565b91505092915050565b6000819050919050565b61344d8161343a565b82525050565b60006020820190506134686000830184613444565b92915050565b6000819050919050565b600061349361348e613489846133af565b61346e565b6133af565b9050919050565b60006134a582613478565b9050919050565b60006134b78261349a565b9050919050565b6134c7816134ac565b82525050565b60006020820190506134e260008301846134be565b92915050565b600080604083850312156134ff576134fe6133a5565b5b600061350d858286016133f8565b925050602061351e858286016133f8565b9150509250929050565b600080fd5b600080fd5b6000601f19601f8301169050919050565b7f4e487b7100000000000000000000000000000000000000000000000000000000600052604160045260246000fd5b61357b82613532565b810181811067ffffffffffffffff8211171561359a57613599613543565b5b80604052505050565b60006135ad61339b565b90506135b98282613572565b919050565b600067ffffffffffffffff8211156135d9576135d8613543565b5b6135e282613532565b9050602081019050919050565b82818337600083830152505050565b600061361161360c846135be565b6135a3565b90508281526020810184848401111561362d5761362c61352d565b5b6136388482856135ef565b509392505050565b600082601f83011261365557613654613528565b5b81356136658482602086016135fe565b91505092915050565b60008060408385031215613685576136846133a5565b5b6000613693858286016133f8565b925050602083013567ffffffffffffffff8111156136b4576136b36133aa565b5b6136c085828601613640565b9150509250929050565b6000819050919050565b6136dd816136ca565b82525050565b60006020820190506136f860008301846136d4565b92915050565b6137078161343a565b811461371257600080fd5b50565b600081359050613724816136fe565b92915050565b6000602082840312156137405761373f6133a5565b5b600061374e84828501613715565b91505092915050565b613760816133cf565b82525050565b60008115159050919050565b61377b81613766565b82525050565b600061018082019050613797600083018f613757565b6137a4602083018e613444565b6137b1604083018d613757565b6137be606083018c613444565b6137cb608083018b613444565b6137d860a083018a613444565b6137e560c0830189613757565b6137f260e0830188613444565b613800610100830187613757565b61380e610120830186613444565b61381c610140830185613772565b61382a610160830184613772565b9d9c50505050505050505050505050565b60008060008060808587031215613855576138546133a5565b5b6000613863878288016133f8565b945050602061387487828801613715565b935050604061388587828801613715565b925050606061389687828801613715565b91505092959194509250565b60006020820190506138b76000830184613757565b92915050565b600081519050919050565b600082825260208201905092915050565b60005b838110156138f75780820151818401526020810190506138dc565b60008484015250505050565b600061390e826138bd565b61391881856138c8565b93506139288185602086016138d9565b61393181613532565b840191505092915050565b600060208201905081810360008301526139568184613903565b905092915050565b600080600060608486031215613977576139766133a5565b5b600061398586828701613715565b9350506020613996868287016133f8565b92505060406139a786828701613715565b9150509250925092565b6000819050919050565b600067ffffffffffffffff82169050919050565b60006139ea6139e56139e0846139b1565b61346e565b6139bb565b9050919050565b6139fa816139cf565b82525050565b6000602082019050613a1560008301846139f1565b92915050565b7f696e76616c69642061756374696f6e0000000000000000000000000000000000600082015250565b6000613a51600f836138c8565b9150613a5c82613a1b565b602082019050919050565b60006020820190508181036000830152613a8081613a44565b9050919050565b7f4e487b7100000000000000000000000000000000000000000000000000000000600052601160045260246000fd5b6000613ac18261343a565b9150613acc8361343a565b9250828201905080821115613ae457613ae3613a87565b5b92915050565b7f6578706972656400000000000000000000000000000000000000000000000000600082015250565b6000613b206007836138c8565b9150613b2b82613aea565b602082019050919050565b60006020820190508181036000830152613b4f81613b13565b9050919050565b7f6e6f206574682066656564000000000000000000000000000000000000000000600082015250565b6000613b8c600b836138c8565b9150613b9782613b56565b602082019050919050565b60006020820190508181036000830152613bbb81613b7f565b9050919050565b7f62656c6f77206d696e0000000000000000000000000000000000000000000000600082015250565b6000613bf86009836138c8565b9150613c0382613bc2565b602082019050919050565b60006020820190508181036000830152613c2781613beb565b9050919050565b7f6e6f742068696768657374000000000000000000000000000000000000000000600082015250565b6000613c64600b836138c8565b9150613c6f82613c2e565b602082019050919050565b60006020820190508181036000830152613c9381613c57565b9050919050565b6000604082019050613caf6000830185613444565b613cbc6020830184613444565b9392505050565b7f6d696e2055534420696e76616c69640000000000000000000000000000000000600082015250565b6000613cf9600f836138c8565b9150613d0482613cc3565b602082019050919050565b60006020820190508181036000830152613d2881613cec565b9050919050565b7f6475726174696f6e20746f6f2073686f72740000000000000000000000000000600082015250565b6000613d656012836138c8565b9150613d7082613d2f565b602082019050919050565b60006020820190508181036000830152613d9481613d58565b9050919050565b600081519050613daa816133e1565b92915050565b600060208284031215613dc657613dc56133a5565b5b6000613dd484828501613d9b565b91505092915050565b7f6e6f74206f776e65720000000000000000000000000000000000000000000000600082015250565b6000613e136009836138c8565b9150613e1e82613ddd565b602082019050919050565b60006020820190508181036000830152613e4281613e06565b9050919050565b6000604082019050613e5e6000830185613757565b613e6b6020830184613757565b9392505050565b613e7b81613766565b8114613e8657600080fd5b50565b600081519050613e9881613e72565b92915050565b600060208284031215613eb457613eb36133a5565b5b6000613ec284828501613e89565b91505092915050565b7f6e6f7420617070726f7665640000000000000000000000000000000000000000600082015250565b6000613f01600c836138c8565b9150613f0c82613ecb565b602082019050919050565b60006020820190508181036000830152613f3081613ef4565b9050919050565b6000613f428261343a565b91507fffffffffffffffffffffffffffffffffffffffffffffffffffffffffffffffff8203613f7457613f73613a87565b5b600182019050919050565b6000606082019050613f946000830186613757565b613fa16020830185613444565b613fae6040830184613444565b949350505050565b7f6e6f7468696e6700000000000000000000000000000000000000000000000000600082015250565b6000613fec6007836138c8565b9150613ff782613fb6565b602082019050919050565b6000602082019050818103600083015261401b81613fdf565b9050919050565b60006040820190506140376000830185613757565b6140446020830184613444565b9392505050565b7f7769746864726177206661696c65640000000000000000000000000000000000600082015250565b6000614081600f836138c8565b915061408c8261404b565b602082019050919050565b600060208201905081810360008301526140b081614074565b9050919050565b7f6e6f742073656c6c657200000000000000000000000000000000000000000000600082015250565b60006140ed600a836138c8565b91506140f8826140b7565b602082019050919050565b6000602082019050818103600083015261411c816140e0565b9050919050565b7f66696e616c697a65640000000000000000000000000000000000000000000000600082015250565b60006141596009836138c8565b915061416482614123565b602082019050919050565b600060208201905081810360008301526141888161414c565b9050919050565b7f6861732062696400000000000000000000000000000000000000000000000000600082015250565b60006141c56007836138c8565b91506141d08261418f565b602082019050919050565b600060208201905081810360008301526141f4816141b8565b9050919050565b600081905092915050565b50565b60006142166000836141fb565b915061422182614206565b600082019050919050565b600061423782614209565b9150819050919050565b7f6e6f7420656e6465640000000000000000000000000000000000000000000000600082015250565b60006142776009836138c8565b915061428282614241565b602082019050919050565b600060208201905081810360008301526142a68161426a565b9050919050565b60006060820190506142c26000830186613757565b6142cf6020830185613757565b6142dc6040830184613444565b949350505050565b7f7061792073656c6c6572206661696c6564000000000000000000000000000000600082015250565b600061431a6011836138c8565b9150614325826142e4565b602082019050919050565b600060208201905081810360008301526143498161430d565b9050919050565b7f70617920746f6b656e206661696c656400000000000000000000000000000000600082015250565b60006143866010836138c8565b915061439182614350565b602082019050919050565b600060208201905081810360008301526143b581614379565b9050919050565b6000819050919050565b60006143e16143dc6143d7846143bc565b61346e565b61343a565b9050919050565b6143f1816143c6565b82525050565b600060408201905061440c60008301856143e8565b61441960208301846143e8565b9392505050565b7f6e6f20746f6b656e206665656400000000000000000000000000000000000000600082015250565b6000614456600d836138c8565b915061446182614420565b602082019050919050565b6000602082019050818103600083015261448581614449565b9050919050565b7f616d6f756e74207a65726f000000000000000000000000000000000000000000600082015250565b60006144c2600b836138c8565b91506144cd8261448c565b602082019050919050565b600060208201905081810360008301526144f1816144b5565b9050919050565b7f7472616e7366657246726f6d206661696c656400000000000000000000000000600082015250565b600061452e6013836138c8565b9150614539826144f8565b602082019050919050565b6000602082019050818103600083015261455d81614521565b9050919050565b600060ff82169050919050565b61457a81614564565b811461458557600080fd5b50565b60008151905061459781614571565b92915050565b6000602082840312156145b3576145b26133a5565b5b60006145c184828501614588565b91505092915050565b6145d3816136ca565b81146145de57600080fd5b50565b6000815190506145f0816145ca565b92915050565b60006020828403121561460c5761460b6133a5565b5b600061461a848285016145e1565b91505092915050565b600069ffffffffffffffffffff82169050919050565b61464281614623565b811461464d57600080fd5b50565b60008151905061465f81614639565b92915050565b6000819050919050565b61467881614665565b811461468357600080fd5b50565b6000815190506146958161466f565b92915050565b6000815190506146aa816136fe565b92915050565b600080600080600060a086880312156146cc576146cb6133a5565b5b60006146da88828901614650565b95505060206146eb88828901614686565b94505060406146fc8882890161469b565b935050606061470d8882890161469b565b925050608061471e88828901614650565b9150509295509295909350565b7f6261642070726963650000000000000000000000000000000000000000000000600082015250565b60006147616009836138c8565b915061476c8261472b565b602082019050919050565b6000602082019050818103600083015261479081614754565b9050919050565b60008160011c9050919050565b6000808291508390505b60018511156147ee578086048111156147ca576147c9613a87565b5b60018516156147d95780820291505b80810290506147e785614797565b94506147ae565b94509492505050565b60008261480757600190506148c3565b8161481557600090506148c3565b816001811461482b576002811461483557614864565b60019150506148c3565b60ff84111561484757614846613a87565b5b8360020a91508482111561485e5761485d613a87565b5b506148c3565b5060208310610133831016604e8410600b84101617156148995782820a90508381111561489457614893613a87565b5b6148c3565b6148a684848460016147a4565b925090508184048111156148bd576148bc613a87565b5b81810290505b9392505050565b60006148d58261343a565b91506148e08361343a565b925061490d7fffffffffffffffffffffffffffffffffffffffffffffffffffffffffffffffff84846147f7565b905092915050565b60006149208261343a565b915061492b8361343a565b92508282026149398161343a565b915082820484148315176149505761494f613a87565b5b5092915050565b7f4e487b7100000000000000000000000000000000000000000000000000000000600052601260045260246000fd5b60006149918261343a565b915061499c8361343a565b9250826149ac576149ab614957565b5b828204905092915050565b600081519050919050565b60006149cd826149b7565b6149d781856141fb565b93506149e78185602086016138d9565b80840191505092915050565b60006149ff82846149c2565b91508190509291505056fea2646970667358221220244f28a40fb9f27933dd6eaa9dd7f9e03b1735369c4234c3a0096cd6a7d2e95364736f6c634300081c0033",
  "devdoc": {
    "errors": {
      "AddressEmptyCode(address)": [
        {
          "details": "There's no code at `target` (it is not a contract)."
        }
      ],
      "ERC1967InvalidImplementation(address)": [
        {
          "details": "The `implementation` of the proxy is invalid."
        }
      ],
      "ERC1967NonPayable()": [
        {
          "details": "An upgrade function sees `msg.value > 0` that may be lost."
        }
      ],
      "FailedCall()": [
        {
          "details": "A call to an address target failed. The target may have reverted."
        }
      ],
      "InvalidInitialization()": [
        {
          "details": "The contract is already initialized."
        }
      ],
      "NotInitializing()": [
        {
          "details": "The contract is not initializing."
        }
      ],
      "OwnableInvalidOwner(address)": [
        {
          "details": "The owner is not a valid owner account. (eg. `address(0)`)"
        }
      ],
      "OwnableUnauthorizedAccount(address)": [
        {
          "details": "The caller account is not authorized to perform an operation."
        }
      ],
      "UUPSUnauthorizedCallContext()": [
        {
          "details": "The call is from an unauthorized context."
        }
      ],
      "UUPSUnsupportedProxiableUUID(bytes32)": [
        {
          "details": "The storage `slot` is unsupported as a UUID."
        }
      ]
    },
    "events": {
      "Initialized(uint64)": {
        "details": "Triggered when the contract has been initialized or reinitialized."
      },
      "Upgraded(address)": {
        "details": "Emitted when the implementation is upgraded."
      }
    },
    "kind": "dev",
    "methods": {
      "bidEth(uint256)": {
        "params": {
          "auctionId": " ID"
        }
      },
      "bidToken(uint256,address,uint256)": {
        "params": {
          "amount": "",
          "auctionId": " ID",
          "token": "ERC20 "
        }
      },
      "cancelAuction(uint256)": {
        "params": {
          "auctionId": " ID"
        }
      },
      "createAuction(address,uint256,uint256,uint256)": {
        "params": {
          "duration": "",
          "minBidUSD18": "18  USD ",
          "nft": "NFT ",
          "tokenId": "NFT  TokenId"
        }
      },
      "endAuction(uint256)": {
        "params": {
          "auctionId": " ID"
        }
      },
      "initialize(address,address)": {
        "params": {
          "ethFeed_": "ETH/USD ",
          "owner_": ""
        }
      },
      "owner()": {
        "details": "Returns the address of the current owner."
      },
      "proxiableUUID()": {
        "details": "Implementation of the ERC-1822 {proxiableUUID} function. This returns the storage slot used by the implementation. It is used to validate the implementation's compatibility when performing an upgrade. IMPORTANT: A proxy pointing at a proxiable contract should not be considered proxiable itself, because this risks bricking a proxy that upgrades to it, by delegating to itself until out of gas. Thus it is critical that this function revert if invoked through a proxy. This is guaranteed by the `notDelegated` modifier."
      },
      "renounceOwnership()": {
        "details": "Leaves the contract without owner. It will not be possible to call `onlyOwner` functions. Can only be called by the current owner. NOTE: Renouncing ownership will leave the contract without an owner, thereby disabling any functionality that is only available to the owner."
      },
      "setEthUsdFeed(address)": {
        "params": {
          "feed": "Chainlink Aggregator "
        }
      },
      "setTokenUsdFeed(address,address)": {
        "params": {
          "feed": "Chainlink Aggregator ",
          "token": "ERC20 "
        }
      },
      "transferOwnership(address)": {
        "details": "Transfers ownership of the contract to a new account (`newOwner`). Can only be called by the current owner."
      },
      "upgradeToAndCall(address,bytes)": {
        "custom:oz-upgrades-unsafe-allow-reachable": "delegatecall",
        "details": "Upgrade the implementation of the proxy to `newImplementation`, and subsequently execute the function call encoded in `data`. Calls {_authorizeUpgrade}. Emits an {Upgraded} event."
      },
      "withdrawToken(address)": {
        "params": {
          "token": "ERC20 "
        }
      }
    },
    "title": " NFT  ETH/ERC20  USD ",
    "version": 1
  },
  "userdoc": {
    "events": {
      "AuctionCanceled(uint256)": {
        "notice": ""
      },
      "AuctionCreated(uint256,address,uint256,address,uint256,uint256)": {
        "notice": ""
      },
      "AuctionEnded(uint256,address,address,uint256,uint256)": {
        "notice": ""
      },
      "BidEth(uint256,address,uint256,uint256)": {
        "notice": "ETH "
      },
      "BidToken(uint256,address,address,uint256,uint256)": {
        "notice": "ERC20 "
      },
      "WithdrawEth(address,uint256)": {
        "notice": " ETH "
      },
      "WithdrawToken(address,address,uint256)": {
        "notice": " ERC20 "
      }
    },
    "kind": "user",
    "methods": {
      "auctions(uint256)": {
        "notice": " ID  "
      },
      "bidEth(uint256)": {
        "notice": " ETH  USD "
      },
      "bidToken(uint256,address,uint256)": {
        "notice": " ERC20  USD "
      },
      "cancelAuction(uint256)": {
        "notice": ""
      },
      "createAuction(address,uint256,uint256,uint256)": {
        "notice": " NFT "
      },
      "endAuction(uint256)": {
        "notice": ""
      },
      "ethUsdFeed()": {
        "notice": "ETH/USD "
      },
      "initialize(address,address)": {
        "notice": "UUPS "
      },
      "pendingReturnsEth(address)": {
        "notice": "ETH    ETH "
      },
      "pendingReturnsToken(address,address)": {
        "notice": "ERC20 token     ERC20 "
      },
      "setEthUsdFeed(address)": {
        "notice": " ETH/USD "
      },
      "setTokenUsdFeed(address,address)": {
        "notice": " ERC20  USD "
      },
      "tokenUsdFeed(address)": {
        "notice": " ERC20  USD "
      },
      "withdrawEth()": {
        "notice": " ETH "
      },
      "withdrawToken(address)": {
        "notice": " ERC20 "
      }
    },
    "notice": " UUPS  Chainlink ",
    "version": 1
  },
  "storageLayout": {
    "storage": [
      {
        "astId": 1749,
        "contract": "contracts/NFTAuctionUpgradeable.sol:NFTAuctionUpgradeable",
        "label": "auctions",
        "offset": 0,
        "slot": "0",
        "type": "t_mapping(t_uint256,t_struct(Auction)1743_storage)"
      },
      {
        "astId": 1752,
        "contract": "contracts/NFTAuctionUpgradeable.sol:NFTAuctionUpgradeable",
        "label": "nextAuctionId",
        "offset": 0,
        "slot": "1",
        "type": "t_uint256"
      },
      {
        "astId": 1757,
        "contract": "contracts/NFTAuctionUpgradeable.sol:NFTAuctionUpgradeable",
        "label": "pendingReturnsEth",
        "offset": 0,
        "slot": "2",
        "type": "t_mapping(t_address,t_uint256)"
      },
      {
        "astId": 1764,
        "contract": "contracts/NFTAuctionUpgradeable.sol:NFTAuctionUpgradeable",
        "label": "pendingReturnsToken",
        "offset": 0,
        "slot": "3",
        "type": "t_mapping(t_address,t_mapping(t_address,t_uint256))"
      },
      {
        "astId": 1768,
        "contract": "contracts/NFTAuctionUpgradeable.sol:NFTAuctionUpgradeable",
        "label": "ethUsdFeed",
        "offset": 0,
        "slot": "4",
        "type": "t_contract(AggregatorV3Interface)1698"
      },
      {
        "astId": 1774,
        "contract": "contracts/NFTAuctionUpgradeable.sol:NFTAuctionUpgradeable",
        "label": "tokenUsdFeed",
        "offset": 0,
        "slot": "5",
        "type": "t_mapping(t_address,t_contract(AggregatorV3Interface)1698)"
      }
    ],
    "types": {
      "t_address": {
        "encoding": "inplace",
        "label": "address",
        "numberOfBytes": "20"
      },
      "t_bool": {
        "encoding": "inplace",
        "label": "bool",
        "numberOfBytes": "1"
      },
      "t_contract(AggregatorV3Interface)1698": {
        "encoding": "inplace",
        "label": "contract AggregatorV3Interface",
        "numberOfBytes": "20"
      },
      "t_mapping(t_address,t_contract(AggregatorV3Interface)1698)": {
        "encoding": "mapping",
        "key": "t_address",
        "label": "mapping(address => contract AggregatorV3Interface)",
        "numberOfBytes": "32",
        "value": "t_contract(AggregatorV3Interface)1698"
      },
      "t_mapping(t_address,t_mapping(t_address,t_uint256))": {
        "encoding": "mapping",
        "key": "t_address",
        "label": "mapping(address => mapping(address => uint256))",
        "numberOfBytes": "32",
        "value": "t_mapping(t_address,t_uint256)"
      },
      "t_mapping(t_address,t_uint256)": {
        "encoding": "mapping",
        "key": "t_address",
        "label": "mapping(address => uint256)",
        "numberOfBytes": "32",
        "value": "t_uint256"
      },
      "t_mapping(t_uint256,t_struct(Auction)1743_storage)": {
        "encoding": "mapping",
        "key": "t_uint256",
        "label": "mapping(uint256 => struct NFTAuctionUpgradeable.Auction)",
        "numberOfBytes": "32",
        "value": "t_struct(Auction)1743_storage"
      },
      "t_struct(Auction)1743_storage": {
        "encoding": "inplace",
        "label": "struct NFTAuctionUpgradeable.Auction",
        "members": [
          {
            "astId": 1709,
            "contract": "contracts/NFTAuctionUpgradeable.sol:NFTAuctionUpgradeable",
            "label": "nft",
            "offset": 0,
            "slot": "0",
            "type": "t_address"
          },
          {
            "astId": 1712,
            "contract": "contracts/NFTAuctionUpgradeable.sol:NFTAuctionUpgradeable",
            "label": "tokenId",
            "offset": 0,
            "slot": "1",
            "type": "t_uint256"
          },
          {
            "astId": 1715,
            "contract": "contracts/NFTAuctionUpgradeable.sol:NFTAuctionUpgradeable",
            "label": "seller",
            "offset": 0,
            "slot": "2",
            "type": "t_address"
          },
          {
            "astId": 1718,
            "contract": "contracts/NFTAuctionUpgradeable.sol:NFTAuctionUpgradeable",
            "label": "minBidUSD18",
            "offset": 0,
            "slot": "3",
            "type": "t_uint256"
          },
          {
            "astId": 1721,
            "contract": "contracts/NFTAuctionUpgradeable.sol:NFTAuctionUpgradeable",
            "label": "startTime",
            "offset": 0,
            "slot": "4",
            "type": "t_uint256"
          },
          {
            "astId": 1724,
            "contract": "contracts/NFTAuctionUpgradeable.sol:NFTAuctionUpgradeable",
            "label": "duration",
            "offset": 0,
            "slot": "5",
            "type": "t_uint256"
          },
          {
            "astId": 1727,
            "contract": "contracts/NFTAuctionUpgradeable.sol:NFTAuctionUpgradeable",
            "label": "highestBidder",
            "offset": 0,
            "slot": "6",
            "type": "t_address"
          },
          {
            "astId": 1730,
            "contract": "contracts/NFTAuctionUpgradeable.sol:NFTAuctionUpgradeable",
            "label": "highestBidUSD18",
            "offset": 0,
            "slot": "7",
            "type": "t_uint256"
          },
          {
            "astId": 1733,
            "contract": "contracts/NFTAuctionUpgradeable.sol:NFTAuctionUpgradeable",
            "label": "paymentToken",
            "offset": 0,
            "slot": "8",
            "type": "t_address"
          },
          {
            "astId": 1736,
            "contract": "contracts/NFTAuctionUpgradeable.sol:NFTAuctionUpgradeable",
            "label": "highestBidAmount",
            "offset": 0,
            "slot": "9",
            "type": "t_uint256"
          },
          {
            "astId": 1739,
            "contract": "contracts/NFTAuctionUpgradeable.sol:NFTAuctionUpgradeable",
            "label": "ended",
            "offset": 0,
            "slot": "10",
            "type": "t_bool"
          },
          {
            "astId": 1742,
            "contract": "contracts/NFTAuctionUpgradeable.sol:NFTAuctionUpgradeable",
            "label": "canceled",
            "offset": 1,
            "slot": "10",
            "type": "t_bool"
          }
        ],
        "numberOfBytes": "352"
      },
      "t_uint256": {
        "encoding": "inplace",
        "label": "uint256",
        "numberOfBytes": "32"
      }
    }
  }
}