{
  "address": "0xCf7Ed3AccA5a467e9e704C703E8D87F634fB0Fc9",
  "abi": [
    {
      "inputs": [
        {
          "internalType": "address",
          "name": "target",
          "type": "address"
        }
      ],
      "name": "AddressEmptyCode",
      "type": "error"
    },
    {
      "inputs": [
        {
          "internalType": "address",
          "name": "implementation",
          "type": "address"
        }
      ],
      "name": "ERC1967InvalidImplementation",
      "type": "error"
    },
    {
      "inputs": [],
      "name": "ERC1967NonPayable",
      "type": "error"
    },
    {
      "inputs": [],
      "name": "FailedCall",
      "type": "error"
    },
    {
      "inputs": [],
      "name": "InvalidInitialization",
      "type": "error"
    },
    {
      "inputs": [],
      "name": "NotInitializing",
      "type": "error"
    },
    {
      "inputs": [
        {
          "internalType": "address",
          "name": "owner",
          "type": "address"
        }
      ],
      "name": "OwnableInvalidOwner",
      "type": "error"
    },
    {
      "inputs": [
        {
          "internalType": "address",
          "name": "account",
          "type": "address"
        }
      ],
      "name": "OwnableUnauthorizedAccount",
      "type": "error"
    },
    {
      "inputs": [],
      "name": "UUPSUnauthorizedCallContext",
      "type": "error"
    },
    {
      "inputs": [
        {
          "internalType": "bytes32",
          "name": "slot",
          "type": "bytes32"
        }
      ],
      "name": "UUPSUnsupportedProxiableUUID",
      "type": "error"
    },
    {
      "anonymous": false,
      "inputs": [
        {
          "indexed": true,
          "internalType": "uint256",
          "name": "auctionId",
          "type": "uint256"
        }
      ],
      "name": "AuctionCanceled",
      "type": "event"
    },
    {
      "anonymous": false,
      "inputs": [
        {
          "indexed": true,
          "internalType": "uint256",
          "name": "auctionId",
          "type": "uint256"
        },
        {
          "indexed": true,
          "internalType": "address",
          "name": "nft",
          "type": "address"
        },
        {
          "indexed": true,
          "internalType": "uint256",
          "name": "tokenId",
          "type": "uint256"
        },
        {
          "indexed": false,
          "internalType": "address",
          "name": "seller",
          "type": "address"
        },
        {
          "indexed": false,
          "internalType": "uint256",
          "name": "minBidUSD18",
          "type": "uint256"
        },
        {
          "indexed": false,
          "internalType": "uint256",
          "name": "duration",
          "type": "uint256"
        }
      ],
      "name": "AuctionCreated",
      "type": "event"
    },
    {
      "anonymous": false,
      "inputs": [
        {
          "indexed": true,
          "internalType": "uint256",
          "name": "auctionId",
          "type": "uint256"
        },
        {
          "indexed": true,
          "internalType": "address",
          "name": "winner",
          "type": "address"
        },
        {
          "indexed": true,
          "internalType": "address",
          "name": "paymentToken",
          "type": "address"
        },
        {
          "indexed": false,
          "internalType": "uint256",
          "name": "amountRaw",
          "type": "uint256"
        },
        {
          "indexed": false,
          "internalType": "uint256",
          "name": "amountUsd18",
          "type": "uint256"
        }
      ],
      "name": "AuctionEnded",
      "type": "event"
    },
    {
      "anonymous": false,
      "inputs": [
        {
          "indexed": true,
          "internalType": "uint256",
          "name": "auctionId",
          "type": "uint256"
        },
        {
          "indexed": true,
          "internalType": "address",
          "name": "bidder",
          "type": "address"
        },
        {
          "indexed": false,
          "internalType": "uint256",
          "name": "amountWei",
          "type": "uint256"
        },
        {
          "indexed": false,
          "internalType": "uint256",
          "name": "amountUsd18",
          "type": "uint256"
        }
      ],
      "name": "BidEth",
      "type": "event"
    },
    {
      "anonymous": false,
      "inputs": [
        {
          "indexed": true,
          "internalType": "uint256",
          "name": "auctionId",
          "type": "uint256"
        },
        {
          "indexed": true,
          "internalType": "address",
          "name": "bidder",
          "type": "address"
        },
        {
          "indexed": true,
          "internalType": "address",
          "name": "token",
          "type": "address"
        },
        {
          "indexed": false,
          "internalType": "uint256",
          "name": "amount",
          "type": "uint256"
        },
        {
          "indexed": false,
          "internalType": "uint256",
          "name": "amountUsd18",
          "type": "uint256"
        }
      ],
      "name": "BidToken",
      "type": "event"
    },
    {
      "anonymous": false,
      "inputs": [
        {
          "indexed": false,
          "internalType": "uint64",
          "name": "version",
          "type": "uint64"
        }
      ],
      "name": "Initialized",
      "type": "event"
    },
    {
      "anonymous": false,
      "inputs": [
        {
          "indexed": true,
          "internalType": "address",
          "name": "previousOwner",
          "type": "address"
        },
        {
          "indexed": true,
          "internalType": "address",
          "name": "newOwner",
          "type": "address"
        }
      ],
      "name": "OwnershipTransferred",
      "type": "event"
    },
    {
      "anonymous": false,
      "inputs": [
        {
          "indexed": true,
          "internalType": "address",
          "name": "implementation",
          "type": "address"
        }
      ],
      "name": "Upgraded",
      "type": "event"
    },
    {
      "anonymous": false,
      "inputs": [
        {
          "indexed": true,
          "internalType": "address",
          "name": "account",
          "type": "address"
        },
        {
          "indexed": false,
          "internalType": "uint256",
          "name": "amount",
          "type": "uint256"
        }
      ],
      "name": "WithdrawEth",
      "type": "event"
    },
    {
      "anonymous": false,
      "inputs": [
        {
          "indexed": true,
          "internalType": "address",
          "name": "token",
          "type": "address"
        },
        {
          "indexed": true,
          "internalType": "address",
          "name": "account",
          "type": "address"
        },
        {
          "indexed": false,
          "internalType": "uint256",
          "name": "amount",
          "type": "uint256"
        }
      ],
      "name": "WithdrawToken",
      "type": "event"
    },
    {
      "inputs": [],
      "name": "UPGRADE_INTERFACE_VERSION",
      "outputs": [
        {
          "internalType": "string",
          "name": "",
          "type": "string"
        }
      ],
      "stateMutability": "view",
      "type": "function"
    },
    {
      "inputs": [
        {
          "internalType": "uint256",
          "name": "",
          "type": "uint256"
        }
      ],
      "name": "auctions",
      "outputs": [
        {
          "internalType": "address",
          "name": "nft",
          "type": "address"
        },
        {
          "internalType": "uint256",
          "name": "tokenId",
          "type": "uint256"
        },
        {
          "internalType": "address",
          "name": "seller",
          "type": "address"
        },
        {
          "internalType": "uint256",
          "name": "minBidUSD18",
          "type": "uint256"
        },
        {
          "internalType": "uint256",
          "name": "startTime",
          "type": "uint256"
        },
        {
          "internalType": "uint256",
          "name": "duration",
          "type": "uint256"
        },
        {
          "internalType": "address",
          "name": "highestBidder",
          "type": "address"
        },
        {
          "internalType": "uint256",
          "name": "highestBidUSD18",
          "type": "uint256"
        },
        {
          "internalType": "address",
          "name": "paymentToken",
          "type": "address"
        },
        {
          "internalType": "uint256",
          "name": "highestBidAmount",
          "type": "uint256"
        },
        {
          "internalType": "bool",
          "name": "ended",
          "type": "bool"
        },
        {
          "internalType": "bool",
          "name": "canceled",
          "type": "bool"
        }
      ],
      "stateMutability": "view",
      "type": "function"
    },
    {
      "inputs": [
        {
          "internalType": "uint256",
          "name": "auctionId",
          "type": "uint256"
        }
      ],
      "name": "bidEth",
      "outputs": [],
      "stateMutability": "payable",
      "type": "function"
    },
    {
      "inputs": [
        {
          "internalType": "uint256",
          "name": "auctionId",
          "type": "uint256"
        },
        {
          "internalType": "address",
          "name": "token",
          "type": "address"
        },
        {
          "internalType": "uint256",
          "name": "amount",
          "type": "uint256"
        }
      ],
      "name": "bidToken",
      "outputs": [],
      "stateMutability": "nonpayable",
      "type": "function"
    },
    {
      "inputs": [
        {
          "internalType": "uint256",
          "name": "auctionId",
          "type": "uint256"
        }
      ],
      "name": "cancelAuction",
      "outputs": [],
      "stateMutability": "nonpayable",
      "type": "function"
    },
    {
      "inputs": [
        {
          "internalType": "address",
          "name": "nft",
          "type": "address"
        },
        {
          "internalType": "uint256",
          "name": "tokenId",
          "type": "uint256"
        },
        {
          "internalType": "uint256",
          "name": "minBidUSD18",
          "type": "uint256"
        },
        {
          "internalType": "uint256",
          "name": "duration",
          "type": "uint256"
        }
      ],
      "name": "createAuction",
      "outputs": [],
      "stateMutability": "nonpayable",
      "type": "function"
    },
    {
      "inputs": [
        {
          "internalType": "uint256",
          "name": "auctionId",
          "type": "uint256"
        }
      ],
      "name": "endAuction",
      "outputs": [],
      "stateMutability": "nonpayable",
      "type": "function"
    },
    {
      "inputs": [],
      "name": "ethUsdFeed",
      "outputs": [
        {
          "internalType": "contract AggregatorV3Interface",
          "name": "",
          "type": "address"
        }
      ],
      "stateMutability": "view",
      "type": "function"
    },
    {
      "inputs": [
        {
          "internalType": "address",
          "name": "owner_",
          "type": "address"
        },
        {
          "internalType": "address",
          "name": "ethFeed_",
          "type": "address"
        }
      ],
      "name": "initialize",
      "outputs": [],
      "stateMutability": "nonpayable",
      "type": "function"
    },
    {
      "inputs": [],
      "name": "owner",
      "outputs": [
        {
          "internalType": "address",
          "name": "",
          "type": "address"
        }
      ],
      "stateMutability": "view",
      "type": "function"
    },
    {
      "inputs": [
        {
          "internalType": "address",
          "name": "",
          "type": "address"
        }
      ],
      "name": "pendingReturnsEth",
      "outputs": [
        {
          "internalType": "uint256",
          "name": "",
          "type": "uint256"
        }
      ],
      "stateMutability": "view",
      "type": "function"
    },
    {
      "inputs": [
        {
          "internalType": "address",
          "name": "",
          "type": "address"
        },
        {
          "internalType": "address",
          "name": "",
          "type": "address"
        }
      ],
      "name": "pendingReturnsToken",
      "outputs": [
        {
          "internalType": "uint256",
          "name": "",
          "type": "uint256"
        }
      ],
      "stateMutability": "view",
      "type": "function"
    },
    {
      "inputs": [],
      "name": "proxiableUUID",
      "outputs": [
        {
          "internalType": "bytes32",
          "name": "",
          "type": "bytes32"
        }
      ],
      "stateMutability": "view",
      "type": "function"
    },
    {
      "inputs": [],
      "name": "renounceOwnership",
      "outputs": [],
      "stateMutability": "nonpayable",
      "type": "function"
    },
    {
      "inputs": [],
      "name": "sayHello",
      "outputs": [
        {
          "internalType": "string",
          "name": "",
          "type": "string"
        }
      ],
      "stateMutability": "pure",
      "type": "function"
    },
    {
      "inputs": [
        {
          "internalType": "address",
          "name": "feed",
          "type": "address"
        }
      ],
      "name": "setEthUsdFeed",
      "outputs": [],
      "stateMutability": "nonpayable",
      "type": "function"
    },
    {
      "inputs": [
        {
          "internalType": "address",
          "name": "token",
          "type": "address"
        },
        {
          "internalType": "address",
          "name": "feed",
          "type": "address"
        }
      ],
      "name": "setTokenUsdFeed",
      "outputs": [],
      "stateMutability": "nonpayable",
      "type": "function"
    },
    {
      "inputs": [
        {
          "internalType": "address",
          "name": "",
          "type": "address"
        }
      ],
      "name": "tokenUsdFeed",
      "outputs": [
        {
          "internalType": "contract AggregatorV3Interface",
          "name": "",
          "type": "address"
        }
      ],
      "stateMutability": "view",
      "type": "function"
    },
    {
      "inputs": [
        {
          "internalType": "address",
          "name": "newOwner",
          "type": "address"
        }
      ],
      "name": "transferOwnership",
      "outputs": [],
      "stateMutability": "nonpayable",
      "type": "function"
    },
    {
      "inputs": [
        {
          "internalType": "address",
          "name": "newImplementation",
          "type": "address"
        },
        {
          "internalType": "bytes",
          "name": "data",
          "type": "bytes"
        }
      ],
      "name": "upgradeToAndCall",
      "outputs": [],
      "stateMutability": "payable",
      "type": "function"
    },
    {
      "inputs": [],
      "name": "withdrawEth",
      "outputs": [],
      "stateMutability": "nonpayable",
      "type": "function"
    },
    {
      "inputs": [
        {
          "internalType": "address",
          "name": "token",
          "type": "address"
        }
      ],
      "name": "withdrawToken",
      "outputs": [],
      "stateMutability": "nonpayable",
      "type": "function"
    }
  ],
  "transactionHash": "0xc1e96dfe3b90337f0db840fa2d3277ab3c520811ec96f3a1c17dd6bcc8686a50",
  "args": [],
  "numDeployments": 1,
  "solcInputHash": "331b9cf7ab7b63f1594ca8db671cd621",
  "bytecode": "0x60a06040523073ffffffffffffffffffffffffffffffffffffffff1660809073ffffffffffffffffffffffffffffffffffffffff16815250348015604257600080fd5b50608051614ab361006c600039600081816129db01528181612a300152612beb0152614ab36000f3fe6080604052600436106101355760003560e01c806389476069116100ab578063ae6a43901161006f578063ae6a4390146103db578063b9a2de3a14610418578063e6d590ed14610441578063ef5fb05b1461046a578063f2fde38b14610495578063f9ac1f67146104be57610135565b8063894760691461031c5780638da5cb5b1461034557806396b5a75514610370578063a0ef91df14610399578063ad3cb1cc146103b057610135565b806355a75475116100fd57806355a754751461022457806355c623c61461024d578063571a26a01461026957806361beb1d7146102b1578063715018a6146102da5780638009b7bd146102f157610135565b806305f7b3b41461013a57806312d2d79b14610177578063485cc955146101b45780634f1ef286146101dd57806352d1902d146101f9575b600080fd5b34801561014657600080fd5b50610161600480360381019061015c9190613480565b6104e7565b60405161016e91906134c6565b60405180910390f35b34801561018357600080fd5b5061019e60048036038101906101999190613480565b6104ff565b6040516101ab9190613540565b60405180910390f35b3480156101c057600080fd5b506101db60048036038101906101d6919061355b565b610532565b005b6101f760048036038101906101f291906136e1565b61070b565b005b34801561020557600080fd5b5061020e61072a565b60405161021b9190613756565b60405180910390f35b34801561023057600080fd5b5061024b60048036038101906102469190613480565b61075d565b005b6102676004803603810190610262919061379d565b6107a9565b005b34801561027557600080fd5b50610290600480360381019061028b919061379d565b610d31565b6040516102a89c9b9a999897969594939291906137f4565b60405180910390f35b3480156102bd57600080fd5b506102d860048036038101906102d391906138ae565b610e2b565b005b3480156102e657600080fd5b506102ef6113dc565b005b3480156102fd57600080fd5b506103066113f0565b6040516103139190613540565b60405180910390f35b34801561032857600080fd5b50610343600480360381019061033e9190613480565b611416565b005b34801561035157600080fd5b5061035a611682565b6040516103679190613915565b60405180910390f35b34801561037c57600080fd5b506103976004803603810190610392919061379d565b6116ba565b005b3480156103a557600080fd5b506103ae6118b0565b005b3480156103bc57600080fd5b506103c5611a7a565b6040516103d291906139af565b60405180910390f35b3480156103e757600080fd5b5061040260048036038101906103fd919061355b565b611ab3565b60405161040f91906134c6565b60405180910390f35b34801561042457600080fd5b5061043f600480360381019061043a919061379d565b611ad8565b005b34801561044d57600080fd5b50610468600480360381019061046391906139d1565b6120cb565b005b34801561047657600080fd5b5061047f61285a565b60405161048c91906139af565b60405180910390f35b3480156104a157600080fd5b506104bc60048036038101906104b79190613480565b612897565b005b3480156104ca57600080fd5b506104e560048036038101906104e0919061355b565b61291d565b005b60026020528060005260406000206000915090505481565b60056020528060005260406000206000915054906101000a900473ffffffffffffffffffffffffffffffffffffffff1681565b600061053c6129a7565b905060008160000160089054906101000a900460ff1615905060008260000160009054906101000a900467ffffffffffffffff1690506000808267ffffffffffffffff1614801561058a5750825b9050600060018367ffffffffffffffff161480156105bf575060003073ffffffffffffffffffffffffffffffffffffffff163b145b9050811580156105cd575080155b15610604576040517ff92ee8a900000000000000000000000000000000000000000000000000000000815260040160405180910390fd5b60018560000160006101000a81548167ffffffffffffffff021916908367ffffffffffffffff16021790555083156106545760018560000160086101000a81548160ff0219169083151502179055505b61065d876129bb565b6106656129cf565b85600460006101000a81548173ffffffffffffffffffffffffffffffffffffffff021916908373ffffffffffffffffffffffffffffffffffffffff16021790555083156107025760008560000160086101000a81548160ff0219169083151502179055507fc7f505b2f371ae2175ee4913f4499e1f2633a7b5936321eed1cdaeb6115181d260016040516106f99190613a73565b60405180910390a15b50505050505050565b6107136129d9565b61071c82612abf565b6107268282612aca565b5050565b6000610734612be9565b7f360894a13ba1a3210667c828492db98dca3e2076cc3735a920a3ca505d382bbc60001b905090565b610765612c70565b80600460006101000a81548173ffffffffffffffffffffffffffffffffffffffff021916908373ffffffffffffffffffffffffffffffffffffffff16021790555050565b6000806000838152602001908152602001600020905080600a0160019054906101000a900460ff161580156107ed575080600a0160009054906101000a900460ff16155b801561084a5750600073ffffffffffffffffffffffffffffffffffffffff168160020160009054906101000a900473ffffffffffffffffffffffffffffffffffffffff1673ffffffffffffffffffffffffffffffffffffffff1614155b610889576040517f08c379a000000000000000000000000000000000000000000000000000000000815260040161088090613ada565b60405180910390fd5b8060050154816004015461089d9190613b29565b42106108de576040517f08c379a00000000000000000000000000000000000000000000000000000000081526004016108d590613ba9565b60405180910390fd5b600073ffffffffffffffffffffffffffffffffffffffff16600460009054906101000a900473ffffffffffffffffffffffffffffffffffffffff1673ffffffffffffffffffffffffffffffffffffffff160361096f576040517f08c379a000000000000000000000000000000000000000000000000000000000815260040161096690613c15565b60405180910390fd5b600061099f34600460009054906101000a900473ffffffffffffffffffffffffffffffffffffffff166012612cf7565b905081600301548110156109e8576040517f08c379a00000000000000000000000000000000000000000000000000000000081526004016109df90613c81565b60405180910390fd5b81600701548111610a2e576040517f08c379a0000000000000000000000000000000000000000000000000000000008152600401610a2590613ced565b60405180910390fd5b600073ffffffffffffffffffffffffffffffffffffffff168260060160009054906101000a900473ffffffffffffffffffffffffffffffffffffffff1673ffffffffffffffffffffffffffffffffffffffff1614610c4257600073ffffffffffffffffffffffffffffffffffffffff168260080160009054906101000a900473ffffffffffffffffffffffffffffffffffffffff1673ffffffffffffffffffffffffffffffffffffffff1603610b61578160090154600260008460060160009054906101000a900473ffffffffffffffffffffffffffffffffffffffff1673ffffffffffffffffffffffffffffffffffffffff1673ffffffffffffffffffffffffffffffffffffffff1681526020019081526020016000206000828254610b559190613b29565b92505081905550610c41565b8160090154600360008460080160009054906101000a900473ffffffffffffffffffffffffffffffffffffffff1673ffffffffffffffffffffffffffffffffffffffff1673ffffffffffffffffffffffffffffffffffffffff16815260200190815260200160002060008460060160009054906101000a900473ffffffffffffffffffffffffffffffffffffffff1673ffffffffffffffffffffffffffffffffffffffff1673ffffffffffffffffffffffffffffffffffffffff1681526020019081526020016000206000828254610c399190613b29565b925050819055505b5b338260060160006101000a81548173ffffffffffffffffffffffffffffffffffffffff021916908373ffffffffffffffffffffffffffffffffffffffff16021790555080826007018190555060008260080160006101000a81548173ffffffffffffffffffffffffffffffffffffffff021916908373ffffffffffffffffffffffffffffffffffffffff1602179055503482600901819055503373ffffffffffffffffffffffffffffffffffffffff16837f03a7130b53d72323663fc68d91ac56299bf96ba24562da36d80a5d0f807ea6163484604051610d24929190613d0d565b60405180910390a3505050565b60006020528060005260406000206000915090508060000160009054906101000a900473ffffffffffffffffffffffffffffffffffffffff16908060010154908060020160009054906101000a900473ffffffffffffffffffffffffffffffffffffffff16908060030154908060040154908060050154908060060160009054906101000a900473ffffffffffffffffffffffffffffffffffffffff16908060070154908060080160009054906101000a900473ffffffffffffffffffffffffffffffffffffffff169080600901549080600a0160009054906101000a900460ff169080600a0160019054906101000a900460ff1690508c565b60008211610e6e576040517f08c379a0000000000000000000000000000000000000000000000000000000008152600401610e6590613d82565b60405180910390fd5b600a811015610eb2576040517f08c379a0000000000000000000000000000000000000000000000000000000008152600401610ea990613dee565b60405180910390fd5b3373ffffffffffffffffffffffffffffffffffffffff168473ffffffffffffffffffffffffffffffffffffffff16636352211e856040518263ffffffff1660e01b8152600401610f0291906134c6565b602060405180830381865afa158015610f1f573d6000803e3d6000fd5b505050506040513d601f19601f82011682018060405250810190610f439190613e23565b73ffffffffffffffffffffffffffffffffffffffff1614610f99576040517f08c379a0000000000000000000000000000000000000000000000000000000008152600401610f9090613e9c565b60405180910390fd5b3073ffffffffffffffffffffffffffffffffffffffff168473ffffffffffffffffffffffffffffffffffffffff1663081812fc856040518263ffffffff1660e01b8152600401610fe991906134c6565b602060405180830381865afa158015611006573d6000803e3d6000fd5b505050506040513d601f19601f8201168201806040525081019061102a9190613e23565b73ffffffffffffffffffffffffffffffffffffffff1614806110c457508373ffffffffffffffffffffffffffffffffffffffff1663e985e9c533306040518363ffffffff1660e01b8152600401611082929190613ebc565b602060405180830381865afa15801561109f573d6000803e3d6000fd5b505050506040513d601f19601f820116820180604052508101906110c39190613f11565b5b611103576040517f08c379a00000000000000000000000000000000000000000000000000000000081526004016110fa90613f8a565b60405180910390fd5b600060016000815461111490613faa565b91905081905590506040518061018001604052808673ffffffffffffffffffffffffffffffffffffffff1681526020018581526020013373ffffffffffffffffffffffffffffffffffffffff168152602001848152602001428152602001838152602001600073ffffffffffffffffffffffffffffffffffffffff16815260200160008152602001600073ffffffffffffffffffffffffffffffffffffffff168152602001600081526020016000151581526020016000151581525060008083815260200190815260200160002060008201518160000160006101000a81548173ffffffffffffffffffffffffffffffffffffffff021916908373ffffffffffffffffffffffffffffffffffffffff1602179055506020820151816001015560408201518160020160006101000a81548173ffffffffffffffffffffffffffffffffffffffff021916908373ffffffffffffffffffffffffffffffffffffffff160217905550606082015181600301556080820151816004015560a0820151816005015560c08201518160060160006101000a81548173ffffffffffffffffffffffffffffffffffffffff021916908373ffffffffffffffffffffffffffffffffffffffff16021790555060e082015181600701556101008201518160080160006101000a81548173ffffffffffffffffffffffffffffffffffffffff021916908373ffffffffffffffffffffffffffffffffffffffff160217905550610120820151816009015561014082015181600a0160006101000a81548160ff02191690831515021790555061016082015181600a0160016101000a81548160ff021916908315150217905550905050838573ffffffffffffffffffffffffffffffffffffffff16827f0330edd30cf346409c694666d69b24f917bbad510da55f45089d776baff1f42b3387876040516113cd93929190613ff2565b60405180910390a45050505050565b6113e4612c70565b6113ee6000612ec1565b565b600460009054906101000a900473ffffffffffffffffffffffffffffffffffffffff1681565b6000600360008373ffffffffffffffffffffffffffffffffffffffff1673ffffffffffffffffffffffffffffffffffffffff16815260200190815260200160002060003373ffffffffffffffffffffffffffffffffffffffff1673ffffffffffffffffffffffffffffffffffffffff168152602001908152602001600020549050600081116114da576040517f08c379a00000000000000000000000000000000000000000000000000000000081526004016114d190614075565b60405180910390fd5b6000600360008473ffffffffffffffffffffffffffffffffffffffff1673ffffffffffffffffffffffffffffffffffffffff16815260200190815260200160002060003373ffffffffffffffffffffffffffffffffffffffff1673ffffffffffffffffffffffffffffffffffffffff168152602001908152602001600020819055508173ffffffffffffffffffffffffffffffffffffffff1663a9059cbb33836040518363ffffffff1660e01b8152600401611597929190614095565b6020604051808303816000875af11580156115b6573d6000803e3d6000fd5b505050506040513d601f19601f820116820180604052508101906115da9190613f11565b611619576040517f08c379a00000000000000000000000000000000000000000000000000000000081526004016116109061410a565b60405180910390fd5b3373ffffffffffffffffffffffffffffffffffffffff168273ffffffffffffffffffffffffffffffffffffffff167f037238854fe57fbf51f09946f854fc3916fe83938d6521f09bd05463839f13048360405161167691906134c6565b60405180910390a35050565b60008061168d612f98565b90508060000160009054906101000a900473ffffffffffffffffffffffffffffffffffffffff1691505090565b600080600083815260200190815260200160002090503373ffffffffffffffffffffffffffffffffffffffff168160020160009054906101000a900473ffffffffffffffffffffffffffffffffffffffff1673ffffffffffffffffffffffffffffffffffffffff1614611762576040517f08c379a000000000000000000000000000000000000000000000000000000000815260040161175990614176565b60405180910390fd5b80600a0160019054906101000a900460ff16158015611790575080600a0160009054906101000a900460ff16155b6117cf576040517f08c379a00000000000000000000000000000000000000000000000000000000081526004016117c6906141e2565b60405180910390fd5b600073ffffffffffffffffffffffffffffffffffffffff168160060160009054906101000a900473ffffffffffffffffffffffffffffffffffffffff1673ffffffffffffffffffffffffffffffffffffffff1614611862576040517f08c379a00000000000000000000000000000000000000000000000000000000081526004016118599061424e565b60405180910390fd5b600181600a0160016101000a81548160ff021916908315150217905550817f28601d865dccc9f113e15a7185c1b38c085d598c71250d3337916a428536d77160405160405180910390a25050565b6000600260003373ffffffffffffffffffffffffffffffffffffffff1673ffffffffffffffffffffffffffffffffffffffff16815260200190815260200160002054905060008111611937576040517f08c379a000000000000000000000000000000000000000000000000000000000815260040161192e90614075565b60405180910390fd5b6000600260003373ffffffffffffffffffffffffffffffffffffffff1673ffffffffffffffffffffffffffffffffffffffff1681526020019081526020016000208190555060003373ffffffffffffffffffffffffffffffffffffffff16826040516119a29061429f565b60006040518083038185875af1925050503d80600081146119df576040519150601f19603f3d011682016040523d82523d6000602084013e6119e4565b606091505b5050905080611a28576040517f08c379a0000000000000000000000000000000000000000000000000000000008152600401611a1f9061410a565b60405180910390fd5b3373ffffffffffffffffffffffffffffffffffffffff167fccbd99ba6da8f29b2a4f65e474e3c3973564d356c162c08d45f3dc7f0cb5b3aa83604051611a6e91906134c6565b60405180910390a25050565b6040518060400160405280600581526020017f352e302e3000000000000000000000000000000000000000000000000000000081525081565b6003602052816000526040600020602052806000526040600020600091509150505481565b6000806000838152602001908152602001600020905080600a0160019054906101000a900460ff16158015611b1c575080600a0160009054906101000a900460ff16155b8015611b795750600073ffffffffffffffffffffffffffffffffffffffff168160020160009054906101000a900473ffffffffffffffffffffffffffffffffffffffff1673ffffffffffffffffffffffffffffffffffffffff1614155b611bb8576040517f08c379a0000000000000000000000000000000000000000000000000000000008152600401611baf90613ada565b60405180910390fd5b80600501548160040154611bcc9190613b29565b421015611c0e576040517f08c379a0000000000000000000000000000000000000000000000000000000008152600401611c0590614300565b60405180910390fd5b600181600a0160006101000a81548160ff021916908315150217905550600073ffffffffffffffffffffffffffffffffffffffff168160060160009054906101000a900473ffffffffffffffffffffffffffffffffffffffff1673ffffffffffffffffffffffffffffffffffffffff161461205b578060000160009054906101000a900473ffffffffffffffffffffffffffffffffffffffff1673ffffffffffffffffffffffffffffffffffffffff166323b872dd8260020160009054906101000a900473ffffffffffffffffffffffffffffffffffffffff168360060160009054906101000a900473ffffffffffffffffffffffffffffffffffffffff1684600101546040518463ffffffff1660e01b8152600401611d3093929190614320565b600060405180830381600087803b158015611d4a57600080fd5b505af1158015611d5e573d6000803e3d6000fd5b50505050600073ffffffffffffffffffffffffffffffffffffffff168160080160009054906101000a900473ffffffffffffffffffffffffffffffffffffffff1673ffffffffffffffffffffffffffffffffffffffff1603611e945760008160020160009054906101000a900473ffffffffffffffffffffffffffffffffffffffff1673ffffffffffffffffffffffffffffffffffffffff168260090154604051611e089061429f565b60006040518083038185875af1925050503d8060008114611e45576040519150601f19603f3d011682016040523d82523d6000602084013e611e4a565b606091505b5050905080611e8e576040517f08c379a0000000000000000000000000000000000000000000000000000000008152600401611e85906143a3565b60405180910390fd5b50611f9e565b8060080160009054906101000a900473ffffffffffffffffffffffffffffffffffffffff1673ffffffffffffffffffffffffffffffffffffffff1663a9059cbb8260020160009054906101000a900473ffffffffffffffffffffffffffffffffffffffff1683600901546040518363ffffffff1660e01b8152600401611f1b929190614095565b6020604051808303816000875af1158015611f3a573d6000803e3d6000fd5b505050506040513d601f19601f82011682018060405250810190611f5e9190613f11565b611f9d576040517f08c379a0000000000000000000000000000000000000000000000000000000008152600401611f949061440f565b60405180910390fd5b5b8060080160009054906101000a900473ffffffffffffffffffffffffffffffffffffffff1673ffffffffffffffffffffffffffffffffffffffff168160060160009054906101000a900473ffffffffffffffffffffffffffffffffffffffff1673ffffffffffffffffffffffffffffffffffffffff16837f596165d0521c3cb4157fad2621686f086daed4663acb3d03441a92b9277f56838460090154856007015460405161204e929190613d0d565b60405180910390a46120c7565b600073ffffffffffffffffffffffffffffffffffffffff16600073ffffffffffffffffffffffffffffffffffffffff16837f596165d0521c3cb4157fad2621686f086daed4663acb3d03441a92b9277f56836000806040516120be92919061446a565b60405180910390a45b5050565b6000806000858152602001908152602001600020905080600a0160019054906101000a900460ff1615801561210f575080600a0160009054906101000a900460ff16155b801561216c5750600073ffffffffffffffffffffffffffffffffffffffff168160020160009054906101000a900473ffffffffffffffffffffffffffffffffffffffff1673ffffffffffffffffffffffffffffffffffffffff1614155b6121ab576040517f08c379a00000000000000000000000000000000000000000000000000000000081526004016121a290613ada565b60405180910390fd5b806005015481600401546121bf9190613b29565b4210612200576040517f08c379a00000000000000000000000000000000000000000000000000000000081526004016121f790613ba9565b60405180910390fd5b600073ffffffffffffffffffffffffffffffffffffffff16600560008573ffffffffffffffffffffffffffffffffffffffff1673ffffffffffffffffffffffffffffffffffffffff16815260200190815260200160002060009054906101000a900473ffffffffffffffffffffffffffffffffffffffff1673ffffffffffffffffffffffffffffffffffffffff16036122ce576040517f08c379a00000000000000000000000000000000000000000000000000000000081526004016122c5906144df565b60405180910390fd5b60008211612311576040517f08c379a00000000000000000000000000000000000000000000000000000000081526004016123089061454b565b60405180910390fd5b8273ffffffffffffffffffffffffffffffffffffffff166323b872dd3330856040518463ffffffff1660e01b815260040161234e93929190614320565b6020604051808303816000875af115801561236d573d6000803e3d6000fd5b505050506040513d601f19601f820116820180604052508101906123919190613f11565b6123d0576040517f08c379a00000000000000000000000000000000000000000000000000000000081526004016123c7906145b7565b60405180910390fd5b60008373ffffffffffffffffffffffffffffffffffffffff1663313ce5676040518163ffffffff1660e01b8152600401602060405180830381865afa15801561241d573d6000803e3d6000fd5b505050506040513d601f19601f820116820180604052508101906124419190614610565b905060006124af84600560008873ffffffffffffffffffffffffffffffffffffffff1673ffffffffffffffffffffffffffffffffffffffff16815260200190815260200160002060009054906101000a900473ffffffffffffffffffffffffffffffffffffffff1684612cf7565b905082600301548110156124f8576040517f08c379a00000000000000000000000000000000000000000000000000000000081526004016124ef90613c81565b60405180910390fd5b8260070154811161253e576040517f08c379a000000000000000000000000000000000000000000000000000000000815260040161253590613ced565b60405180910390fd5b600073ffffffffffffffffffffffffffffffffffffffff168360060160009054906101000a900473ffffffffffffffffffffffffffffffffffffffff1673ffffffffffffffffffffffffffffffffffffffff161461275257600073ffffffffffffffffffffffffffffffffffffffff168360080160009054906101000a900473ffffffffffffffffffffffffffffffffffffffff1673ffffffffffffffffffffffffffffffffffffffff1603612671578260090154600260008560060160009054906101000a900473ffffffffffffffffffffffffffffffffffffffff1673ffffffffffffffffffffffffffffffffffffffff1673ffffffffffffffffffffffffffffffffffffffff16815260200190815260200160002060008282546126659190613b29565b92505081905550612751565b8260090154600360008560080160009054906101000a900473ffffffffffffffffffffffffffffffffffffffff1673ffffffffffffffffffffffffffffffffffffffff1673ffffffffffffffffffffffffffffffffffffffff16815260200190815260200160002060008560060160009054906101000a900473ffffffffffffffffffffffffffffffffffffffff1673ffffffffffffffffffffffffffffffffffffffff1673ffffffffffffffffffffffffffffffffffffffff16815260200190815260200160002060008282546127499190613b29565b925050819055505b5b338360060160006101000a81548173ffffffffffffffffffffffffffffffffffffffff021916908373ffffffffffffffffffffffffffffffffffffffff160217905550808360070181905550848360080160006101000a81548173ffffffffffffffffffffffffffffffffffffffff021916908373ffffffffffffffffffffffffffffffffffffffff1602179055508383600901819055508473ffffffffffffffffffffffffffffffffffffffff163373ffffffffffffffffffffffffffffffffffffffff16877f09c98ce1f33738c27958761c7d088e46dc02d7853f9a9ec172d1364a54d683c4878560405161284a929190613d0d565b60405180910390a4505050505050565b60606040518060400160405280600b81526020017f68656c6c6f20776f726c64000000000000000000000000000000000000000000815250905090565b61289f612c70565b600073ffffffffffffffffffffffffffffffffffffffff168173ffffffffffffffffffffffffffffffffffffffff16036129115760006040517f1e4fbdf70000000000000000000000000000000000000000000000000000000081526004016129089190613915565b60405180910390fd5b61291a81612ec1565b50565b612925612c70565b80600560008473ffffffffffffffffffffffffffffffffffffffff1673ffffffffffffffffffffffffffffffffffffffff16815260200190815260200160002060006101000a81548173ffffffffffffffffffffffffffffffffffffffff021916908373ffffffffffffffffffffffffffffffffffffffff1602179055505050565b6000806129b2612fc0565b90508091505090565b6129c3612feb565b6129cc8161302b565b50565b6129d7612feb565b565b7f000000000000000000000000000000000000000000000000000000000000000073ffffffffffffffffffffffffffffffffffffffff163073ffffffffffffffffffffffffffffffffffffffff161480612a8657507f000000000000000000000000000000000000000000000000000000000000000073ffffffffffffffffffffffffffffffffffffffff16612a6d6130b1565b73ffffffffffffffffffffffffffffffffffffffff1614155b15612abd576040517fe07c8dba00000000000000000000000000000000000000000000000000000000815260040160405180910390fd5b565b612ac7612c70565b50565b8173ffffffffffffffffffffffffffffffffffffffff166352d1902d6040518163ffffffff1660e01b8152600401602060405180830381865afa925050508015612b3257506040513d601f19601f82011682018060405250810190612b2f9190614669565b60015b612b7357816040517f4c9c8ce3000000000000000000000000000000000000000000000000000000008152600401612b6a9190613915565b60405180910390fd5b7f360894a13ba1a3210667c828492db98dca3e2076cc3735a920a3ca505d382bbc60001b8114612bda57806040517faa1d49a4000000000000000000000000000000000000000000000000000000008152600401612bd19190613756565b60405180910390fd5b612be48383613108565b505050565b7f000000000000000000000000000000000000000000000000000000000000000073ffffffffffffffffffffffffffffffffffffffff163073ffffffffffffffffffffffffffffffffffffffff1614612c6e576040517fe07c8dba00000000000000000000000000000000000000000000000000000000815260040160405180910390fd5b565b612c7861317b565b73ffffffffffffffffffffffffffffffffffffffff16612c96611682565b73ffffffffffffffffffffffffffffffffffffffff1614612cf557612cb961317b565b6040517f118cdaa7000000000000000000000000000000000000000000000000000000008152600401612cec9190613915565b60405180910390fd5b565b6000808373ffffffffffffffffffffffffffffffffffffffff1663feaf968c6040518163ffffffff1660e01b815260040160a060405180830381865afa158015612d45573d6000803e3d6000fd5b505050506040513d601f19601f82011682018060405250810190612d699190614723565b50505091505060008113612db2576040517f08c379a0000000000000000000000000000000000000000000000000000000008152600401612da9906147ea565b60405180910390fd5b60008473ffffffffffffffffffffffffffffffffffffffff1663313ce5676040518163ffffffff1660e01b8152600401602060405180830381865afa158015612dff573d6000803e3d6000fd5b505050506040513d601f19601f82011682018060405250810190612e239190614610565b905060008460ff16600a612e37919061493d565b905060008260ff16600a612e4b919061493d565b9050600082670de0b6b3a76400008a612e649190614988565b612e6e91906149f9565b9050600082670de0b6b3a764000087612e879190614988565b612e9191906149f9565b9050670de0b6b3a76400008183612ea89190614988565b612eb291906149f9565b96505050505050509392505050565b6000612ecb612f98565b905060008160000160009054906101000a900473ffffffffffffffffffffffffffffffffffffffff169050828260000160006101000a81548173ffffffffffffffffffffffffffffffffffffffff021916908373ffffffffffffffffffffffffffffffffffffffff1602179055508273ffffffffffffffffffffffffffffffffffffffff168173ffffffffffffffffffffffffffffffffffffffff167f8be0079c531659141344cd1fd0a4f28419497f9722a3daafe3b4186f6b6457e060405160405180910390a3505050565b60007f9016d09d72d40fdae2fd8ceac6b6234c7706214fd39c1cd1e609a0528c199300905090565b60007ff0c57e16840df040f15088dc2f81fe391c3923bec73e23a9662efc9c229c6a0060001b905090565b612ff3613183565b613029576040517fd7e6bcf800000000000000000000000000000000000000000000000000000000815260040160405180910390fd5b565b613033612feb565b600073ffffffffffffffffffffffffffffffffffffffff168173ffffffffffffffffffffffffffffffffffffffff16036130a55760006040517f1e4fbdf700000000000000000000000000000000000000000000000000000000815260040161309c9190613915565b60405180910390fd5b6130ae81612ec1565b50565b60006130df7f360894a13ba1a3210667c828492db98dca3e2076cc3735a920a3ca505d382bbc60001b6131a3565b60000160009054906101000a900473ffffffffffffffffffffffffffffffffffffffff16905090565b613111826131ad565b8173ffffffffffffffffffffffffffffffffffffffff167fbc7cd75a20ee27fd9adebab32041f755214dbc6bffa90cc0225b39da2e5c2d3b60405160405180910390a260008151111561316e57613168828261327a565b50613177565b6131766132fe565b5b5050565b600033905090565b600061318d6129a7565b60000160089054906101000a900460ff16905090565b6000819050919050565b60008173ffffffffffffffffffffffffffffffffffffffff163b0361320957806040517f4c9c8ce30000000000000000000000000000000000000000000000000000000081526004016132009190613915565b60405180910390fd5b806132367f360894a13ba1a3210667c828492db98dca3e2076cc3735a920a3ca505d382bbc60001b6131a3565b60000160006101000a81548173ffffffffffffffffffffffffffffffffffffffff021916908373ffffffffffffffffffffffffffffffffffffffff16021790555050565b60606000808473ffffffffffffffffffffffffffffffffffffffff16846040516132a49190614a66565b600060405180830381855af49150503d80600081146132df576040519150601f19603f3d011682016040523d82523d6000602084013e6132e4565b606091505b50915091506132f485838361333b565b9250505092915050565b6000341115613339576040517fb398979f00000000000000000000000000000000000000000000000000000000815260040160405180910390fd5b565b6060826133505761334b826133ca565b6133c2565b60008251148015613378575060008473ffffffffffffffffffffffffffffffffffffffff163b145b156133ba57836040517f9996b3150000000000000000000000000000000000000000000000000000000081526004016133b19190613915565b60405180910390fd5b8190506133c3565b5b9392505050565b6000815111156133dc57805160208201fd5b6040517fd6bda27500000000000000000000000000000000000000000000000000000000815260040160405180910390fd5b6000604051905090565b600080fd5b600080fd5b600073ffffffffffffffffffffffffffffffffffffffff82169050919050565b600061344d82613422565b9050919050565b61345d81613442565b811461346857600080fd5b50565b60008135905061347a81613454565b92915050565b60006020828403121561349657613495613418565b5b60006134a48482850161346b565b91505092915050565b6000819050919050565b6134c0816134ad565b82525050565b60006020820190506134db60008301846134b7565b92915050565b6000819050919050565b60006135066135016134fc84613422565b6134e1565b613422565b9050919050565b6000613518826134eb565b9050919050565b600061352a8261350d565b9050919050565b61353a8161351f565b82525050565b60006020820190506135556000830184613531565b92915050565b6000806040838503121561357257613571613418565b5b60006135808582860161346b565b92505060206135918582860161346b565b9150509250929050565b600080fd5b600080fd5b6000601f19601f8301169050919050565b7f4e487b7100000000000000000000000000000000000000000000000000000000600052604160045260246000fd5b6135ee826135a5565b810181811067ffffffffffffffff8211171561360d5761360c6135b6565b5b80604052505050565b600061362061340e565b905061362c82826135e5565b919050565b600067ffffffffffffffff82111561364c5761364b6135b6565b5b613655826135a5565b9050602081019050919050565b82818337600083830152505050565b600061368461367f84613631565b613616565b9050828152602081018484840111156136a05761369f6135a0565b5b6136ab848285613662565b509392505050565b600082601f8301126136c8576136c761359b565b5b81356136d8848260208601613671565b91505092915050565b600080604083850312156136f8576136f7613418565b5b60006137068582860161346b565b925050602083013567ffffffffffffffff8111156137275761372661341d565b5b613733858286016136b3565b9150509250929050565b6000819050919050565b6137508161373d565b82525050565b600060208201905061376b6000830184613747565b92915050565b61377a816134ad565b811461378557600080fd5b50565b60008135905061379781613771565b92915050565b6000602082840312156137b3576137b2613418565b5b60006137c184828501613788565b91505092915050565b6137d381613442565b82525050565b60008115159050919050565b6137ee816137d9565b82525050565b60006101808201905061380a600083018f6137ca565b613817602083018e6134b7565b613824604083018d6137ca565b613831606083018c6134b7565b61383e608083018b6134b7565b61384b60a083018a6134b7565b61385860c08301896137ca565b61386560e08301886134b7565b6138736101008301876137ca565b6138816101208301866134b7565b61388f6101408301856137e5565b61389d6101608301846137e5565b9d9c50505050505050505050505050565b600080600080608085870312156138c8576138c7613418565b5b60006138d68782880161346b565b94505060206138e787828801613788565b93505060406138f887828801613788565b925050606061390987828801613788565b91505092959194509250565b600060208201905061392a60008301846137ca565b92915050565b600081519050919050565b600082825260208201905092915050565b60005b8381101561396a57808201518184015260208101905061394f565b60008484015250505050565b600061398182613930565b61398b818561393b565b935061399b81856020860161394c565b6139a4816135a5565b840191505092915050565b600060208201905081810360008301526139c98184613976565b905092915050565b6000806000606084860312156139ea576139e9613418565b5b60006139f886828701613788565b9350506020613a098682870161346b565b9250506040613a1a86828701613788565b9150509250925092565b6000819050919050565b600067ffffffffffffffff82169050919050565b6000613a5d613a58613a5384613a24565b6134e1565b613a2e565b9050919050565b613a6d81613a42565b82525050565b6000602082019050613a886000830184613a64565b92915050565b7f696e76616c69642061756374696f6e0000000000000000000000000000000000600082015250565b6000613ac4600f8361393b565b9150613acf82613a8e565b602082019050919050565b60006020820190508181036000830152613af381613ab7565b9050919050565b7f4e487b7100000000000000000000000000000000000000000000000000000000600052601160045260246000fd5b6000613b34826134ad565b9150613b3f836134ad565b9250828201905080821115613b5757613b56613afa565b5b92915050565b7f6578706972656400000000000000000000000000000000000000000000000000600082015250565b6000613b9360078361393b565b9150613b9e82613b5d565b602082019050919050565b60006020820190508181036000830152613bc281613b86565b9050919050565b7f6e6f206574682066656564000000000000000000000000000000000000000000600082015250565b6000613bff600b8361393b565b9150613c0a82613bc9565b602082019050919050565b60006020820190508181036000830152613c2e81613bf2565b9050919050565b7f62656c6f77206d696e0000000000000000000000000000000000000000000000600082015250565b6000613c6b60098361393b565b9150613c7682613c35565b602082019050919050565b60006020820190508181036000830152613c9a81613c5e565b9050919050565b7f6e6f742068696768657374000000000000000000000000000000000000000000600082015250565b6000613cd7600b8361393b565b9150613ce282613ca1565b602082019050919050565b60006020820190508181036000830152613d0681613cca565b9050919050565b6000604082019050613d2260008301856134b7565b613d2f60208301846134b7565b9392505050565b7f6d696e2055534420696e76616c69640000000000000000000000000000000000600082015250565b6000613d6c600f8361393b565b9150613d7782613d36565b602082019050919050565b60006020820190508181036000830152613d9b81613d5f565b9050919050565b7f6475726174696f6e20746f6f2073686f72740000000000000000000000000000600082015250565b6000613dd860128361393b565b9150613de382613da2565b602082019050919050565b60006020820190508181036000830152613e0781613dcb565b9050919050565b600081519050613e1d81613454565b92915050565b600060208284031215613e3957613e38613418565b5b6000613e4784828501613e0e565b91505092915050565b7f6e6f74206f776e65720000000000000000000000000000000000000000000000600082015250565b6000613e8660098361393b565b9150613e9182613e50565b602082019050919050565b60006020820190508181036000830152613eb581613e79565b9050919050565b6000604082019050613ed160008301856137ca565b613ede60208301846137ca565b9392505050565b613eee816137d9565b8114613ef957600080fd5b50565b600081519050613f0b81613ee5565b92915050565b600060208284031215613f2757613f26613418565b5b6000613f3584828501613efc565b91505092915050565b7f6e6f7420617070726f7665640000000000000000000000000000000000000000600082015250565b6000613f74600c8361393b565b9150613f7f82613f3e565b602082019050919050565b60006020820190508181036000830152613fa381613f67565b9050919050565b6000613fb5826134ad565b91507fffffffffffffffffffffffffffffffffffffffffffffffffffffffffffffffff8203613fe757613fe6613afa565b5b600182019050919050565b600060608201905061400760008301866137ca565b61401460208301856134b7565b61402160408301846134b7565b949350505050565b7f6e6f7468696e6700000000000000000000000000000000000000000000000000600082015250565b600061405f60078361393b565b915061406a82614029565b602082019050919050565b6000602082019050818103600083015261408e81614052565b9050919050565b60006040820190506140aa60008301856137ca565b6140b760208301846134b7565b9392505050565b7f7769746864726177206661696c65640000000000000000000000000000000000600082015250565b60006140f4600f8361393b565b91506140ff826140be565b602082019050919050565b60006020820190508181036000830152614123816140e7565b9050919050565b7f6e6f742073656c6c657200000000000000000000000000000000000000000000600082015250565b6000614160600a8361393b565b915061416b8261412a565b602082019050919050565b6000602082019050818103600083015261418f81614153565b9050919050565b7f66696e616c697a65640000000000000000000000000000000000000000000000600082015250565b60006141cc60098361393b565b91506141d782614196565b602082019050919050565b600060208201905081810360008301526141fb816141bf565b9050919050565b7f6861732062696400000000000000000000000000000000000000000000000000600082015250565b600061423860078361393b565b915061424382614202565b602082019050919050565b600060208201905081810360008301526142678161422b565b9050919050565b600081905092915050565b50565b600061428960008361426e565b915061429482614279565b600082019050919050565b60006142aa8261427c565b9150819050919050565b7f6e6f7420656e6465640000000000000000000000000000000000000000000000600082015250565b60006142ea60098361393b565b91506142f5826142b4565b602082019050919050565b60006020820190508181036000830152614319816142dd565b9050919050565b600060608201905061433560008301866137ca565b61434260208301856137ca565b61434f60408301846134b7565b949350505050565b7f7061792073656c6c6572206661696c6564000000000000000000000000000000600082015250565b600061438d60118361393b565b915061439882614357565b602082019050919050565b600060208201905081810360008301526143bc81614380565b9050919050565b7f70617920746f6b656e206661696c656400000000000000000000000000000000600082015250565b60006143f960108361393b565b9150614404826143c3565b602082019050919050565b60006020820190508181036000830152614428816143ec565b9050919050565b6000819050919050565b600061445461444f61444a8461442f565b6134e1565b6134ad565b9050919050565b61446481614439565b82525050565b600060408201905061447f600083018561445b565b61448c602083018461445b565b9392505050565b7f6e6f20746f6b656e206665656400000000000000000000000000000000000000600082015250565b60006144c9600d8361393b565b91506144d482614493565b602082019050919050565b600060208201905081810360008301526144f8816144bc565b9050919050565b7f616d6f756e74207a65726f000000000000000000000000000000000000000000600082015250565b6000614535600b8361393b565b9150614540826144ff565b602082019050919050565b6000602082019050818103600083015261456481614528565b9050919050565b7f7472616e7366657246726f6d206661696c656400000000000000000000000000600082015250565b60006145a160138361393b565b91506145ac8261456b565b602082019050919050565b600060208201905081810360008301526145d081614594565b9050919050565b600060ff82169050919050565b6145ed816145d7565b81146145f857600080fd5b50565b60008151905061460a816145e4565b92915050565b60006020828403121561462657614625613418565b5b6000614634848285016145fb565b91505092915050565b6146468161373d565b811461465157600080fd5b50565b6000815190506146638161463d565b92915050565b60006020828403121561467f5761467e613418565b5b600061468d84828501614654565b91505092915050565b600069ffffffffffffffffffff82169050919050565b6146b581614696565b81146146c057600080fd5b50565b6000815190506146d2816146ac565b92915050565b6000819050919050565b6146eb816146d8565b81146146f657600080fd5b50565b600081519050614708816146e2565b92915050565b60008151905061471d81613771565b92915050565b600080600080600060a0868803121561473f5761473e613418565b5b600061474d888289016146c3565b955050602061475e888289016146f9565b945050604061476f8882890161470e565b93505060606147808882890161470e565b9250506080614791888289016146c3565b9150509295509295909350565b7f6261642070726963650000000000000000000000000000000000000000000000600082015250565b60006147d460098361393b565b91506147df8261479e565b602082019050919050565b60006020820190508181036000830152614803816147c7565b9050919050565b60008160011c9050919050565b6000808291508390505b60018511156148615780860481111561483d5761483c613afa565b5b600185161561484c5780820291505b808102905061485a8561480a565b9450614821565b94509492505050565b60008261487a5760019050614936565b816148885760009050614936565b816001811461489e57600281146148a8576148d7565b6001915050614936565b60ff8411156148ba576148b9613afa565b5b8360020a9150848211156148d1576148d0613afa565b5b50614936565b5060208310610133831016604e8410600b841016171561490c5782820a90508381111561490757614906613afa565b5b614936565b6149198484846001614817565b925090508184048111156149305761492f613afa565b5b81810290505b9392505050565b6000614948826134ad565b9150614953836134ad565b92506149807fffffffffffffffffffffffffffffffffffffffffffffffffffffffffffffffff848461486a565b905092915050565b6000614993826134ad565b915061499e836134ad565b92508282026149ac816134ad565b915082820484148315176149c3576149c2613afa565b5b5092915050565b7f4e487b7100000000000000000000000000000000000000000000000000000000600052601260045260246000fd5b6000614a04826134ad565b9150614a0f836134ad565b925082614a1f57614a1e6149ca565b5b828204905092915050565b600081519050919050565b6000614a4082614a2a565b614a4a818561426e565b9350614a5a81856020860161394c565b80840191505092915050565b6000614a728284614a35565b91508190509291505056fea2646970667358221220d8205ab1baee3ef73e1eaebad63156e6559f632f43d7aea74d780d2c8960c5f664736f6c634300081c0033",
  "devdoc": {
    "errors": {
      "AddressEmptyCode(address)": [
        {
          "details": "There's no code at `target` (it is not a contract)."
        }
      ],
      "ERC1967InvalidImplementation(address)": [
        {
          "details": "The `implementation` of the proxy is invalid."
        }
      ],
      "ERC1967NonPayable()": [
        {
          "details": "An upgrade function sees `msg.value > 0` that may be lost."
        }
      ],
      "FailedCall()": [
        {
          "details": "A call to an address target failed. The target may have reverted."
        }
      ],
      "InvalidInitialization()": [
        {
          "details": "The contract is already initialized."
        }
      ],
      "NotInitializing()": [
        {
          "details": "The contract is not initializing."
        }
      ],
      "OwnableInvalidOwner(address)": [
        {
          "details": "The owner is not a valid owner account. (eg. `address(0)`)"
        }
      ],
      "OwnableUnauthorizedAccount(address)": [
        {
          "details": "The caller account is not authorized to perform an operation."
        }
      ],
      "UUPSUnauthorizedCallContext()": [
        {
          "details": "The call is from an unauthorized context."
        }
      ],
      "UUPSUnsupportedProxiableUUID(bytes32)": [
        {
          "details": "The storage `slot` is unsupported as a UUID."
        }
      ]
    },
    "events": {
      "Initialized(uint64)": {
        "details": "Triggered when the contract has been initialized or reinitialized."
      },
      "Upgraded(address)": {
        "details": "Emitted when the implementation is upgraded."
      }
    },
    "kind": "dev",
    "methods": {
      "bidEth(uint256)": {
        "params": {
          "auctionId": " ID"
        }
      },
      "bidToken(uint256,address,uint256)": {
        "params": {
          "amount": "",
          "auctionId": " ID",
          "token": "ERC20 "
        }
      },
      "cancelAuction(uint256)": {
        "params": {
          "auctionId": " ID"
        }
      },
      "createAuction(address,uint256,uint256,uint256)": {
        "params": {
          "duration": "",
          "minBidUSD18": "18  USD ",
          "nft": "NFT ",
          "tokenId": "NFT  TokenId"
        }
      },
      "endAuction(uint256)": {
        "params": {
          "auctionId": " ID"
        }
      },
      "initialize(address,address)": {
        "params": {
          "ethFeed_": "ETH/USD ",
          "owner_": ""
        }
      },
      "owner()": {
        "details": "Returns the address of the current owner."
      },
      "proxiableUUID()": {
        "details": "Implementation of the ERC-1822 {proxiableUUID} function. This returns the storage slot used by the implementation. It is used to validate the implementation's compatibility when performing an upgrade. IMPORTANT: A proxy pointing at a proxiable contract should not be considered proxiable itself, because this risks bricking a proxy that upgrades to it, by delegating to itself until out of gas. Thus it is critical that this function revert if invoked through a proxy. This is guaranteed by the `notDelegated` modifier."
      },
      "renounceOwnership()": {
        "details": "Leaves the contract without owner. It will not be possible to call `onlyOwner` functions. Can only be called by the current owner. NOTE: Renouncing ownership will leave the contract without an owner, thereby disabling any functionality that is only available to the owner."
      },
      "setEthUsdFeed(address)": {
        "params": {
          "feed": "Chainlink Aggregator "
        }
      },
      "setTokenUsdFeed(address,address)": {
        "params": {
          "feed": "Chainlink Aggregator ",
          "token": "ERC20 "
        }
      },
      "transferOwnership(address)": {
        "details": "Transfers ownership of the contract to a new account (`newOwner`). Can only be called by the current owner."
      },
      "upgradeToAndCall(address,bytes)": {
        "custom:oz-upgrades-unsafe-allow-reachable": "delegatecall",
        "details": "Upgrade the implementation of the proxy to `newImplementation`, and subsequently execute the function call encoded in `data`. Calls {_authorizeUpgrade}. Emits an {Upgraded} event."
      },
      "withdrawToken(address)": {
        "params": {
          "token": "ERC20 "
        }
      }
    },
    "version": 1
  },
  "userdoc": {
    "events": {
      "AuctionCanceled(uint256)": {
        "notice": ""
      },
      "AuctionCreated(uint256,address,uint256,address,uint256,uint256)": {
        "notice": ""
      },
      "AuctionEnded(uint256,address,address,uint256,uint256)": {
        "notice": ""
      },
      "BidEth(uint256,address,uint256,uint256)": {
        "notice": "ETH "
      },
      "BidToken(uint256,address,address,uint256,uint256)": {
        "notice": "ERC20 "
      },
      "WithdrawEth(address,uint256)": {
        "notice": " ETH "
      },
      "WithdrawToken(address,address,uint256)": {
        "notice": " ERC20 "
      }
    },
    "kind": "user",
    "methods": {
      "auctions(uint256)": {
        "notice": " ID  "
      },
      "bidEth(uint256)": {
        "notice": " ETH  USD "
      },
      "bidToken(uint256,address,uint256)": {
        "notice": " ERC20  USD "
      },
      "cancelAuction(uint256)": {
        "notice": ""
      },
      "createAuction(address,uint256,uint256,uint256)": {
        "notice": " NFT "
      },
      "endAuction(uint256)": {
        "notice": ""
      },
      "ethUsdFeed()": {
        "notice": "ETH/USD "
      },
      "initialize(address,address)": {
        "notice": "UUPS "
      },
      "pendingReturnsEth(address)": {
        "notice": "ETH    ETH "
      },
      "pendingReturnsToken(address,address)": {
        "notice": "ERC20 token     ERC20 "
      },
      "setEthUsdFeed(address)": {
        "notice": " ETH/USD "
      },
      "setTokenUsdFeed(address,address)": {
        "notice": " ERC20  USD "
      },
      "tokenUsdFeed(address)": {
        "notice": " ERC20  USD "
      },
      "withdrawEth()": {
        "notice": " ETH "
      },
      "withdrawToken(address)": {
        "notice": " ERC20 "
      }
    },
    "version": 1
  },
  "storageLayout": {
    "storage": [
      {
        "astId": 1749,
        "contract": "contracts/NFTAuctionUpgradeableV2.sol:NFTAuctionUpgradeableV2",
        "label": "auctions",
        "offset": 0,
        "slot": "0",
        "type": "t_mapping(t_uint256,t_struct(Auction)1743_storage)"
      },
      {
        "astId": 1752,
        "contract": "contracts/NFTAuctionUpgradeableV2.sol:NFTAuctionUpgradeableV2",
        "label": "nextAuctionId",
        "offset": 0,
        "slot": "1",
        "type": "t_uint256"
      },
      {
        "astId": 1757,
        "contract": "contracts/NFTAuctionUpgradeableV2.sol:NFTAuctionUpgradeableV2",
        "label": "pendingReturnsEth",
        "offset": 0,
        "slot": "2",
        "type": "t_mapping(t_address,t_uint256)"
      },
      {
        "astId": 1764,
        "contract": "contracts/NFTAuctionUpgradeableV2.sol:NFTAuctionUpgradeableV2",
        "label": "pendingReturnsToken",
        "offset": 0,
        "slot": "3",
        "type": "t_mapping(t_address,t_mapping(t_address,t_uint256))"
      },
      {
        "astId": 1768,
        "contract": "contracts/NFTAuctionUpgradeableV2.sol:NFTAuctionUpgradeableV2",
        "label": "ethUsdFeed",
        "offset": 0,
        "slot": "4",
        "type": "t_contract(AggregatorV3Interface)1698"
      },
      {
        "astId": 1774,
        "contract": "contracts/NFTAuctionUpgradeableV2.sol:NFTAuctionUpgradeableV2",
        "label": "tokenUsdFeed",
        "offset": 0,
        "slot": "5",
        "type": "t_mapping(t_address,t_contract(AggregatorV3Interface)1698)"
      }
    ],
    "types": {
      "t_address": {
        "encoding": "inplace",
        "label": "address",
        "numberOfBytes": "20"
      },
      "t_bool": {
        "encoding": "inplace",
        "label": "bool",
        "numberOfBytes": "1"
      },
      "t_contract(AggregatorV3Interface)1698": {
        "encoding": "inplace",
        "label": "contract AggregatorV3Interface",
        "numberOfBytes": "20"
      },
      "t_mapping(t_address,t_contract(AggregatorV3Interface)1698)": {
        "encoding": "mapping",
        "key": "t_address",
        "label": "mapping(address => contract AggregatorV3Interface)",
        "numberOfBytes": "32",
        "value": "t_contract(AggregatorV3Interface)1698"
      },
      "t_mapping(t_address,t_mapping(t_address,t_uint256))": {
        "encoding": "mapping",
        "key": "t_address",
        "label": "mapping(address => mapping(address => uint256))",
        "numberOfBytes": "32",
        "value": "t_mapping(t_address,t_uint256)"
      },
      "t_mapping(t_address,t_uint256)": {
        "encoding": "mapping",
        "key": "t_address",
        "label": "mapping(address => uint256)",
        "numberOfBytes": "32",
        "value": "t_uint256"
      },
      "t_mapping(t_uint256,t_struct(Auction)1743_storage)": {
        "encoding": "mapping",
        "key": "t_uint256",
        "label": "mapping(uint256 => struct NFTAuctionUpgradeable.Auction)",
        "numberOfBytes": "32",
        "value": "t_struct(Auction)1743_storage"
      },
      "t_struct(Auction)1743_storage": {
        "encoding": "inplace",
        "label": "struct NFTAuctionUpgradeable.Auction",
        "members": [
          {
            "astId": 1709,
            "contract": "contracts/NFTAuctionUpgradeableV2.sol:NFTAuctionUpgradeableV2",
            "label": "nft",
            "offset": 0,
            "slot": "0",
            "type": "t_address"
          },
          {
            "astId": 1712,
            "contract": "contracts/NFTAuctionUpgradeableV2.sol:NFTAuctionUpgradeableV2",
            "label": "tokenId",
            "offset": 0,
            "slot": "1",
            "type": "t_uint256"
          },
          {
            "astId": 1715,
            "contract": "contracts/NFTAuctionUpgradeableV2.sol:NFTAuctionUpgradeableV2",
            "label": "seller",
            "offset": 0,
            "slot": "2",
            "type": "t_address"
          },
          {
            "astId": 1718,
            "contract": "contracts/NFTAuctionUpgradeableV2.sol:NFTAuctionUpgradeableV2",
            "label": "minBidUSD18",
            "offset": 0,
            "slot": "3",
            "type": "t_uint256"
          },
          {
            "astId": 1721,
            "contract": "contracts/NFTAuctionUpgradeableV2.sol:NFTAuctionUpgradeableV2",
            "label": "startTime",
            "offset": 0,
            "slot": "4",
            "type": "t_uint256"
          },
          {
            "astId": 1724,
            "contract": "contracts/NFTAuctionUpgradeableV2.sol:NFTAuctionUpgradeableV2",
            "label": "duration",
            "offset": 0,
            "slot": "5",
            "type": "t_uint256"
          },
          {
            "astId": 1727,
            "contract": "contracts/NFTAuctionUpgradeableV2.sol:NFTAuctionUpgradeableV2",
            "label": "highestBidder",
            "offset": 0,
            "slot": "6",
            "type": "t_address"
          },
          {
            "astId": 1730,
            "contract": "contracts/NFTAuctionUpgradeableV2.sol:NFTAuctionUpgradeableV2",
            "label": "highestBidUSD18",
            "offset": 0,
            "slot": "7",
            "type": "t_uint256"
          },
          {
            "astId": 1733,
            "contract": "contracts/NFTAuctionUpgradeableV2.sol:NFTAuctionUpgradeableV2",
            "label": "paymentToken",
            "offset": 0,
            "slot": "8",
            "type": "t_address"
          },
          {
            "astId": 1736,
            "contract": "contracts/NFTAuctionUpgradeableV2.sol:NFTAuctionUpgradeableV2",
            "label": "highestBidAmount",
            "offset": 0,
            "slot": "9",
            "type": "t_uint256"
          },
          {
            "astId": 1739,
            "contract": "contracts/NFTAuctionUpgradeableV2.sol:NFTAuctionUpgradeableV2",
            "label": "ended",
            "offset": 0,
            "slot": "10",
            "type": "t_bool"
          },
          {
            "astId": 1742,
            "contract": "contracts/NFTAuctionUpgradeableV2.sol:NFTAuctionUpgradeableV2",
            "label": "canceled",
            "offset": 1,
            "slot": "10",
            "type": "t_bool"
          }
        ],
        "numberOfBytes": "352"
      },
      "t_uint256": {
        "encoding": "inplace",
        "label": "uint256",
        "numberOfBytes": "32"
      }
    }
  }
}