{
  "_format": "hh3-artifact-1",
  "contractName": "MetaNodeStake",
  "sourceName": "contracts/MetaNodeStake.sol",
  "abi": [
    {
      "inputs": [],
      "name": "AccessControlBadConfirmation",
      "type": "error"
    },
    {
      "inputs": [
        {
          "internalType": "address",
          "name": "account",
          "type": "address"
        },
        {
          "internalType": "bytes32",
          "name": "neededRole",
          "type": "bytes32"
        }
      ],
      "name": "AccessControlUnauthorizedAccount",
      "type": "error"
    },
    {
      "inputs": [
        {
          "internalType": "address",
          "name": "target",
          "type": "address"
        }
      ],
      "name": "AddressEmptyCode",
      "type": "error"
    },
    {
      "inputs": [
        {
          "internalType": "address",
          "name": "implementation",
          "type": "address"
        }
      ],
      "name": "ERC1967InvalidImplementation",
      "type": "error"
    },
    {
      "inputs": [],
      "name": "ERC1967NonPayable",
      "type": "error"
    },
    {
      "inputs": [],
      "name": "EnforcedPause",
      "type": "error"
    },
    {
      "inputs": [],
      "name": "ExpectedPause",
      "type": "error"
    },
    {
      "inputs": [],
      "name": "FailedCall",
      "type": "error"
    },
    {
      "inputs": [],
      "name": "InvalidInitialization",
      "type": "error"
    },
    {
      "inputs": [],
      "name": "NotInitializing",
      "type": "error"
    },
    {
      "inputs": [],
      "name": "ReentrancyGuardReentrantCall",
      "type": "error"
    },
    {
      "inputs": [
        {
          "internalType": "address",
          "name": "token",
          "type": "address"
        }
      ],
      "name": "SafeERC20FailedOperation",
      "type": "error"
    },
    {
      "inputs": [],
      "name": "UUPSUnauthorizedCallContext",
      "type": "error"
    },
    {
      "inputs": [
        {
          "internalType": "bytes32",
          "name": "slot",
          "type": "bytes32"
        }
      ],
      "name": "UUPSUnsupportedProxiableUUID",
      "type": "error"
    },
    {
      "anonymous": false,
      "inputs": [
        {
          "indexed": true,
          "internalType": "address",
          "name": "stTokenAddress",
          "type": "address"
        },
        {
          "indexed": true,
          "internalType": "uint256",
          "name": "poolWeight",
          "type": "uint256"
        },
        {
          "indexed": false,
          "internalType": "uint256",
          "name": "lastRewardBlock",
          "type": "uint256"
        },
        {
          "indexed": false,
          "internalType": "uint256",
          "name": "minDepositAmount",
          "type": "uint256"
        },
        {
          "indexed": false,
          "internalType": "uint256",
          "name": "unstakeLockedBlocks",
          "type": "uint256"
        }
      ],
      "name": "AddPool",
      "type": "event"
    },
    {
      "anonymous": false,
      "inputs": [
        {
          "indexed": true,
          "internalType": "address",
          "name": "user",
          "type": "address"
        },
        {
          "indexed": true,
          "internalType": "uint256",
          "name": "pid",
          "type": "uint256"
        },
        {
          "indexed": false,
          "internalType": "uint256",
          "name": "amount",
          "type": "uint256"
        }
      ],
      "name": "Claim",
      "type": "event"
    },
    {
      "anonymous": false,
      "inputs": [
        {
          "indexed": true,
          "internalType": "address",
          "name": "user",
          "type": "address"
        },
        {
          "indexed": true,
          "internalType": "uint256",
          "name": "pid",
          "type": "uint256"
        },
        {
          "indexed": false,
          "internalType": "uint256",
          "name": "amount",
          "type": "uint256"
        }
      ],
      "name": "Deposit",
      "type": "event"
    },
    {
      "anonymous": false,
      "inputs": [
        {
          "indexed": false,
          "internalType": "uint64",
          "name": "version",
          "type": "uint64"
        }
      ],
      "name": "Initialized",
      "type": "event"
    },
    {
      "anonymous": false,
      "inputs": [
        {
          "indexed": false,
          "internalType": "address",
          "name": "account",
          "type": "address"
        }
      ],
      "name": "Paused",
      "type": "event"
    },
    {
      "anonymous": false,
      "inputs": [],
      "name": "PausedClaim",
      "type": "event"
    },
    {
      "anonymous": false,
      "inputs": [],
      "name": "PausedWithdraw",
      "type": "event"
    },
    {
      "anonymous": false,
      "inputs": [
        {
          "indexed": true,
          "internalType": "address",
          "name": "user",
          "type": "address"
        },
        {
          "indexed": true,
          "internalType": "uint256",
          "name": "pid",
          "type": "uint256"
        },
        {
          "indexed": false,
          "internalType": "uint256",
          "name": "amount",
          "type": "uint256"
        }
      ],
      "name": "RequestUnStake",
      "type": "event"
    },
    {
      "anonymous": false,
      "inputs": [
        {
          "indexed": true,
          "internalType": "bytes32",
          "name": "role",
          "type": "bytes32"
        },
        {
          "indexed": true,
          "internalType": "bytes32",
          "name": "previousAdminRole",
          "type": "bytes32"
        },
        {
          "indexed": true,
          "internalType": "bytes32",
          "name": "newAdminRole",
          "type": "bytes32"
        }
      ],
      "name": "RoleAdminChanged",
      "type": "event"
    },
    {
      "anonymous": false,
      "inputs": [
        {
          "indexed": true,
          "internalType": "bytes32",
          "name": "role",
          "type": "bytes32"
        },
        {
          "indexed": true,
          "internalType": "address",
          "name": "account",
          "type": "address"
        },
        {
          "indexed": true,
          "internalType": "address",
          "name": "sender",
          "type": "address"
        }
      ],
      "name": "RoleGranted",
      "type": "event"
    },
    {
      "anonymous": false,
      "inputs": [
        {
          "indexed": true,
          "internalType": "bytes32",
          "name": "role",
          "type": "bytes32"
        },
        {
          "indexed": true,
          "internalType": "address",
          "name": "account",
          "type": "address"
        },
        {
          "indexed": true,
          "internalType": "address",
          "name": "sender",
          "type": "address"
        }
      ],
      "name": "RoleRevoked",
      "type": "event"
    },
    {
      "anonymous": false,
      "inputs": [
        {
          "indexed": true,
          "internalType": "uint256",
          "name": "endBlock",
          "type": "uint256"
        }
      ],
      "name": "SetEndBlock",
      "type": "event"
    },
    {
      "anonymous": false,
      "inputs": [
        {
          "indexed": true,
          "internalType": "uint256",
          "name": "metaNodePerBlock",
          "type": "uint256"
        }
      ],
      "name": "SetMetaNOdePerBlock",
      "type": "event"
    },
    {
      "anonymous": false,
      "inputs": [
        {
          "indexed": true,
          "internalType": "address",
          "name": "metaNode",
          "type": "address"
        }
      ],
      "name": "SetMetaNode",
      "type": "event"
    },
    {
      "anonymous": false,
      "inputs": [
        {
          "indexed": true,
          "internalType": "uint256",
          "name": "pid",
          "type": "uint256"
        },
        {
          "indexed": false,
          "internalType": "uint256",
          "name": "poolWeight",
          "type": "uint256"
        },
        {
          "indexed": false,
          "internalType": "uint256",
          "name": "totalPoolWeight",
          "type": "uint256"
        }
      ],
      "name": "SetPoolWeight",
      "type": "event"
    },
    {
      "anonymous": false,
      "inputs": [
        {
          "indexed": true,
          "internalType": "uint256",
          "name": "startBlock",
          "type": "uint256"
        }
      ],
      "name": "SetStartBlock",
      "type": "event"
    },
    {
      "anonymous": false,
      "inputs": [
        {
          "indexed": false,
          "internalType": "address",
          "name": "account",
          "type": "address"
        }
      ],
      "name": "Unpaused",
      "type": "event"
    },
    {
      "anonymous": false,
      "inputs": [],
      "name": "UnpausedClaim",
      "type": "event"
    },
    {
      "anonymous": false,
      "inputs": [],
      "name": "UnpausedWithdraw",
      "type": "event"
    },
    {
      "anonymous": false,
      "inputs": [
        {
          "indexed": true,
          "internalType": "uint256",
          "name": "pid",
          "type": "uint256"
        },
        {
          "indexed": false,
          "internalType": "uint256",
          "name": "lastRewardBlock",
          "type": "uint256"
        },
        {
          "indexed": false,
          "internalType": "uint256",
          "name": "totalMetaNode",
          "type": "uint256"
        }
      ],
      "name": "UpdatePool",
      "type": "event"
    },
    {
      "anonymous": false,
      "inputs": [
        {
          "indexed": true,
          "internalType": "uint256",
          "name": "pid",
          "type": "uint256"
        },
        {
          "indexed": false,
          "internalType": "uint256",
          "name": "minDepositAmount",
          "type": "uint256"
        },
        {
          "indexed": false,
          "internalType": "uint256",
          "name": "unstakeLockedBlocks",
          "type": "uint256"
        }
      ],
      "name": "UpdatePoolInfo",
      "type": "event"
    },
    {
      "anonymous": false,
      "inputs": [
        {
          "indexed": true,
          "internalType": "address",
          "name": "implementation",
          "type": "address"
        }
      ],
      "name": "Upgraded",
      "type": "event"
    },
    {
      "anonymous": false,
      "inputs": [
        {
          "indexed": true,
          "internalType": "address",
          "name": "user",
          "type": "address"
        },
        {
          "indexed": true,
          "internalType": "uint256",
          "name": "pid",
          "type": "uint256"
        },
        {
          "indexed": false,
          "internalType": "uint256",
          "name": "amount",
          "type": "uint256"
        },
        {
          "indexed": false,
          "internalType": "uint256",
          "name": "blockNumber",
          "type": "uint256"
        }
      ],
      "name": "Withdraw",
      "type": "event"
    },
    {
      "inputs": [],
      "name": "ADMIN_ROLE",
      "outputs": [
        {
          "internalType": "bytes32",
          "name": "",
          "type": "bytes32"
        }
      ],
      "stateMutability": "view",
      "type": "function"
    },
    {
      "inputs": [],
      "name": "DEFAULT_ADMIN_ROLE",
      "outputs": [
        {
          "internalType": "bytes32",
          "name": "",
          "type": "bytes32"
        }
      ],
      "stateMutability": "view",
      "type": "function"
    },
    {
      "inputs": [],
      "name": "ETH_PID",
      "outputs": [
        {
          "internalType": "uint256",
          "name": "",
          "type": "uint256"
        }
      ],
      "stateMutability": "view",
      "type": "function"
    },
    {
      "inputs": [],
      "name": "MetaNode",
      "outputs": [
        {
          "internalType": "contract IERC20",
          "name": "",
          "type": "address"
        }
      ],
      "stateMutability": "view",
      "type": "function"
    },
    {
      "inputs": [],
      "name": "UPGRADE_INTERFACE_VERSION",
      "outputs": [
        {
          "internalType": "string",
          "name": "",
          "type": "string"
        }
      ],
      "stateMutability": "view",
      "type": "function"
    },
    {
      "inputs": [],
      "name": "UPGRADE_ROLE",
      "outputs": [
        {
          "internalType": "bytes32",
          "name": "",
          "type": "bytes32"
        }
      ],
      "stateMutability": "view",
      "type": "function"
    },
    {
      "inputs": [
        {
          "internalType": "address",
          "name": "_stTokenAddress",
          "type": "address"
        },
        {
          "internalType": "uint256",
          "name": "_poolWeight",
          "type": "uint256"
        },
        {
          "internalType": "uint256",
          "name": "_minDepositAmount",
          "type": "uint256"
        },
        {
          "internalType": "uint256",
          "name": "_unstakeLockedBlocks",
          "type": "uint256"
        }
      ],
      "name": "addPool",
      "outputs": [],
      "stateMutability": "nonpayable",
      "type": "function"
    },
    {
      "inputs": [
        {
          "internalType": "uint256",
          "name": "_pid",
          "type": "uint256"
        }
      ],
      "name": "claim",
      "outputs": [],
      "stateMutability": "nonpayable",
      "type": "function"
    },
    {
      "inputs": [],
      "name": "claimPaused",
      "outputs": [
        {
          "internalType": "bool",
          "name": "",
          "type": "bool"
        }
      ],
      "stateMutability": "view",
      "type": "function"
    },
    {
      "inputs": [
        {
          "internalType": "uint256",
          "name": "_pid",
          "type": "uint256"
        },
        {
          "internalType": "uint256",
          "name": "_amount",
          "type": "uint256"
        }
      ],
      "name": "deposit",
      "outputs": [],
      "stateMutability": "nonpayable",
      "type": "function"
    },
    {
      "inputs": [
        {
          "internalType": "uint256",
          "name": "_pid",
          "type": "uint256"
        }
      ],
      "name": "depositETH",
      "outputs": [],
      "stateMutability": "payable",
      "type": "function"
    },
    {
      "inputs": [],
      "name": "endBlock",
      "outputs": [
        {
          "internalType": "uint256",
          "name": "",
          "type": "uint256"
        }
      ],
      "stateMutability": "view",
      "type": "function"
    },
    {
      "inputs": [
        {
          "internalType": "uint256",
          "name": "_from",
          "type": "uint256"
        },
        {
          "internalType": "uint256",
          "name": "_to",
          "type": "uint256"
        }
      ],
      "name": "getMultiplier",
      "outputs": [
        {
          "internalType": "uint256",
          "name": "multiplier",
          "type": "uint256"
        }
      ],
      "stateMutability": "view",
      "type": "function"
    },
    {
      "inputs": [
        {
          "internalType": "bytes32",
          "name": "role",
          "type": "bytes32"
        }
      ],
      "name": "getRoleAdmin",
      "outputs": [
        {
          "internalType": "bytes32",
          "name": "",
          "type": "bytes32"
        }
      ],
      "stateMutability": "view",
      "type": "function"
    },
    {
      "inputs": [
        {
          "internalType": "bytes32",
          "name": "role",
          "type": "bytes32"
        },
        {
          "internalType": "address",
          "name": "account",
          "type": "address"
        }
      ],
      "name": "grantRole",
      "outputs": [],
      "stateMutability": "nonpayable",
      "type": "function"
    },
    {
      "inputs": [
        {
          "internalType": "bytes32",
          "name": "role",
          "type": "bytes32"
        },
        {
          "internalType": "address",
          "name": "account",
          "type": "address"
        }
      ],
      "name": "hasRole",
      "outputs": [
        {
          "internalType": "bool",
          "name": "",
          "type": "bool"
        }
      ],
      "stateMutability": "view",
      "type": "function"
    },
    {
      "inputs": [
        {
          "internalType": "address",
          "name": "_metaNode",
          "type": "address"
        },
        {
          "internalType": "uint256",
          "name": "_metaNodePerBlock",
          "type": "uint256"
        }
      ],
      "name": "initialize",
      "outputs": [],
      "stateMutability": "nonpayable",
      "type": "function"
    },
    {
      "inputs": [],
      "name": "metaNodePerBlock",
      "outputs": [
        {
          "internalType": "uint256",
          "name": "",
          "type": "uint256"
        }
      ],
      "stateMutability": "view",
      "type": "function"
    },
    {
      "inputs": [],
      "name": "pause",
      "outputs": [],
      "stateMutability": "nonpayable",
      "type": "function"
    },
    {
      "inputs": [],
      "name": "pauseClaim",
      "outputs": [],
      "stateMutability": "nonpayable",
      "type": "function"
    },
    {
      "inputs": [],
      "name": "pauseWithdraw",
      "outputs": [],
      "stateMutability": "nonpayable",
      "type": "function"
    },
    {
      "inputs": [],
      "name": "paused",
      "outputs": [
        {
          "internalType": "bool",
          "name": "",
          "type": "bool"
        }
      ],
      "stateMutability": "view",
      "type": "function"
    },
    {
      "inputs": [
        {
          "internalType": "uint256",
          "name": "_pid",
          "type": "uint256"
        },
        {
          "internalType": "address",
          "name": "_user",
          "type": "address"
        }
      ],
      "name": "pendingMetaNode",
      "outputs": [
        {
          "internalType": "uint256",
          "name": "",
          "type": "uint256"
        }
      ],
      "stateMutability": "view",
      "type": "function"
    },
    {
      "inputs": [
        {
          "internalType": "uint256",
          "name": "_pid",
          "type": "uint256"
        },
        {
          "internalType": "address",
          "name": "_user",
          "type": "address"
        },
        {
          "internalType": "uint256",
          "name": "_blockNumber",
          "type": "uint256"
        }
      ],
      "name": "pendingMetaNodeByBlockNumber",
      "outputs": [
        {
          "internalType": "uint256",
          "name": "",
          "type": "uint256"
        }
      ],
      "stateMutability": "view",
      "type": "function"
    },
    {
      "inputs": [
        {
          "internalType": "uint256",
          "name": "",
          "type": "uint256"
        }
      ],
      "name": "pool",
      "outputs": [
        {
          "internalType": "address",
          "name": "stTokenAddress",
          "type": "address"
        },
        {
          "internalType": "uint256",
          "name": "stTokenAmount",
          "type": "uint256"
        },
        {
          "internalType": "uint256",
          "name": "poolWeight",
          "type": "uint256"
        },
        {
          "internalType": "uint256",
          "name": "lastRewardBlock",
          "type": "uint256"
        },
        {
          "internalType": "uint256",
          "name": "accMetaNodePerST",
          "type": "uint256"
        },
        {
          "internalType": "uint256",
          "name": "minDepositAmount",
          "type": "uint256"
        },
        {
          "internalType": "uint256",
          "name": "unstakeLockedBlocks",
          "type": "uint256"
        }
      ],
      "stateMutability": "view",
      "type": "function"
    },
    {
      "inputs": [],
      "name": "poolLength",
      "outputs": [
        {
          "internalType": "uint256",
          "name": "",
          "type": "uint256"
        }
      ],
      "stateMutability": "view",
      "type": "function"
    },
    {
      "inputs": [],
      "name": "proxiableUUID",
      "outputs": [
        {
          "internalType": "bytes32",
          "name": "",
          "type": "bytes32"
        }
      ],
      "stateMutability": "view",
      "type": "function"
    },
    {
      "inputs": [
        {
          "internalType": "bytes32",
          "name": "role",
          "type": "bytes32"
        },
        {
          "internalType": "address",
          "name": "callerConfirmation",
          "type": "address"
        }
      ],
      "name": "renounceRole",
      "outputs": [],
      "stateMutability": "nonpayable",
      "type": "function"
    },
    {
      "inputs": [
        {
          "internalType": "bytes32",
          "name": "role",
          "type": "bytes32"
        },
        {
          "internalType": "address",
          "name": "account",
          "type": "address"
        }
      ],
      "name": "revokeRole",
      "outputs": [],
      "stateMutability": "nonpayable",
      "type": "function"
    },
    {
      "inputs": [
        {
          "internalType": "uint256",
          "name": "_endBlock",
          "type": "uint256"
        }
      ],
      "name": "setEndBlock",
      "outputs": [],
      "stateMutability": "nonpayable",
      "type": "function"
    },
    {
      "inputs": [
        {
          "internalType": "address",
          "name": "_metaNode",
          "type": "address"
        }
      ],
      "name": "setMetaNode",
      "outputs": [],
      "stateMutability": "nonpayable",
      "type": "function"
    },
    {
      "inputs": [
        {
          "internalType": "uint256",
          "name": "_metaNodePerBlock",
          "type": "uint256"
        }
      ],
      "name": "setMetaNodePerBlock",
      "outputs": [],
      "stateMutability": "nonpayable",
      "type": "function"
    },
    {
      "inputs": [
        {
          "internalType": "uint256",
          "name": "_pid",
          "type": "uint256"
        },
        {
          "internalType": "uint256",
          "name": "_poolWeight",
          "type": "uint256"
        }
      ],
      "name": "setPoolWeight",
      "outputs": [],
      "stateMutability": "nonpayable",
      "type": "function"
    },
    {
      "inputs": [
        {
          "internalType": "uint256",
          "name": "_startBlock",
          "type": "uint256"
        }
      ],
      "name": "setStartBlock",
      "outputs": [],
      "stateMutability": "nonpayable",
      "type": "function"
    },
    {
      "inputs": [
        {
          "internalType": "uint256",
          "name": "_pid",
          "type": "uint256"
        },
        {
          "internalType": "address",
          "name": "_user",
          "type": "address"
        }
      ],
      "name": "stakingBalance",
      "outputs": [
        {
          "internalType": "uint256",
          "name": "",
          "type": "uint256"
        }
      ],
      "stateMutability": "view",
      "type": "function"
    },
    {
      "inputs": [],
      "name": "startBlock",
      "outputs": [
        {
          "internalType": "uint256",
          "name": "",
          "type": "uint256"
        }
      ],
      "stateMutability": "view",
      "type": "function"
    },
    {
      "inputs": [
        {
          "internalType": "bytes4",
          "name": "interfaceId",
          "type": "bytes4"
        }
      ],
      "name": "supportsInterface",
      "outputs": [
        {
          "internalType": "bool",
          "name": "",
          "type": "bool"
        }
      ],
      "stateMutability": "view",
      "type": "function"
    },
    {
      "inputs": [],
      "name": "totalPoolWeight",
      "outputs": [
        {
          "internalType": "uint256",
          "name": "",
          "type": "uint256"
        }
      ],
      "stateMutability": "view",
      "type": "function"
    },
    {
      "inputs": [
        {
          "internalType": "uint256",
          "name": "_pid",
          "type": "uint256"
        },
        {
          "internalType": "uint256",
          "name": "_amount",
          "type": "uint256"
        }
      ],
      "name": "unStake",
      "outputs": [],
      "stateMutability": "nonpayable",
      "type": "function"
    },
    {
      "inputs": [],
      "name": "unpause",
      "outputs": [],
      "stateMutability": "nonpayable",
      "type": "function"
    },
    {
      "inputs": [],
      "name": "unpauseClaim",
      "outputs": [],
      "stateMutability": "nonpayable",
      "type": "function"
    },
    {
      "inputs": [],
      "name": "unpauseWithdraw",
      "outputs": [],
      "stateMutability": "nonpayable",
      "type": "function"
    },
    {
      "inputs": [
        {
          "internalType": "uint256",
          "name": "_pid",
          "type": "uint256"
        }
      ],
      "name": "updatePool",
      "outputs": [],
      "stateMutability": "nonpayable",
      "type": "function"
    },
    {
      "inputs": [
        {
          "internalType": "uint256",
          "name": "_pid",
          "type": "uint256"
        },
        {
          "internalType": "uint256",
          "name": "_minDepositAmount",
          "type": "uint256"
        },
        {
          "internalType": "uint256",
          "name": "_unstakeLockedBlocks",
          "type": "uint256"
        }
      ],
      "name": "updatePool",
      "outputs": [],
      "stateMutability": "nonpayable",
      "type": "function"
    },
    {
      "inputs": [
        {
          "internalType": "address",
          "name": "newImplementation",
          "type": "address"
        },
        {
          "internalType": "bytes",
          "name": "data",
          "type": "bytes"
        }
      ],
      "name": "upgradeToAndCall",
      "outputs": [],
      "stateMutability": "payable",
      "type": "function"
    },
    {
      "inputs": [
        {
          "internalType": "uint256",
          "name": "",
          "type": "uint256"
        },
        {
          "internalType": "address",
          "name": "",
          "type": "address"
        }
      ],
      "name": "user",
      "outputs": [
        {
          "internalType": "uint256",
          "name": "stAmount",
          "type": "uint256"
        },
        {
          "internalType": "uint256",
          "name": "finishedMetaNode",
          "type": "uint256"
        },
        {
          "internalType": "uint256",
          "name": "pendingMetaNode",
          "type": "uint256"
        }
      ],
      "stateMutability": "view",
      "type": "function"
    },
    {
      "inputs": [
        {
          "internalType": "uint256",
          "name": "_pid",
          "type": "uint256"
        }
      ],
      "name": "withdraw",
      "outputs": [],
      "stateMutability": "nonpayable",
      "type": "function"
    },
    {
      "inputs": [
        {
          "internalType": "uint256",
          "name": "_pid",
          "type": "uint256"
        },
        {
          "internalType": "address",
          "name": "_user",
          "type": "address"
        }
      ],
      "name": "withdrawAmount",
      "outputs": [
        {
          "internalType": "uint256",
          "name": "requestAmount",
          "type": "uint256"
        },
        {
          "internalType": "uint256",
          "name": "pendingWithdrawAmount",
          "type": "uint256"
        }
      ],
      "stateMutability": "view",
      "type": "function"
    },
    {
      "inputs": [],
      "name": "withdrawPaused",
      "outputs": [
        {
          "internalType": "bool",
          "name": "",
          "type": "bool"
        }
      ],
      "stateMutability": "view",
      "type": "function"
    }
  ],
  "bytecode": "0x60a0604052306080523480156012575f5ffd5b5060805161348b6100395f395f81816128b2015281816128db0152612a3c015261348b5ff3fe6080604052600436106102a5575f3560e01c806361a9a03d1161016f578063bfc3ebba116100d8578063d86c044411610092578063ea5c219d1161006d578063ea5c219d1461080c578063f35e4a6e1461082b578063fe3131121461084a578063ff423357146108a8575f5ffd5b8063d86c0444146107ba578063de065caa146107d9578063e2bbb158146107ed575f5ffd5b8063bfc3ebba14610660578063c713aa9414610701578063cd6dc68714610720578063d22f1d801461073f578063d547741f1461077c578063d7bc17691461079b575f5ffd5b80638ff095f9116101295780638ff095f91461062d57806391d1485414610641578063a217fddf14610660578063ab5e124a14610673578063ad3cb1cc14610691578063b908afa8146106ce575f5ffd5b806361a9a03d146105875780636325d5bc146105a65780637276d925146105c557806375b238fc146105da5780638456cb59146105fa5780638dbb1e3a1461060e575f5ffd5b8063379607f51161021157806352d1902d116101cb57806352d1902d146104f65780635358fbda1461050a5780635a4ec0ca1461051d5780635bb6d0071461053c5780635c975abb146105505780636155e3de14610573575f5ffd5b8063379607f51461045e5780633f4ba83a1461047d57806348cd4cb1146104915780634f1ef286146104a557806351eb05a6146104b857806352911623146104d7575f5ffd5b80632e1a7d4d116102625780632e1a7d4d146103675780632f2ff15d146103885780632f3ffb9f146103a757806336568abe146103c0578063372caeb8146103df57806337849b3c146103fe575f5ffd5b806301ffc9a7146102a957806302559004146102dd578063081e3eda14610300578063083c6323146103145780631154823414610329578063248a9ca314610348575b5f5ffd5b3480156102b4575f5ffd5b506102c86102c3366004612f67565b6108dc565b60405190151581526020015b60405180910390f35b3480156102e8575f5ffd5b506102f260055481565b6040519081526020016102d4565b34801561030b575f5ffd5b506004546102f2565b34801561031f575f5ffd5b506102f260015481565b348015610334575f5ffd5b506102f2610343366004612fa9565b610912565b348015610353575f5ffd5b506102f2610362366004612fd3565b610969565b348015610372575f5ffd5b50610386610381366004612fd3565b610989565b005b348015610393575f5ffd5b506103866103a2366004612fa9565b610bf5565b3480156103b2575f5ffd5b506003546102c89060ff1681565b3480156103cb575f5ffd5b506103866103da366004612fa9565b610c17565b3480156103ea575f5ffd5b506103866103f9366004612fea565b610c4f565b348015610409575f5ffd5b50610443610418366004612fa9565b600660209081525f928352604080842090915290825290208054600182015460029092015490919083565b604080519384526020840192909252908201526060016102d4565b348015610469575f5ffd5b50610386610478366004612fd3565b610ea4565b348015610488575f5ffd5b5061038661104a565b34801561049c575f5ffd5b506102f25f5481565b6103866104b336600461301e565b611069565b3480156104c3575f5ffd5b506103866104d2366004612fd3565b611084565b3480156104e2575f5ffd5b506103866104f1366004612fea565b61119a565b348015610501575f5ffd5b506102f26112f3565b610386610518366004612fd3565b61130e565b348015610528575f5ffd5b506103866105373660046130e2565b611405565b348015610547575f5ffd5b506103866117d5565b34801561055b575f5ffd5b505f5160206133f65f395f51905f525460ff166102c8565b34801561057e575f5ffd5b50610386611881565b348015610592575f5ffd5b506103866105a1366004613118565b611935565b3480156105b1575f5ffd5b506102f26105c0366004613131565b6119a0565b3480156105d0575f5ffd5b506102f260025481565b3480156105e5575f5ffd5b506102f25f5160206134365f395f51905f5281565b348015610605575f5ffd5b50610386611ad7565b348015610619575f5ffd5b506102f2610628366004612fea565b611af6565b348015610638575f5ffd5b50610386611c1b565b34801561064c575f5ffd5b506102c861065b366004612fa9565b611cd3565b34801561066b575f5ffd5b506102f25f81565b34801561067e575f5ffd5b506003546102c890610100900460ff1681565b34801561069c575f5ffd5b506106c1604051806040016040528060058152602001640352e302e360dc1b81525081565b6040516102d49190613164565b3480156106d9575f5ffd5b506102f27f88aa719609f728b0c5e7fb8dd3608d5c25d497efbb3b9dd64e9251ebba10150881565b34801561070c575f5ffd5b5061038661071b366004612fd3565b611d09565b34801561072b575f5ffd5b5061038661073a366004613199565b611dd6565b34801561074a575f5ffd5b50600354610764906201000090046001600160a01b031681565b6040516001600160a01b0390911681526020016102d4565b348015610787575f5ffd5b50610386610796366004612fa9565b611f7c565b3480156107a6575f5ffd5b506103866107b5366004612fd3565b611f98565b3480156107c5575f5ffd5b506103866107d43660046131c1565b611fe2565b3480156107e4575f5ffd5b5061038661208b565b3480156107f8575f5ffd5b50610386610807366004612fea565b61213a565b348015610817575f5ffd5b506102f2610826366004612fa9565b61224d565b348015610836575f5ffd5b50610386610845366004612fd3565b612285565b348015610855575f5ffd5b50610869610864366004612fd3565b612347565b604080516001600160a01b0390981688526020880196909652948601939093526060850191909152608084015260a083015260c082015260e0016102d4565b3480156108b3575f5ffd5b506108c76108c2366004612fa9565b61239e565b604080519283526020830191909152016102d4565b5f6001600160e01b03198216637965db0b60e01b148061090c57506301ffc9a760e01b6001600160e01b03198316145b92915050565b6004545f90839081106109405760405162461bcd60e51b8152600401610937906131ea565b60405180910390fd5b50505f9182526006602090815260408084206001600160a01b0393909316845291905290205490565b5f9081525f5160206133d65f395f51905f52602052604090206001015490565b610991612494565b6109996124c6565b60035460ff16156109bc5760405162461bcd60e51b81526004016109379061320f565b600454819081106109df5760405162461bcd60e51b8152600401610937906131ea565b5f82815260066020908152604080832033845290915281206004805491929185908110610a0e57610a0e613250565b5f91825260208220600790910201915080805b6003850154811015610a9e5743856003018281548110610a4357610a43613250565b905f5260205f2090600202016001015411610a9e57846003018181548110610a6d57610a6d613250565b905f5260205f2090600202015f015483610a879190613278565b925081610a938161328b565b925050600101610a21565b505f5b6003850154610ab19083906132a3565b811015610b1b5760038501610ac68383613278565b81548110610ad657610ad6613250565b905f5260205f209060020201856003018281548110610af757610af7613250565b5f918252602090912082546002909202019081556001918201549082015501610aa1565b505f5b81811015610b605784600301805480610b3957610b396132b6565b5f8281526020812060025f1990930192830201818155600190810191909155915501610b1e565b508115610b9b5782546001600160a01b0316610b8557610b8033836124fd565b610b9b565b8254610b9b906001600160a01b03163384612614565b60408051838152436020820152879133917f02f25270a4d87bea75db541cdfe559334a275b4a233520ed6c0a2429667cca94910160405180910390a35050505050610bf260015f5160206134165f395f51905f5255565b50565b610bfe82610969565b610c0781612686565b610c118383612690565b50505050565b6001600160a01b0381163314610c405760405163334bd91960e11b815260040160405180910390fd5b610c4a8282612731565b505050565b610c57612494565b610c5f6124c6565b60035460ff1615610c825760405162461bcd60e51b81526004016109379061320f565b60045482908110610ca55760405162461bcd60e51b8152600401610937906131ea565b5f60048481548110610cb957610cb9613250565b5f91825260208083208784526006825260408085203386529092529220600790910290910191508315801590610cf0575080548411155b610d4a5760405162461bcd60e51b815260206004820152602560248201527f4d6574614e6f64655374616b653a20696e76616c696420756e7374616b6520616044820152641b5bdd5b9d60da1b6064820152608401610937565b610d5385611084565b5f8160010154670de0b6b3a76400008460040154845f0154610d7591906132ca565b610d7f91906132e1565b610d8991906132a3565b90508015610daa5780826002015f828254610da49190613278565b90915550505b84825f015f828254610dbc91906132a3565b92505081905550816003016040518060400160405280878152602001856006015443610de89190613278565b90528154600181810184555f93845260208085208451600290940201928355909201519082015584018054879290610e219084906132a3565b909155505060048301548254670de0b6b3a764000091610e40916132ca565b610e4a91906132e1565b6001830155604051858152869033907fa12d7b1d7a6eb7f70beeb63980fcd272085e29f4ca7f90735cb48f89d7a662f99060200160405180910390a350505050610ea060015f5160206134165f395f51905f5255565b5050565b610eac612494565b610eb46124c6565b600354610100900460ff1615610f0c5760405162461bcd60e51b815260206004820152601e60248201527f4d6574614e6f64655374616b653a20436c61696d2069732070617573656400006044820152606401610937565b60045481908110610f2f5760405162461bcd60e51b8152600401610937906131ea565b5f60048381548110610f4357610f43613250565b5f9182526020808320868452600682526040808520338652909252922060079091029091019150610f7384611084565b5f81600201548260010154670de0b6b3a76400008560040154855f0154610f9a91906132ca565b610fa491906132e1565b610fae91906132a3565b610fb89190613278565b90508015610fd0575f6002830155610fd033826127aa565b60048301548254670de0b6b3a764000091610fea916132ca565b610ff491906132e1565b6001830155604051818152859033907f34fcbac0073d7c3d388e51312faf357774904998eeb8fca628b9e6f65ee1cbf79060200160405180910390a350505050610bf260015f5160206134165f395f51905f5255565b5f5160206134365f395f51905f5261106181612686565b610bf2612848565b6110716128a7565b61107a8261294b565b610ea08282612975565b600454819081106110a75760405162461bcd60e51b8152600401610937906131ea565b5f600483815481106110bb576110bb613250565b905f5260205f2090600702019050806003015443116110d957505050565b5f6110e8826003015443611af6565b90505f6005548360020154836110fe91906132ca565b61110891906132e1565b6001840154909150801561114e578061112983670de0b6b3a76400006132ca565b61113391906132e1565b915081846004015f8282546111489190613278565b90915550505b4360038501819055604080519182526020820184905287917ff5d2d72d9b25d6853afd7d0554a113b705234b6a68bb36b7f14366299463241191015b60405180910390a2505050505050565b5f5160206134365f395f51905f526111b181612686565b600454839081106111d45760405162461bcd60e51b8152600401610937906131ea565b5f83116112405760405162461bcd60e51b815260206004820152603460248201527f4d6574614e6f64655374616b653a20506f6f6c20776569676874206d7573742060448201527362652067726561746572207468616e207a65726f60601b6064820152608401610937565b826004858154811061125457611254613250565b905f5260205f2090600702016002015460055461127191906132a3565b61127b9190613278565b600581905550826004858154811061129557611295613250565b905f5260205f20906007020160020181905550837f4b8fa3d6a87cb21d1bf4978bf60628ae358a28ac7f39de1751a481c6dd957617846005546040516112e5929190918252602082015260400190565b60405180910390a250505050565b5f6112fc612a31565b505f5160206133b65f395f51905f5290565b611316612494565b61131e6124c6565b600454819081106113415760405162461bcd60e51b8152600401610937906131ea565b5f6004838154811061135557611355613250565b5f918252602090912060079091020180549091506001600160a01b0316156113bf5760405162461bcd60e51b815260206004820152601d60248201527f696e76616c6964207374616b696e6720746f6b656e20616464726573730000006044820152606401610937565b80600501543410156113e35760405162461bcd60e51b815260040161093790613300565b6113ed8334612a7a565b5050610bf260015f5160206134165f395f51905f5255565b5f5160206134365f395f51905f5261141c81612686565b6004541561149e576001600160a01b0385166114995760405162461bcd60e51b815260206004820152603660248201527f4d6574614e6f64655374616b653a20535420746f6b656e20616464726573732060448201527563616e6e6f74206265207a65726f206164647265737360501b6064820152608401610937565b611510565b6001600160a01b038516156115105760405162461bcd60e51b815260206004820152603260248201527f4d6574614e6f64655374616b653a2054686520666972737420706f6f6c206d756044820152711cdd081899481d1a1948115512081c1bdbdb60721b6064820152608401610937565b5f82116115855760405162461bcd60e51b815260206004820152603e60248201527f4d6574614e6f64655374616b653a20556e7374616b65206c6f636b656420626c60448201527f6f636b73206d7573742062652067726561746572207468616e207a65726f00006064820152608401610937565b60015443106115f05760405162461bcd60e51b815260206004820152603160248201527f4d6574614e6f64655374616b653a2043616e6e6f742063726561746520706f6f6044820152706c20616674657220656e6420626c6f636b60781b6064820152608401610937565b5f5f544311611600575f54611602565b435b90508460055f8282546116159190613278565b90915550506040805160e0810182526001600160a01b038881168083525f60208085018281528587018c815260608088018a81526080890186815260a08a018f815260c08b018f81526004805460018101825599529a517f8a35acfbc15ff81a39ae7d344fd709f28e8600b4aa8c65c6b64bfe7fe36bd19b600790990298890180546001600160a01b03191691909b161790995593517f8a35acfbc15ff81a39ae7d344fd709f28e8600b4aa8c65c6b64bfe7fe36bd19c87015591517f8a35acfbc15ff81a39ae7d344fd709f28e8600b4aa8c65c6b64bfe7fe36bd19d86015590517f8a35acfbc15ff81a39ae7d344fd709f28e8600b4aa8c65c6b64bfe7fe36bd19e85015590517f8a35acfbc15ff81a39ae7d344fd709f28e8600b4aa8c65c6b64bfe7fe36bd19f84015593517f8a35acfbc15ff81a39ae7d344fd709f28e8600b4aa8c65c6b64bfe7fe36bd1a083015593517f8a35acfbc15ff81a39ae7d344fd709f28e8600b4aa8c65c6b64bfe7fe36bd1a19091015583518581529283018890529282018690528792917f0fa296fce13e7a0e622b3a892e66220c248337289483a3cfa4130cde0caa1346910160405180910390a3505050505050565b5f5160206134365f395f51905f526117ec81612686565b60035460ff1661184c5760405162461bcd60e51b815260206004820152602560248201527f4d6574614e6f64655374616b653a205769746864726177206973206e6f742070604482015264185d5cd95960da1b6064820152608401610937565b6003805460ff191690556040517f027c975733baceca09666fae356a901e083676848aaf9710150079385daae743905f90a150565b5f5160206134365f395f51905f5261189881612686565b60035460ff16156118fd5760405162461bcd60e51b815260206004820152602960248201527f4d6574614e6f64655374616b653a20576974686472617720697320616c726561604482015268191e481c185d5cd95960ba1b6064820152608401610937565b6003805460ff191660011790556040517f2523dfdafa00190f21a4cbd0c25179c8dd3cb34a6c17fea952ecca8fa8332c0e905f90a150565b5f5160206134365f395f51905f5261194c81612686565b6003805462010000600160b01b031916620100006001600160a01b038516908102919091179091556040517fafef10ff40345dd21fc1cac02d8ec620a709c9b0983e9c6454d2bef77f077df3905f90a25050565b6004545f90849081106119c55760405162461bcd60e51b8152600401610937906131ea565b5f600486815481106119d9576119d9613250565b5f91825260208083208984526006825260408085206001600160a01b038b1686529092529220600460079092029092019081015460018201546003830154929450909187118015611a2957508015155b15611a8b575f611a3d856003015489611af6565b90505f600554866002015483611a5391906132ca565b611a5d91906132e1565b905082611a7282670de0b6b3a76400006132ca565b611a7c91906132e1565b611a869085613278565b935050505b600283015460018401548454670de0b6b3a764000090611aac9086906132ca565b611ab691906132e1565b611ac091906132a3565b611aca9190613278565b9998505050505050505050565b5f5160206134365f395f51905f52611aee81612686565b610bf2612bbf565b5f818310611b595760405162461bcd60e51b815260206004820152602a60248201527f4d6574614e6f64655374616b653a205f66726f6d206d757374206265206c657360448201526973207468616e205f746f60b01b6064820152608401610937565b5f54831015611b67575f5492505b600154821115611b775760015491505b81831115611bfd5760405162461bcd60e51b815260206004820152604760248201527f4d6574614e6f64655374616b653a205f66726f6d206d757374206265206c657360448201527f73207468616e206f7220657175616c20746f205f746f2061667465722061646a6064820152661d5cdd1b595b9d60ca1b608482015260a401610937565b600254611c0a84846132a3565b611c1491906132ca565b9392505050565b5f5160206134365f395f51905f52611c3281612686565b600354610100900460ff1615611c995760405162461bcd60e51b815260206004820152602660248201527f4d6574614e6f64655374616b653a20436c61696d20697320616c7265616479206044820152651c185d5cd95960d21b6064820152608401610937565b6003805461ff0019166101001790556040517f443bf540e8151617cd5c39a681cc35a5a22be078b6f0cf16e5bd822b4c4b61ff905f90a150565b5f9182525f5160206133d65f395f51905f52602090815260408084206001600160a01b0393909316845291905290205460ff1690565b5f5160206134365f395f51905f52611d2081612686565b5f54821015611da35760405162461bcd60e51b815260206004820152604360248201527f4d6574614e6f64655374616b653a20656e64426c6f636b206d7573742062652060448201527f67726561746572207468616e206f7220657175616c20746f207374617274426c6064820152626f636b60e81b608482015260a401610937565b600182905560405182907f1132c5baccb51da3d049fabc819697dc845fa224ad59d9b555507d6446b40850905f90a25050565b5f611ddf612c07565b805490915060ff600160401b820416159067ffffffffffffffff165f81158015611e065750825b90505f8267ffffffffffffffff166001148015611e225750303b155b905081158015611e30575080155b15611e4e5760405163f92ee8a960e01b815260040160405180910390fd5b845467ffffffffffffffff191660011785558315611e7857845460ff60401b1916600160401b1785555b611e80612c2f565b611e88612c2f565b611e90612c37565b611e98612c2f565b611ea25f33612690565b50611eba5f5160206134365f395f51905f5233612690565b50611ee57f88aa719609f728b0c5e7fb8dd3608d5c25d497efbb3b9dd64e9251ebba10150833612690565b506003805462010000600160b01b031916620100006001600160a01b038a16021790556002869055435f819055611f1f90620f4240613278565b6001556003805461ffff191690558315611f7357845460ff60401b19168555604051600181527fc7f505b2f371ae2175ee4913f4499e1f2633a7b5936321eed1cdaeb6115181d29060200160405180910390a15b50505050505050565b611f8582610969565b611f8e81612686565b610c118383612731565b5f5160206134365f395f51905f52611faf81612686565b600282905560405182907f8ab88a7388492efe2edd2bf965f243bd055ba30a2ae62c0c99324f1ef0977a2a905f90a25050565b5f5160206134365f395f51905f52611ff981612686565b6004548490811061201c5760405162461bcd60e51b8152600401610937906131ea565b5f6004868154811061203057612030613250565b905f5260205f2090600702019050848160050181905550838160060181905550857f30dffdedaa3e3b4849298233f7cd71d229956e875ab09270498c96b7cf9181fd868660405161118a929190918252602082015260400190565b5f5160206134365f395f51905f526120a281612686565b600354610100900460ff166121045760405162461bcd60e51b815260206004820152602260248201527f4d6574614e6f64655374616b653a20436c61696d206973206e6f742070617573604482015261195960f21b6064820152608401610937565b6003805461ff00191690556040517f07c8faf23a72a53eb5c2c466dc81386a58b2a27d0cc3c7c580a3c12e372ba313905f90a150565b612142612494565b61214a6124c6565b6004548290811061216d5760405162461bcd60e51b8152600401610937906131ea565b5f6004848154811061218157612181613250565b5f918252602090912060079091020180549091506001600160a01b03166121ea5760405162461bcd60e51b815260206004820152601d60248201527f696e76616c6964207374616b696e6720746f6b656e20616464726573730000006044820152606401610937565b806005015483101561220e5760405162461bcd60e51b815260040161093790613300565b821561222b57805461222b906001600160a01b0316333086612c47565b6122358484612a7a565b5050610ea060015f5160206134165f395f51905f5255565b6004545f90839081106122725760405162461bcd60e51b8152600401610937906131ea565b61227d8484436119a0565b949350505050565b5f5160206134365f395f51905f5261229c81612686565b6001545f541115612317576040805162461bcd60e51b81526020600482015260248101919091527f4d6574614e6f64655374616b653a207374617274426c6f636b206d757374206260448201527f65206c657373207468616e206f7220657175616c20746f20656e64426c6f636b6064820152608401610937565b5f82815560405183917f63b90b79f11a0f132bcb2c4a4ddd44abda45c1308a83b2919318df7f5f8b7be491a25050565b60048181548110612356575f80fd5b5f91825260209091206007909102018054600182015460028301546003840154600485015460058601546006909601546001600160a01b039095169650929491939092919087565b5f5f8360048054905081106123c55760405162461bcd60e51b8152600401610937906131ea565b5f8581526006602090815260408083206001600160a01b03881684529091528120905b600382015481101561248a574382600301828154811061240a5761240a613250565b905f5260205f20906002020160010154116124515781600301818154811061243457612434613250565b905f5260205f2090600202015f01548461244e9190613278565b93505b81600301818154811061246657612466613250565b905f5260205f2090600202015f0154856124809190613278565b94506001016123e8565b5050509250929050565b5f5160206133f65f395f51905f525460ff16156124c45760405163d93c066560e01b815260040160405180910390fd5b565b5f5160206134165f395f51905f528054600119016124f757604051633ee5aeb560e01b815260040160405180910390fd5b60029055565b5f5f836001600160a01b0316836040515f6040518083038185875af1925050503d805f8114612547576040519150601f19603f3d011682016040523d82523d5f602084013e61254c565b606091505b50915091508161259e5760405162461bcd60e51b815260206004820152601860248201527f455448207472616e736665722063616c6c206661696c656400000000000000006044820152606401610937565b805115610c1157808060200190518101906125b99190613369565b610c115760405162461bcd60e51b815260206004820152602660248201527f455448207472616e73666572206f7065726174696f6e20646964206e6f7420736044820152651d58d8d9595960d21b6064820152608401610937565b6040516001600160a01b03838116602483015260448201839052610c4a91859182169063a9059cbb906064015b604051602081830303815290604052915060e01b6020820180516001600160e01b038381831617835250505050612c80565b60015f5160206134165f395f51905f5255565b610bf28133612cec565b5f5f5160206133d65f395f51905f526126a98484611cd3565b612728575f848152602082815260408083206001600160a01b03871684529091529020805460ff191660011790556126de3390565b6001600160a01b0316836001600160a01b0316857f2f8788117e7eff1d82e926ec794901d17c78024a50270940304540a733656f0d60405160405180910390a4600191505061090c565b5f91505061090c565b5f5f5160206133d65f395f51905f5261274a8484611cd3565b15612728575f848152602082815260408083206001600160a01b0387168085529252808320805460ff1916905551339287917ff6391f5c32d9c69d2a47ea670b442974b53935d1edc7fd64eb21e047a839171b9190a4600191505061090c565b6003546040516370a0823160e01b81523060048201525f916201000090046001600160a01b0316906370a0823190602401602060405180830381865afa1580156127f6573d5f5f3e3d5ffd5b505050506040513d601f19601f8201168201806040525081019061281a9190613388565b9050610c4a8382841161282d578361282f565b825b6003546201000090046001600160a01b03169190612614565b612850612d25565b5f5160206133f65f395f51905f52805460ff191681557f5db9ee0a495bf2e6ff9c91a7834c1ba4fdd244a5e8aa4e537bd38aeae4b073aa335b6040516001600160a01b03909116815260200160405180910390a150565b306001600160a01b037f000000000000000000000000000000000000000000000000000000000000000016148061292d57507f00000000000000000000000000000000000000000000000000000000000000006001600160a01b03166129215f5160206133b65f395f51905f52546001600160a01b031690565b6001600160a01b031614155b156124c45760405163703e46dd60e11b815260040160405180910390fd5b7f88aa719609f728b0c5e7fb8dd3608d5c25d497efbb3b9dd64e9251ebba101508610ea081612686565b816001600160a01b03166352d1902d6040518163ffffffff1660e01b8152600401602060405180830381865afa9250505080156129cf575060408051601f3d908101601f191682019092526129cc91810190613388565b60015b6129f757604051634c9c8ce360e01b81526001600160a01b0383166004820152602401610937565b5f5160206133b65f395f51905f528114612a2757604051632a87526960e21b815260048101829052602401610937565b610c4a8383612d54565b306001600160a01b037f000000000000000000000000000000000000000000000000000000000000000016146124c45760405163703e46dd60e11b815260040160405180910390fd5b5f60048381548110612a8e57612a8e613250565b5f9182526020808320868452600682526040808520338652909252922060079091029091019150612abe84611084565b805415612b23575f670de0b6b3a76400008360040154835f0154612ae291906132ca565b612aec91906132e1565b90505f826001015482612aff91906132a3565b90508015612b205780836002015f828254612b1a9190613278565b90915550505b50505b8215612b415782815f015f828254612b3b9190613278565b90915550505b82826001015f828254612b549190613278565b909155505060048201548154670de0b6b3a764000091612b73916132ca565b612b7d91906132e1565b6001820155604051838152849033907f90890809c654f11d6e72a28fa60149770a0d11ec6c92319d6ceb2bb0a4ea1a159060200160405180910390a350505050565b612bc7612494565b5f5160206133f65f395f51905f52805460ff191660011781557f62e78cea01bee320cd4e420270b5ea74000d11b0c9f74754ebdbfc544b05a25833612889565b5f807ff0c57e16840df040f15088dc2f81fe391c3923bec73e23a9662efc9c229c6a0061090c565b6124c4612da9565b612c3f612da9565b6124c4612dce565b6040516001600160a01b038481166024830152838116604483015260648201839052610c119186918216906323b872dd90608401612641565b5f5f60205f8451602086015f885af180612c9f576040513d5f823e3d81fd5b50505f513d91508115612cb6578060011415612cc3565b6001600160a01b0384163b155b15610c1157604051635274afe760e01b81526001600160a01b0385166004820152602401610937565b612cf68282611cd3565b610ea05760405163e2517d3f60e01b81526001600160a01b038216600482015260248101839052604401610937565b5f5160206133f65f395f51905f525460ff166124c457604051638dfc202b60e01b815260040160405180910390fd5b612d5d82612dd6565b6040516001600160a01b038316907fbc7cd75a20ee27fd9adebab32041f755214dbc6bffa90cc0225b39da2e5c2d3b905f90a2805115612da157610c4a8282612e39565b610ea0612eab565b612db1612eca565b6124c457604051631afcd79f60e31b815260040160405180910390fd5b612673612da9565b806001600160a01b03163b5f03612e0b57604051634c9c8ce360e01b81526001600160a01b0382166004820152602401610937565b5f5160206133b65f395f51905f5280546001600160a01b0319166001600160a01b0392909216919091179055565b60605f5f846001600160a01b031684604051612e55919061339f565b5f60405180830381855af49150503d805f8114612e8d576040519150601f19603f3d011682016040523d82523d5f602084013e612e92565b606091505b5091509150612ea2858383612ee3565b95945050505050565b34156124c45760405163b398979f60e01b815260040160405180910390fd5b5f612ed3612c07565b54600160401b900460ff16919050565b606082612ef857612ef382612f3f565b611c14565b8151158015612f0f57506001600160a01b0384163b155b15612f3857604051639996b31560e01b81526001600160a01b0385166004820152602401610937565b5092915050565b805115612f4e57805160208201fd5b60405163d6bda27560e01b815260040160405180910390fd5b5f60208284031215612f77575f5ffd5b81356001600160e01b031981168114611c14575f5ffd5b80356001600160a01b0381168114612fa4575f5ffd5b919050565b5f5f60408385031215612fba575f5ffd5b82359150612fca60208401612f8e565b90509250929050565b5f60208284031215612fe3575f5ffd5b5035919050565b5f5f60408385031215612ffb575f5ffd5b50508035926020909101359150565b634e487b7160e01b5f52604160045260245ffd5b5f5f6040838503121561302f575f5ffd5b61303883612f8e565b9150602083013567ffffffffffffffff811115613053575f5ffd5b8301601f81018513613063575f5ffd5b803567ffffffffffffffff81111561307d5761307d61300a565b604051601f8201601f19908116603f0116810167ffffffffffffffff811182821017156130ac576130ac61300a565b6040528181528282016020018710156130c3575f5ffd5b816020840160208301375f602083830101528093505050509250929050565b5f5f5f5f608085870312156130f5575f5ffd5b6130fe85612f8e565b966020860135965060408601359560600135945092505050565b5f60208284031215613128575f5ffd5b611c1482612f8e565b5f5f5f60608486031215613143575f5ffd5b8335925061315360208501612f8e565b929592945050506040919091013590565b602081525f82518060208401528060208501604085015e5f604082850101526040601f19601f83011684010191505092915050565b5f5f604083850312156131aa575f5ffd5b6131b383612f8e565b946020939093013593505050565b5f5f5f606084860312156131d3575f5ffd5b505081359360208301359350604090920135919050565b6020808252600b908201526a1a5b9d985b1a59081c1a5960aa1b604082015260600190565b60208082526021908201527f4d6574614e6f64655374616b653a2057697468647261772069732070617573656040820152601960fa1b606082015260800190565b634e487b7160e01b5f52603260045260245ffd5b634e487b7160e01b5f52601160045260245ffd5b8082018082111561090c5761090c613264565b5f6001820161329c5761329c613264565b5060010190565b8181038181111561090c5761090c613264565b634e487b7160e01b5f52603160045260245ffd5b808202811582820484141761090c5761090c613264565b5f826132fb57634e487b7160e01b5f52601260045260245ffd5b500490565b60208082526043908201527f4d6574614e6f64655374616b653a204465706f73697420616d6f756e74206d7560408201527f73742062652067726561746572207468616e206d696e4465706f736974416d6f6060820152621d5b9d60ea1b608082015260a00190565b5f60208284031215613379575f5ffd5b81518015158114611c14575f5ffd5b5f60208284031215613398575f5ffd5b5051919050565b5f82518060208501845e5f92019182525091905056fe360894a13ba1a3210667c828492db98dca3e2076cc3735a920a3ca505d382bbc02dd7bc7dec4dceedda775e58dd541e08a116c6c53815c0bd028192f7b626800cd5ed15c6e187e77e9aee88184c21f4f2182ab5827cb3b7e07fbedcd63f033009b779b17422d0df92223018b32b4d1fa46e071723d6817e2486d003becc55f00a49807205ce4d355092ef5a8a18f56e8913cf4a201fbe287825b095693c21775a2646970667358221220c9a2eb31b2607960d194bcf1911cf1ba5691c1183f79aef4bd1e969438d4ee3364736f6c634300081c0033",
  "linkReferences": {},
  "deployedLinkReferences": {},
  "immutableReferences": {
    "652": [
      {
        "length": 32,
        "start": 10418
      },
      {
        "length": 32,
        "start": 10459
      },
      {
        "length": 32,
        "start": 10812
      }
    ]
  },
  "inputSourceName": "project/contracts/MetaNodeStake.sol",
  "buildInfoId": "solc-0_8_28-ed05e835def8eccf306872cde303d07c66509212"
}