{
  "_format": "hh3-artifact-1",
  "contractName": "MetaNodeStake",
  "sourceName": "contracts/MetaNodeStake.sol",
  "abi": [
    {
      "inputs": [],
      "name": "AccessControlBadConfirmation",
      "type": "error"
    },
    {
      "inputs": [
        {
          "internalType": "address",
          "name": "account",
          "type": "address"
        },
        {
          "internalType": "bytes32",
          "name": "neededRole",
          "type": "bytes32"
        }
      ],
      "name": "AccessControlUnauthorizedAccount",
      "type": "error"
    },
    {
      "inputs": [
        {
          "internalType": "address",
          "name": "target",
          "type": "address"
        }
      ],
      "name": "AddressEmptyCode",
      "type": "error"
    },
    {
      "inputs": [
        {
          "internalType": "address",
          "name": "implementation",
          "type": "address"
        }
      ],
      "name": "ERC1967InvalidImplementation",
      "type": "error"
    },
    {
      "inputs": [],
      "name": "ERC1967NonPayable",
      "type": "error"
    },
    {
      "inputs": [],
      "name": "EnforcedPause",
      "type": "error"
    },
    {
      "inputs": [],
      "name": "ExpectedPause",
      "type": "error"
    },
    {
      "inputs": [],
      "name": "FailedCall",
      "type": "error"
    },
    {
      "inputs": [],
      "name": "InvalidInitialization",
      "type": "error"
    },
    {
      "inputs": [],
      "name": "NotInitializing",
      "type": "error"
    },
    {
      "inputs": [],
      "name": "ReentrancyGuardReentrantCall",
      "type": "error"
    },
    {
      "inputs": [
        {
          "internalType": "address",
          "name": "token",
          "type": "address"
        }
      ],
      "name": "SafeERC20FailedOperation",
      "type": "error"
    },
    {
      "inputs": [],
      "name": "UUPSUnauthorizedCallContext",
      "type": "error"
    },
    {
      "inputs": [
        {
          "internalType": "bytes32",
          "name": "slot",
          "type": "bytes32"
        }
      ],
      "name": "UUPSUnsupportedProxiableUUID",
      "type": "error"
    },
    {
      "anonymous": false,
      "inputs": [
        {
          "indexed": true,
          "internalType": "address",
          "name": "stTokenAddress",
          "type": "address"
        },
        {
          "indexed": true,
          "internalType": "uint256",
          "name": "poolWeight",
          "type": "uint256"
        },
        {
          "indexed": false,
          "internalType": "uint256",
          "name": "lastRewardBlock",
          "type": "uint256"
        },
        {
          "indexed": false,
          "internalType": "uint256",
          "name": "minDepositAmount",
          "type": "uint256"
        },
        {
          "indexed": false,
          "internalType": "uint256",
          "name": "unstakeLockedBlocks",
          "type": "uint256"
        }
      ],
      "name": "AddPool",
      "type": "event"
    },
    {
      "anonymous": false,
      "inputs": [
        {
          "indexed": true,
          "internalType": "address",
          "name": "user",
          "type": "address"
        },
        {
          "indexed": true,
          "internalType": "uint256",
          "name": "pid",
          "type": "uint256"
        },
        {
          "indexed": false,
          "internalType": "uint256",
          "name": "amount",
          "type": "uint256"
        }
      ],
      "name": "Claim",
      "type": "event"
    },
    {
      "anonymous": false,
      "inputs": [
        {
          "indexed": true,
          "internalType": "address",
          "name": "user",
          "type": "address"
        },
        {
          "indexed": true,
          "internalType": "uint256",
          "name": "pid",
          "type": "uint256"
        },
        {
          "indexed": false,
          "internalType": "uint256",
          "name": "amount",
          "type": "uint256"
        }
      ],
      "name": "Deposit",
      "type": "event"
    },
    {
      "anonymous": false,
      "inputs": [
        {
          "indexed": false,
          "internalType": "uint64",
          "name": "version",
          "type": "uint64"
        }
      ],
      "name": "Initialized",
      "type": "event"
    },
    {
      "anonymous": false,
      "inputs": [
        {
          "indexed": false,
          "internalType": "address",
          "name": "account",
          "type": "address"
        }
      ],
      "name": "Paused",
      "type": "event"
    },
    {
      "anonymous": false,
      "inputs": [],
      "name": "PausedClaim",
      "type": "event"
    },
    {
      "anonymous": false,
      "inputs": [],
      "name": "PausedWithdraw",
      "type": "event"
    },
    {
      "anonymous": false,
      "inputs": [
        {
          "indexed": true,
          "internalType": "address",
          "name": "user",
          "type": "address"
        },
        {
          "indexed": true,
          "internalType": "uint256",
          "name": "pid",
          "type": "uint256"
        },
        {
          "indexed": false,
          "internalType": "uint256",
          "name": "amount",
          "type": "uint256"
        }
      ],
      "name": "RequestUnStake",
      "type": "event"
    },
    {
      "anonymous": false,
      "inputs": [
        {
          "indexed": true,
          "internalType": "bytes32",
          "name": "role",
          "type": "bytes32"
        },
        {
          "indexed": true,
          "internalType": "bytes32",
          "name": "previousAdminRole",
          "type": "bytes32"
        },
        {
          "indexed": true,
          "internalType": "bytes32",
          "name": "newAdminRole",
          "type": "bytes32"
        }
      ],
      "name": "RoleAdminChanged",
      "type": "event"
    },
    {
      "anonymous": false,
      "inputs": [
        {
          "indexed": true,
          "internalType": "bytes32",
          "name": "role",
          "type": "bytes32"
        },
        {
          "indexed": true,
          "internalType": "address",
          "name": "account",
          "type": "address"
        },
        {
          "indexed": true,
          "internalType": "address",
          "name": "sender",
          "type": "address"
        }
      ],
      "name": "RoleGranted",
      "type": "event"
    },
    {
      "anonymous": false,
      "inputs": [
        {
          "indexed": true,
          "internalType": "bytes32",
          "name": "role",
          "type": "bytes32"
        },
        {
          "indexed": true,
          "internalType": "address",
          "name": "account",
          "type": "address"
        },
        {
          "indexed": true,
          "internalType": "address",
          "name": "sender",
          "type": "address"
        }
      ],
      "name": "RoleRevoked",
      "type": "event"
    },
    {
      "anonymous": false,
      "inputs": [
        {
          "indexed": true,
          "internalType": "uint256",
          "name": "endBlock",
          "type": "uint256"
        }
      ],
      "name": "SetEndBlock",
      "type": "event"
    },
    {
      "anonymous": false,
      "inputs": [
        {
          "indexed": true,
          "internalType": "uint256",
          "name": "metaNodePerBlock",
          "type": "uint256"
        }
      ],
      "name": "SetMetaNOdePerBlock",
      "type": "event"
    },
    {
      "anonymous": false,
      "inputs": [
        {
          "indexed": true,
          "internalType": "address",
          "name": "metaNode",
          "type": "address"
        }
      ],
      "name": "SetMetaNode",
      "type": "event"
    },
    {
      "anonymous": false,
      "inputs": [
        {
          "indexed": true,
          "internalType": "uint256",
          "name": "pid",
          "type": "uint256"
        },
        {
          "indexed": false,
          "internalType": "uint256",
          "name": "poolWeight",
          "type": "uint256"
        },
        {
          "indexed": false,
          "internalType": "uint256",
          "name": "totalPoolWeight",
          "type": "uint256"
        }
      ],
      "name": "SetPoolWeight",
      "type": "event"
    },
    {
      "anonymous": false,
      "inputs": [
        {
          "indexed": true,
          "internalType": "uint256",
          "name": "startBlock",
          "type": "uint256"
        }
      ],
      "name": "SetStartBlock",
      "type": "event"
    },
    {
      "anonymous": false,
      "inputs": [
        {
          "indexed": false,
          "internalType": "address",
          "name": "account",
          "type": "address"
        }
      ],
      "name": "Unpaused",
      "type": "event"
    },
    {
      "anonymous": false,
      "inputs": [],
      "name": "UnpausedClaim",
      "type": "event"
    },
    {
      "anonymous": false,
      "inputs": [],
      "name": "UnpausedWithdraw",
      "type": "event"
    },
    {
      "anonymous": false,
      "inputs": [
        {
          "indexed": true,
          "internalType": "uint256",
          "name": "pid",
          "type": "uint256"
        },
        {
          "indexed": false,
          "internalType": "uint256",
          "name": "lastRewardBlock",
          "type": "uint256"
        },
        {
          "indexed": false,
          "internalType": "uint256",
          "name": "totalMetaNode",
          "type": "uint256"
        }
      ],
      "name": "UpdatePool",
      "type": "event"
    },
    {
      "anonymous": false,
      "inputs": [
        {
          "indexed": true,
          "internalType": "uint256",
          "name": "pid",
          "type": "uint256"
        },
        {
          "indexed": false,
          "internalType": "uint256",
          "name": "minDepositAmount",
          "type": "uint256"
        },
        {
          "indexed": false,
          "internalType": "uint256",
          "name": "unstakeLockedBlocks",
          "type": "uint256"
        }
      ],
      "name": "UpdatePoolInfo",
      "type": "event"
    },
    {
      "anonymous": false,
      "inputs": [
        {
          "indexed": true,
          "internalType": "address",
          "name": "implementation",
          "type": "address"
        }
      ],
      "name": "Upgraded",
      "type": "event"
    },
    {
      "anonymous": false,
      "inputs": [
        {
          "indexed": true,
          "internalType": "address",
          "name": "user",
          "type": "address"
        },
        {
          "indexed": true,
          "internalType": "uint256",
          "name": "pid",
          "type": "uint256"
        },
        {
          "indexed": false,
          "internalType": "uint256",
          "name": "amount",
          "type": "uint256"
        },
        {
          "indexed": false,
          "internalType": "uint256",
          "name": "blockNumber",
          "type": "uint256"
        }
      ],
      "name": "Withdraw",
      "type": "event"
    },
    {
      "inputs": [],
      "name": "ADMIN_ROLE",
      "outputs": [
        {
          "internalType": "bytes32",
          "name": "",
          "type": "bytes32"
        }
      ],
      "stateMutability": "view",
      "type": "function"
    },
    {
      "inputs": [],
      "name": "DEFAULT_ADMIN_ROLE",
      "outputs": [
        {
          "internalType": "bytes32",
          "name": "",
          "type": "bytes32"
        }
      ],
      "stateMutability": "view",
      "type": "function"
    },
    {
      "inputs": [],
      "name": "ETH_PID",
      "outputs": [
        {
          "internalType": "uint256",
          "name": "",
          "type": "uint256"
        }
      ],
      "stateMutability": "view",
      "type": "function"
    },
    {
      "inputs": [],
      "name": "MetaNode",
      "outputs": [
        {
          "internalType": "contract IERC20",
          "name": "",
          "type": "address"
        }
      ],
      "stateMutability": "view",
      "type": "function"
    },
    {
      "inputs": [],
      "name": "UPGRADE_INTERFACE_VERSION",
      "outputs": [
        {
          "internalType": "string",
          "name": "",
          "type": "string"
        }
      ],
      "stateMutability": "view",
      "type": "function"
    },
    {
      "inputs": [],
      "name": "UPGRADE_ROLE",
      "outputs": [
        {
          "internalType": "bytes32",
          "name": "",
          "type": "bytes32"
        }
      ],
      "stateMutability": "view",
      "type": "function"
    },
    {
      "inputs": [
        {
          "internalType": "address",
          "name": "_stTokenAddress",
          "type": "address"
        },
        {
          "internalType": "uint256",
          "name": "_poolWeight",
          "type": "uint256"
        },
        {
          "internalType": "uint256",
          "name": "_minDepositAmount",
          "type": "uint256"
        },
        {
          "internalType": "uint256",
          "name": "_unstakeLockedBlocks",
          "type": "uint256"
        }
      ],
      "name": "addPool",
      "outputs": [],
      "stateMutability": "nonpayable",
      "type": "function"
    },
    {
      "inputs": [
        {
          "internalType": "uint256",
          "name": "_pid",
          "type": "uint256"
        }
      ],
      "name": "claim",
      "outputs": [],
      "stateMutability": "nonpayable",
      "type": "function"
    },
    {
      "inputs": [],
      "name": "claimPaused",
      "outputs": [
        {
          "internalType": "bool",
          "name": "",
          "type": "bool"
        }
      ],
      "stateMutability": "view",
      "type": "function"
    },
    {
      "inputs": [
        {
          "internalType": "uint256",
          "name": "_pid",
          "type": "uint256"
        },
        {
          "internalType": "uint256",
          "name": "_amount",
          "type": "uint256"
        }
      ],
      "name": "deposit",
      "outputs": [],
      "stateMutability": "nonpayable",
      "type": "function"
    },
    {
      "inputs": [
        {
          "internalType": "uint256",
          "name": "_pid",
          "type": "uint256"
        }
      ],
      "name": "depositETH",
      "outputs": [],
      "stateMutability": "payable",
      "type": "function"
    },
    {
      "inputs": [],
      "name": "endBlock",
      "outputs": [
        {
          "internalType": "uint256",
          "name": "",
          "type": "uint256"
        }
      ],
      "stateMutability": "view",
      "type": "function"
    },
    {
      "inputs": [
        {
          "internalType": "uint256",
          "name": "_from",
          "type": "uint256"
        },
        {
          "internalType": "uint256",
          "name": "_to",
          "type": "uint256"
        }
      ],
      "name": "getMultiplier",
      "outputs": [
        {
          "internalType": "uint256",
          "name": "multiplier",
          "type": "uint256"
        }
      ],
      "stateMutability": "view",
      "type": "function"
    },
    {
      "inputs": [
        {
          "internalType": "bytes32",
          "name": "role",
          "type": "bytes32"
        }
      ],
      "name": "getRoleAdmin",
      "outputs": [
        {
          "internalType": "bytes32",
          "name": "",
          "type": "bytes32"
        }
      ],
      "stateMutability": "view",
      "type": "function"
    },
    {
      "inputs": [
        {
          "internalType": "bytes32",
          "name": "role",
          "type": "bytes32"
        },
        {
          "internalType": "address",
          "name": "account",
          "type": "address"
        }
      ],
      "name": "grantRole",
      "outputs": [],
      "stateMutability": "nonpayable",
      "type": "function"
    },
    {
      "inputs": [
        {
          "internalType": "bytes32",
          "name": "role",
          "type": "bytes32"
        },
        {
          "internalType": "address",
          "name": "account",
          "type": "address"
        }
      ],
      "name": "hasRole",
      "outputs": [
        {
          "internalType": "bool",
          "name": "",
          "type": "bool"
        }
      ],
      "stateMutability": "view",
      "type": "function"
    },
    {
      "inputs": [
        {
          "internalType": "address",
          "name": "_metaNode",
          "type": "address"
        },
        {
          "internalType": "uint256",
          "name": "_metaNodePerBlock",
          "type": "uint256"
        }
      ],
      "name": "initialize",
      "outputs": [],
      "stateMutability": "nonpayable",
      "type": "function"
    },
    {
      "inputs": [],
      "name": "metaNodePerBlock",
      "outputs": [
        {
          "internalType": "uint256",
          "name": "",
          "type": "uint256"
        }
      ],
      "stateMutability": "view",
      "type": "function"
    },
    {
      "inputs": [],
      "name": "pause",
      "outputs": [],
      "stateMutability": "nonpayable",
      "type": "function"
    },
    {
      "inputs": [],
      "name": "pauseClaim",
      "outputs": [],
      "stateMutability": "nonpayable",
      "type": "function"
    },
    {
      "inputs": [],
      "name": "pauseWithdraw",
      "outputs": [],
      "stateMutability": "nonpayable",
      "type": "function"
    },
    {
      "inputs": [],
      "name": "paused",
      "outputs": [
        {
          "internalType": "bool",
          "name": "",
          "type": "bool"
        }
      ],
      "stateMutability": "view",
      "type": "function"
    },
    {
      "inputs": [
        {
          "internalType": "uint256",
          "name": "_pid",
          "type": "uint256"
        },
        {
          "internalType": "address",
          "name": "_user",
          "type": "address"
        }
      ],
      "name": "pendingMetaNode",
      "outputs": [
        {
          "internalType": "uint256",
          "name": "",
          "type": "uint256"
        }
      ],
      "stateMutability": "view",
      "type": "function"
    },
    {
      "inputs": [
        {
          "internalType": "uint256",
          "name": "_pid",
          "type": "uint256"
        },
        {
          "internalType": "address",
          "name": "_user",
          "type": "address"
        },
        {
          "internalType": "uint256",
          "name": "_blockNumber",
          "type": "uint256"
        }
      ],
      "name": "pendingMetaNodeByBlockNumber",
      "outputs": [
        {
          "internalType": "uint256",
          "name": "",
          "type": "uint256"
        }
      ],
      "stateMutability": "view",
      "type": "function"
    },
    {
      "inputs": [
        {
          "internalType": "uint256",
          "name": "",
          "type": "uint256"
        }
      ],
      "name": "pool",
      "outputs": [
        {
          "internalType": "address",
          "name": "stTokenAddress",
          "type": "address"
        },
        {
          "internalType": "uint256",
          "name": "stTokenAmount",
          "type": "uint256"
        },
        {
          "internalType": "uint256",
          "name": "poolWeight",
          "type": "uint256"
        },
        {
          "internalType": "uint256",
          "name": "lastRewardBlock",
          "type": "uint256"
        },
        {
          "internalType": "uint256",
          "name": "accMetaNodePerST",
          "type": "uint256"
        },
        {
          "internalType": "uint256",
          "name": "minDepositAmount",
          "type": "uint256"
        },
        {
          "internalType": "uint256",
          "name": "unstakeLockedBlocks",
          "type": "uint256"
        }
      ],
      "stateMutability": "view",
      "type": "function"
    },
    {
      "inputs": [],
      "name": "poolLength",
      "outputs": [
        {
          "internalType": "uint256",
          "name": "",
          "type": "uint256"
        }
      ],
      "stateMutability": "view",
      "type": "function"
    },
    {
      "inputs": [],
      "name": "proxiableUUID",
      "outputs": [
        {
          "internalType": "bytes32",
          "name": "",
          "type": "bytes32"
        }
      ],
      "stateMutability": "view",
      "type": "function"
    },
    {
      "inputs": [
        {
          "internalType": "bytes32",
          "name": "role",
          "type": "bytes32"
        },
        {
          "internalType": "address",
          "name": "callerConfirmation",
          "type": "address"
        }
      ],
      "name": "renounceRole",
      "outputs": [],
      "stateMutability": "nonpayable",
      "type": "function"
    },
    {
      "inputs": [
        {
          "internalType": "bytes32",
          "name": "role",
          "type": "bytes32"
        },
        {
          "internalType": "address",
          "name": "account",
          "type": "address"
        }
      ],
      "name": "revokeRole",
      "outputs": [],
      "stateMutability": "nonpayable",
      "type": "function"
    },
    {
      "inputs": [
        {
          "internalType": "uint256",
          "name": "_endBlock",
          "type": "uint256"
        }
      ],
      "name": "setEndBlock",
      "outputs": [],
      "stateMutability": "nonpayable",
      "type": "function"
    },
    {
      "inputs": [
        {
          "internalType": "address",
          "name": "_metaNode",
          "type": "address"
        }
      ],
      "name": "setMetaNode",
      "outputs": [],
      "stateMutability": "nonpayable",
      "type": "function"
    },
    {
      "inputs": [
        {
          "internalType": "uint256",
          "name": "_metaNodePerBlock",
          "type": "uint256"
        }
      ],
      "name": "setMetaNodePerBlock",
      "outputs": [],
      "stateMutability": "nonpayable",
      "type": "function"
    },
    {
      "inputs": [
        {
          "internalType": "uint256",
          "name": "_pid",
          "type": "uint256"
        },
        {
          "internalType": "uint256",
          "name": "_poolWeight",
          "type": "uint256"
        }
      ],
      "name": "setPoolWeight",
      "outputs": [],
      "stateMutability": "nonpayable",
      "type": "function"
    },
    {
      "inputs": [
        {
          "internalType": "uint256",
          "name": "_startBlock",
          "type": "uint256"
        }
      ],
      "name": "setStartBlock",
      "outputs": [],
      "stateMutability": "nonpayable",
      "type": "function"
    },
    {
      "inputs": [
        {
          "internalType": "uint256",
          "name": "_pid",
          "type": "uint256"
        },
        {
          "internalType": "address",
          "name": "_user",
          "type": "address"
        }
      ],
      "name": "stakingBalance",
      "outputs": [
        {
          "internalType": "uint256",
          "name": "",
          "type": "uint256"
        }
      ],
      "stateMutability": "view",
      "type": "function"
    },
    {
      "inputs": [],
      "name": "startBlock",
      "outputs": [
        {
          "internalType": "uint256",
          "name": "",
          "type": "uint256"
        }
      ],
      "stateMutability": "view",
      "type": "function"
    },
    {
      "inputs": [
        {
          "internalType": "bytes4",
          "name": "interfaceId",
          "type": "bytes4"
        }
      ],
      "name": "supportsInterface",
      "outputs": [
        {
          "internalType": "bool",
          "name": "",
          "type": "bool"
        }
      ],
      "stateMutability": "view",
      "type": "function"
    },
    {
      "inputs": [],
      "name": "totalPoolWeight",
      "outputs": [
        {
          "internalType": "uint256",
          "name": "",
          "type": "uint256"
        }
      ],
      "stateMutability": "view",
      "type": "function"
    },
    {
      "inputs": [
        {
          "internalType": "uint256",
          "name": "_pid",
          "type": "uint256"
        },
        {
          "internalType": "uint256",
          "name": "_amount",
          "type": "uint256"
        }
      ],
      "name": "unStake",
      "outputs": [],
      "stateMutability": "nonpayable",
      "type": "function"
    },
    {
      "inputs": [],
      "name": "unpause",
      "outputs": [],
      "stateMutability": "nonpayable",
      "type": "function"
    },
    {
      "inputs": [],
      "name": "unpauseClaim",
      "outputs": [],
      "stateMutability": "nonpayable",
      "type": "function"
    },
    {
      "inputs": [],
      "name": "unpauseWithdraw",
      "outputs": [],
      "stateMutability": "nonpayable",
      "type": "function"
    },
    {
      "inputs": [
        {
          "internalType": "uint256",
          "name": "_pid",
          "type": "uint256"
        }
      ],
      "name": "updatePool",
      "outputs": [],
      "stateMutability": "nonpayable",
      "type": "function"
    },
    {
      "inputs": [
        {
          "internalType": "uint256",
          "name": "_pid",
          "type": "uint256"
        },
        {
          "internalType": "uint256",
          "name": "_minDepositAmount",
          "type": "uint256"
        },
        {
          "internalType": "uint256",
          "name": "_unstakeLockedBlocks",
          "type": "uint256"
        }
      ],
      "name": "updatePool",
      "outputs": [],
      "stateMutability": "nonpayable",
      "type": "function"
    },
    {
      "inputs": [
        {
          "internalType": "address",
          "name": "newImplementation",
          "type": "address"
        },
        {
          "internalType": "bytes",
          "name": "data",
          "type": "bytes"
        }
      ],
      "name": "upgradeToAndCall",
      "outputs": [],
      "stateMutability": "payable",
      "type": "function"
    },
    {
      "inputs": [
        {
          "internalType": "uint256",
          "name": "",
          "type": "uint256"
        },
        {
          "internalType": "address",
          "name": "",
          "type": "address"
        }
      ],
      "name": "user",
      "outputs": [
        {
          "internalType": "uint256",
          "name": "stAmount",
          "type": "uint256"
        },
        {
          "internalType": "uint256",
          "name": "finishedMetaNode",
          "type": "uint256"
        },
        {
          "internalType": "uint256",
          "name": "pendingMetaNode",
          "type": "uint256"
        }
      ],
      "stateMutability": "view",
      "type": "function"
    },
    {
      "inputs": [
        {
          "internalType": "uint256",
          "name": "_pid",
          "type": "uint256"
        }
      ],
      "name": "withdraw",
      "outputs": [],
      "stateMutability": "nonpayable",
      "type": "function"
    },
    {
      "inputs": [
        {
          "internalType": "uint256",
          "name": "_pid",
          "type": "uint256"
        },
        {
          "internalType": "address",
          "name": "_user",
          "type": "address"
        }
      ],
      "name": "withdrawAmount",
      "outputs": [
        {
          "internalType": "uint256",
          "name": "requestAmount",
          "type": "uint256"
        },
        {
          "internalType": "uint256",
          "name": "pendingWithdrawAmount",
          "type": "uint256"
        }
      ],
      "stateMutability": "view",
      "type": "function"
    },
    {
      "inputs": [],
      "name": "withdrawPaused",
      "outputs": [
        {
          "internalType": "bool",
          "name": "",
          "type": "bool"
        }
      ],
      "stateMutability": "view",
      "type": "function"
    }
  ],
  "bytecode": "0x60a0604052306080523480156012575f5ffd5b5060805161351c6100395f395f81816129430152818161296c0152612acd015261351c5ff3fe6080604052600436106102a5575f3560e01c806361a9a03d1161016f578063bfc3ebba116100d8578063d86c044411610092578063ea5c219d1161006d578063ea5c219d1461080c578063f35e4a6e1461082b578063fe3131121461084a578063ff423357146108a8575f5ffd5b8063d86c0444146107ba578063de065caa146107d9578063e2bbb158146107ed575f5ffd5b8063bfc3ebba14610660578063c713aa9414610701578063cd6dc68714610720578063d22f1d801461073f578063d547741f1461077c578063d7bc17691461079b575f5ffd5b80638ff095f9116101295780638ff095f91461062d57806391d1485414610641578063a217fddf14610660578063ab5e124a14610673578063ad3cb1cc14610691578063b908afa8146106ce575f5ffd5b806361a9a03d146105875780636325d5bc146105a65780637276d925146105c557806375b238fc146105da5780638456cb59146105fa5780638dbb1e3a1461060e575f5ffd5b8063379607f51161021157806352d1902d116101cb57806352d1902d146104f65780635358fbda1461050a5780635a4ec0ca1461051d5780635bb6d0071461053c5780635c975abb146105505780636155e3de14610573575f5ffd5b8063379607f51461045e5780633f4ba83a1461047d57806348cd4cb1146104915780634f1ef286146104a557806351eb05a6146104b857806352911623146104d7575f5ffd5b80632e1a7d4d116102625780632e1a7d4d146103675780632f2ff15d146103885780632f3ffb9f146103a757806336568abe146103c0578063372caeb8146103df57806337849b3c146103fe575f5ffd5b806301ffc9a7146102a957806302559004146102dd578063081e3eda14610300578063083c6323146103145780631154823414610329578063248a9ca314610348575b5f5ffd5b3480156102b4575f5ffd5b506102c86102c3366004612ff8565b6108dc565b60405190151581526020015b60405180910390f35b3480156102e8575f5ffd5b506102f260055481565b6040519081526020016102d4565b34801561030b575f5ffd5b506004546102f2565b34801561031f575f5ffd5b506102f260015481565b348015610334575f5ffd5b506102f261034336600461303a565b610912565b348015610353575f5ffd5b506102f2610362366004613064565b610969565b348015610372575f5ffd5b50610386610381366004613064565b610989565b005b348015610393575f5ffd5b506103866103a236600461303a565b610c86565b3480156103b2575f5ffd5b506003546102c89060ff1681565b3480156103cb575f5ffd5b506103866103da36600461303a565b610ca8565b3480156103ea575f5ffd5b506103866103f936600461307b565b610ce0565b348015610409575f5ffd5b5061044361041836600461303a565b600660209081525f928352604080842090915290825290208054600182015460029092015490919083565b604080519384526020840192909252908201526060016102d4565b348015610469575f5ffd5b50610386610478366004613064565b610f35565b348015610488575f5ffd5b506103866110db565b34801561049c575f5ffd5b506102f25f5481565b6103866104b33660046130af565b6110fa565b3480156104c3575f5ffd5b506103866104d2366004613064565b611115565b3480156104e2575f5ffd5b506103866104f136600461307b565b61122b565b348015610501575f5ffd5b506102f2611384565b610386610518366004613064565b61139f565b348015610528575f5ffd5b50610386610537366004613173565b611496565b348015610547575f5ffd5b50610386611866565b34801561055b575f5ffd5b505f5160206134875f395f51905f525460ff166102c8565b34801561057e575f5ffd5b50610386611912565b348015610592575f5ffd5b506103866105a13660046131a9565b6119c6565b3480156105b1575f5ffd5b506102f26105c03660046131c2565b611a31565b3480156105d0575f5ffd5b506102f260025481565b3480156105e5575f5ffd5b506102f25f5160206134c75f395f51905f5281565b348015610605575f5ffd5b50610386611b68565b348015610619575f5ffd5b506102f261062836600461307b565b611b87565b348015610638575f5ffd5b50610386611cac565b34801561064c575f5ffd5b506102c861065b36600461303a565b611d64565b34801561066b575f5ffd5b506102f25f81565b34801561067e575f5ffd5b506003546102c890610100900460ff1681565b34801561069c575f5ffd5b506106c1604051806040016040528060058152602001640352e302e360dc1b81525081565b6040516102d491906131f5565b3480156106d9575f5ffd5b506102f27f88aa719609f728b0c5e7fb8dd3608d5c25d497efbb3b9dd64e9251ebba10150881565b34801561070c575f5ffd5b5061038661071b366004613064565b611d9a565b34801561072b575f5ffd5b5061038661073a36600461322a565b611e67565b34801561074a575f5ffd5b50600354610764906201000090046001600160a01b031681565b6040516001600160a01b0390911681526020016102d4565b348015610787575f5ffd5b5061038661079636600461303a565b61200d565b3480156107a6575f5ffd5b506103866107b5366004613064565b612029565b3480156107c5575f5ffd5b506103866107d4366004613252565b612073565b3480156107e4575f5ffd5b5061038661211c565b3480156107f8575f5ffd5b5061038661080736600461307b565b6121cb565b348015610817575f5ffd5b506102f261082636600461303a565b6122de565b348015610836575f5ffd5b50610386610845366004613064565b612316565b348015610855575f5ffd5b50610869610864366004613064565b6123d8565b604080516001600160a01b0390981688526020880196909652948601939093526060850191909152608084015260a083015260c082015260e0016102d4565b3480156108b3575f5ffd5b506108c76108c236600461303a565b61242f565b604080519283526020830191909152016102d4565b5f6001600160e01b03198216637965db0b60e01b148061090c57506301ffc9a760e01b6001600160e01b03198316145b92915050565b6004545f90839081106109405760405162461bcd60e51b81526004016109379061327b565b60405180910390fd5b50505f9182526006602090815260408084206001600160a01b0393909316845291905290205490565b5f9081525f5160206134675f395f51905f52602052604090206001015490565b610991612525565b610999612557565b60035460ff16156109bc5760405162461bcd60e51b8152600401610937906132a0565b600454819081106109df5760405162461bcd60e51b81526004016109379061327b565b5f82815260066020908152604080832033845290915281206004805491929185908110610a0e57610a0e6132e1565b905f5260205f2090600702019050610a2584611115565b815415610a85575f8260010154670de0b6b3a76400008360040154855f0154610a4e9190613309565b610a589190613320565b610a62919061333f565b90508015610a835780836002015f828254610a7d9190613352565b90915550505b505b60048101548254670de0b6b3a764000091610a9f91613309565b610aa99190613320565b60018301555f80805b6003850154811015610b2f5743856003018281548110610ad457610ad46132e1565b905f5260205f2090600202016001015411610b2f57846003018181548110610afe57610afe6132e1565b905f5260205f2090600202015f015483610b189190613352565b925081610b2481613365565b925050600101610ab2565b505f5b6003850154610b4290839061333f565b811015610bac5760038501610b578383613352565b81548110610b6757610b676132e1565b905f5260205f209060020201856003018281548110610b8857610b886132e1565b5f918252602090912082546002909202019081556001918201549082015501610b32565b505f5b81811015610bf15784600301805480610bca57610bca61337d565b5f8281526020812060025f1990930192830201818155600190810191909155915501610baf565b508115610c2c5782546001600160a01b0316610c1657610c11338361258e565b610c2c565b8254610c2c906001600160a01b031633846126a5565b60408051838152436020820152879133917f02f25270a4d87bea75db541cdfe559334a275b4a233520ed6c0a2429667cca94910160405180910390a35050505050610c8360015f5160206134a75f395f51905f5255565b50565b610c8f82610969565b610c9881612717565b610ca28383612721565b50505050565b6001600160a01b0381163314610cd15760405163334bd91960e11b815260040160405180910390fd5b610cdb82826127c2565b505050565b610ce8612525565b610cf0612557565b60035460ff1615610d135760405162461bcd60e51b8152600401610937906132a0565b60045482908110610d365760405162461bcd60e51b81526004016109379061327b565b5f60048481548110610d4a57610d4a6132e1565b5f91825260208083208784526006825260408085203386529092529220600790910290910191508315801590610d81575080548411155b610ddb5760405162461bcd60e51b815260206004820152602560248201527f4d6574614e6f64655374616b653a20696e76616c696420756e7374616b6520616044820152641b5bdd5b9d60da1b6064820152608401610937565b610de485611115565b5f8160010154670de0b6b3a76400008460040154845f0154610e069190613309565b610e109190613320565b610e1a919061333f565b90508015610e3b5780826002015f828254610e359190613352565b90915550505b84825f015f828254610e4d919061333f565b92505081905550816003016040518060400160405280878152602001856006015443610e799190613352565b90528154600181810184555f93845260208085208451600290940201928355909201519082015584018054879290610eb290849061333f565b909155505060048301548254670de0b6b3a764000091610ed191613309565b610edb9190613320565b6001830155604051858152869033907fa12d7b1d7a6eb7f70beeb63980fcd272085e29f4ca7f90735cb48f89d7a662f99060200160405180910390a350505050610f3160015f5160206134a75f395f51905f5255565b5050565b610f3d612525565b610f45612557565b600354610100900460ff1615610f9d5760405162461bcd60e51b815260206004820152601e60248201527f4d6574614e6f64655374616b653a20436c61696d2069732070617573656400006044820152606401610937565b60045481908110610fc05760405162461bcd60e51b81526004016109379061327b565b5f60048381548110610fd457610fd46132e1565b5f918252602080832086845260068252604080852033865290925292206007909102909101915061100484611115565b5f81600201548260010154670de0b6b3a76400008560040154855f015461102b9190613309565b6110359190613320565b61103f919061333f565b6110499190613352565b90508015611061575f6002830155611061338261283b565b60048301548254670de0b6b3a76400009161107b91613309565b6110859190613320565b6001830155604051818152859033907f34fcbac0073d7c3d388e51312faf357774904998eeb8fca628b9e6f65ee1cbf79060200160405180910390a350505050610c8360015f5160206134a75f395f51905f5255565b5f5160206134c75f395f51905f526110f281612717565b610c836128d9565b611102612938565b61110b826129dc565b610f318282612a06565b600454819081106111385760405162461bcd60e51b81526004016109379061327b565b5f6004838154811061114c5761114c6132e1565b905f5260205f20906007020190508060030154431161116a57505050565b5f611179826003015443611b87565b90505f60055483600201548361118f9190613309565b6111999190613320565b600184015490915080156111df57806111ba83670de0b6b3a7640000613309565b6111c49190613320565b915081846004015f8282546111d99190613352565b90915550505b4360038501819055604080519182526020820184905287917ff5d2d72d9b25d6853afd7d0554a113b705234b6a68bb36b7f14366299463241191015b60405180910390a2505050505050565b5f5160206134c75f395f51905f5261124281612717565b600454839081106112655760405162461bcd60e51b81526004016109379061327b565b5f83116112d15760405162461bcd60e51b815260206004820152603460248201527f4d6574614e6f64655374616b653a20506f6f6c20776569676874206d7573742060448201527362652067726561746572207468616e207a65726f60601b6064820152608401610937565b82600485815481106112e5576112e56132e1565b905f5260205f20906007020160020154600554611302919061333f565b61130c9190613352565b6005819055508260048581548110611326576113266132e1565b905f5260205f20906007020160020181905550837f4b8fa3d6a87cb21d1bf4978bf60628ae358a28ac7f39de1751a481c6dd95761784600554604051611376929190918252602082015260400190565b60405180910390a250505050565b5f61138d612ac2565b505f5160206134475f395f51905f5290565b6113a7612525565b6113af612557565b600454819081106113d25760405162461bcd60e51b81526004016109379061327b565b5f600483815481106113e6576113e66132e1565b5f918252602090912060079091020180549091506001600160a01b0316156114505760405162461bcd60e51b815260206004820152601d60248201527f696e76616c6964207374616b696e6720746f6b656e20616464726573730000006044820152606401610937565b80600501543410156114745760405162461bcd60e51b815260040161093790613391565b61147e8334612b0b565b5050610c8360015f5160206134a75f395f51905f5255565b5f5160206134c75f395f51905f526114ad81612717565b6004541561152f576001600160a01b03851661152a5760405162461bcd60e51b815260206004820152603660248201527f4d6574614e6f64655374616b653a20535420746f6b656e20616464726573732060448201527563616e6e6f74206265207a65726f206164647265737360501b6064820152608401610937565b6115a1565b6001600160a01b038516156115a15760405162461bcd60e51b815260206004820152603260248201527f4d6574614e6f64655374616b653a2054686520666972737420706f6f6c206d756044820152711cdd081899481d1a1948115512081c1bdbdb60721b6064820152608401610937565b5f82116116165760405162461bcd60e51b815260206004820152603e60248201527f4d6574614e6f64655374616b653a20556e7374616b65206c6f636b656420626c60448201527f6f636b73206d7573742062652067726561746572207468616e207a65726f00006064820152608401610937565b60015443106116815760405162461bcd60e51b815260206004820152603160248201527f4d6574614e6f64655374616b653a2043616e6e6f742063726561746520706f6f6044820152706c20616674657220656e6420626c6f636b60781b6064820152608401610937565b5f5f544311611691575f54611693565b435b90508460055f8282546116a69190613352565b90915550506040805160e0810182526001600160a01b038881168083525f60208085018281528587018c815260608088018a81526080890186815260a08a018f815260c08b018f81526004805460018101825599529a517f8a35acfbc15ff81a39ae7d344fd709f28e8600b4aa8c65c6b64bfe7fe36bd19b600790990298890180546001600160a01b03191691909b161790995593517f8a35acfbc15ff81a39ae7d344fd709f28e8600b4aa8c65c6b64bfe7fe36bd19c87015591517f8a35acfbc15ff81a39ae7d344fd709f28e8600b4aa8c65c6b64bfe7fe36bd19d86015590517f8a35acfbc15ff81a39ae7d344fd709f28e8600b4aa8c65c6b64bfe7fe36bd19e85015590517f8a35acfbc15ff81a39ae7d344fd709f28e8600b4aa8c65c6b64bfe7fe36bd19f84015593517f8a35acfbc15ff81a39ae7d344fd709f28e8600b4aa8c65c6b64bfe7fe36bd1a083015593517f8a35acfbc15ff81a39ae7d344fd709f28e8600b4aa8c65c6b64bfe7fe36bd1a19091015583518581529283018890529282018690528792917f0fa296fce13e7a0e622b3a892e66220c248337289483a3cfa4130cde0caa1346910160405180910390a3505050505050565b5f5160206134c75f395f51905f5261187d81612717565b60035460ff166118dd5760405162461bcd60e51b815260206004820152602560248201527f4d6574614e6f64655374616b653a205769746864726177206973206e6f742070604482015264185d5cd95960da1b6064820152608401610937565b6003805460ff191690556040517f027c975733baceca09666fae356a901e083676848aaf9710150079385daae743905f90a150565b5f5160206134c75f395f51905f5261192981612717565b60035460ff161561198e5760405162461bcd60e51b815260206004820152602960248201527f4d6574614e6f64655374616b653a20576974686472617720697320616c726561604482015268191e481c185d5cd95960ba1b6064820152608401610937565b6003805460ff191660011790556040517f2523dfdafa00190f21a4cbd0c25179c8dd3cb34a6c17fea952ecca8fa8332c0e905f90a150565b5f5160206134c75f395f51905f526119dd81612717565b6003805462010000600160b01b031916620100006001600160a01b038516908102919091179091556040517fafef10ff40345dd21fc1cac02d8ec620a709c9b0983e9c6454d2bef77f077df3905f90a25050565b6004545f9084908110611a565760405162461bcd60e51b81526004016109379061327b565b5f60048681548110611a6a57611a6a6132e1565b5f91825260208083208984526006825260408085206001600160a01b038b1686529092529220600460079092029092019081015460018201546003830154929450909187118015611aba57508015155b15611b1c575f611ace856003015489611b87565b90505f600554866002015483611ae49190613309565b611aee9190613320565b905082611b0382670de0b6b3a7640000613309565b611b0d9190613320565b611b179085613352565b935050505b600283015460018401548454670de0b6b3a764000090611b3d908690613309565b611b479190613320565b611b51919061333f565b611b5b9190613352565b9998505050505050505050565b5f5160206134c75f395f51905f52611b7f81612717565b610c83612c50565b5f818310611bea5760405162461bcd60e51b815260206004820152602a60248201527f4d6574614e6f64655374616b653a205f66726f6d206d757374206265206c657360448201526973207468616e205f746f60b01b6064820152608401610937565b5f54831015611bf8575f5492505b600154821115611c085760015491505b81831115611c8e5760405162461bcd60e51b815260206004820152604760248201527f4d6574614e6f64655374616b653a205f66726f6d206d757374206265206c657360448201527f73207468616e206f7220657175616c20746f205f746f2061667465722061646a6064820152661d5cdd1b595b9d60ca1b608482015260a401610937565b600254611c9b848461333f565b611ca59190613309565b9392505050565b5f5160206134c75f395f51905f52611cc381612717565b600354610100900460ff1615611d2a5760405162461bcd60e51b815260206004820152602660248201527f4d6574614e6f64655374616b653a20436c61696d20697320616c7265616479206044820152651c185d5cd95960d21b6064820152608401610937565b6003805461ff0019166101001790556040517f443bf540e8151617cd5c39a681cc35a5a22be078b6f0cf16e5bd822b4c4b61ff905f90a150565b5f9182525f5160206134675f395f51905f52602090815260408084206001600160a01b0393909316845291905290205460ff1690565b5f5160206134c75f395f51905f52611db181612717565b5f54821015611e345760405162461bcd60e51b815260206004820152604360248201527f4d6574614e6f64655374616b653a20656e64426c6f636b206d7573742062652060448201527f67726561746572207468616e206f7220657175616c20746f207374617274426c6064820152626f636b60e81b608482015260a401610937565b600182905560405182907f1132c5baccb51da3d049fabc819697dc845fa224ad59d9b555507d6446b40850905f90a25050565b5f611e70612c98565b805490915060ff600160401b820416159067ffffffffffffffff165f81158015611e975750825b90505f8267ffffffffffffffff166001148015611eb35750303b155b905081158015611ec1575080155b15611edf5760405163f92ee8a960e01b815260040160405180910390fd5b845467ffffffffffffffff191660011785558315611f0957845460ff60401b1916600160401b1785555b611f11612cc0565b611f19612cc0565b611f21612cc8565b611f29612cc0565b611f335f33612721565b50611f4b5f5160206134c75f395f51905f5233612721565b50611f767f88aa719609f728b0c5e7fb8dd3608d5c25d497efbb3b9dd64e9251ebba10150833612721565b506003805462010000600160b01b031916620100006001600160a01b038a16021790556002869055435f819055611fb090620f4240613352565b6001556003805461ffff19169055831561200457845460ff60401b19168555604051600181527fc7f505b2f371ae2175ee4913f4499e1f2633a7b5936321eed1cdaeb6115181d29060200160405180910390a15b50505050505050565b61201682610969565b61201f81612717565b610ca283836127c2565b5f5160206134c75f395f51905f5261204081612717565b600282905560405182907f8ab88a7388492efe2edd2bf965f243bd055ba30a2ae62c0c99324f1ef0977a2a905f90a25050565b5f5160206134c75f395f51905f5261208a81612717565b600454849081106120ad5760405162461bcd60e51b81526004016109379061327b565b5f600486815481106120c1576120c16132e1565b905f5260205f2090600702019050848160050181905550838160060181905550857f30dffdedaa3e3b4849298233f7cd71d229956e875ab09270498c96b7cf9181fd868660405161121b929190918252602082015260400190565b5f5160206134c75f395f51905f5261213381612717565b600354610100900460ff166121955760405162461bcd60e51b815260206004820152602260248201527f4d6574614e6f64655374616b653a20436c61696d206973206e6f742070617573604482015261195960f21b6064820152608401610937565b6003805461ff00191690556040517f07c8faf23a72a53eb5c2c466dc81386a58b2a27d0cc3c7c580a3c12e372ba313905f90a150565b6121d3612525565b6121db612557565b600454829081106121fe5760405162461bcd60e51b81526004016109379061327b565b5f60048481548110612212576122126132e1565b5f918252602090912060079091020180549091506001600160a01b031661227b5760405162461bcd60e51b815260206004820152601d60248201527f696e76616c6964207374616b696e6720746f6b656e20616464726573730000006044820152606401610937565b806005015483101561229f5760405162461bcd60e51b815260040161093790613391565b82156122bc5780546122bc906001600160a01b0316333086612cd8565b6122c68484612b0b565b5050610f3160015f5160206134a75f395f51905f5255565b6004545f90839081106123035760405162461bcd60e51b81526004016109379061327b565b61230e848443611a31565b949350505050565b5f5160206134c75f395f51905f5261232d81612717565b6001545f5411156123a8576040805162461bcd60e51b81526020600482015260248101919091527f4d6574614e6f64655374616b653a207374617274426c6f636b206d757374206260448201527f65206c657373207468616e206f7220657175616c20746f20656e64426c6f636b6064820152608401610937565b5f82815560405183917f63b90b79f11a0f132bcb2c4a4ddd44abda45c1308a83b2919318df7f5f8b7be491a25050565b600481815481106123e7575f80fd5b5f91825260209091206007909102018054600182015460028301546003840154600485015460058601546006909601546001600160a01b039095169650929491939092919087565b5f5f8360048054905081106124565760405162461bcd60e51b81526004016109379061327b565b5f8581526006602090815260408083206001600160a01b03881684529091528120905b600382015481101561251b574382600301828154811061249b5761249b6132e1565b905f5260205f20906002020160010154116124e2578160030181815481106124c5576124c56132e1565b905f5260205f2090600202015f0154846124df9190613352565b93505b8160030181815481106124f7576124f76132e1565b905f5260205f2090600202015f0154856125119190613352565b9450600101612479565b5050509250929050565b5f5160206134875f395f51905f525460ff16156125555760405163d93c066560e01b815260040160405180910390fd5b565b5f5160206134a75f395f51905f5280546001190161258857604051633ee5aeb560e01b815260040160405180910390fd5b60029055565b5f5f836001600160a01b0316836040515f6040518083038185875af1925050503d805f81146125d8576040519150601f19603f3d011682016040523d82523d5f602084013e6125dd565b606091505b50915091508161262f5760405162461bcd60e51b815260206004820152601860248201527f455448207472616e736665722063616c6c206661696c656400000000000000006044820152606401610937565b805115610ca2578080602001905181019061264a91906133fa565b610ca25760405162461bcd60e51b815260206004820152602660248201527f455448207472616e73666572206f7065726174696f6e20646964206e6f7420736044820152651d58d8d9595960d21b6064820152608401610937565b6040516001600160a01b03838116602483015260448201839052610cdb91859182169063a9059cbb906064015b604051602081830303815290604052915060e01b6020820180516001600160e01b038381831617835250505050612d11565b60015f5160206134a75f395f51905f5255565b610c838133612d7d565b5f5f5160206134675f395f51905f5261273a8484611d64565b6127b9575f848152602082815260408083206001600160a01b03871684529091529020805460ff1916600117905561276f3390565b6001600160a01b0316836001600160a01b0316857f2f8788117e7eff1d82e926ec794901d17c78024a50270940304540a733656f0d60405160405180910390a4600191505061090c565b5f91505061090c565b5f5f5160206134675f395f51905f526127db8484611d64565b156127b9575f848152602082815260408083206001600160a01b0387168085529252808320805460ff1916905551339287917ff6391f5c32d9c69d2a47ea670b442974b53935d1edc7fd64eb21e047a839171b9190a4600191505061090c565b6003546040516370a0823160e01b81523060048201525f916201000090046001600160a01b0316906370a0823190602401602060405180830381865afa158015612887573d5f5f3e3d5ffd5b505050506040513d601f19601f820116820180604052508101906128ab9190613419565b9050610cdb838284116128be57836128c0565b825b6003546201000090046001600160a01b031691906126a5565b6128e1612db6565b5f5160206134875f395f51905f52805460ff191681557f5db9ee0a495bf2e6ff9c91a7834c1ba4fdd244a5e8aa4e537bd38aeae4b073aa335b6040516001600160a01b03909116815260200160405180910390a150565b306001600160a01b037f00000000000000000000000000000000000000000000000000000000000000001614806129be57507f00000000000000000000000000000000000000000000000000000000000000006001600160a01b03166129b25f5160206134475f395f51905f52546001600160a01b031690565b6001600160a01b031614155b156125555760405163703e46dd60e11b815260040160405180910390fd5b7f88aa719609f728b0c5e7fb8dd3608d5c25d497efbb3b9dd64e9251ebba101508610f3181612717565b816001600160a01b03166352d1902d6040518163ffffffff1660e01b8152600401602060405180830381865afa925050508015612a60575060408051601f3d908101601f19168201909252612a5d91810190613419565b60015b612a8857604051634c9c8ce360e01b81526001600160a01b0383166004820152602401610937565b5f5160206134475f395f51905f528114612ab857604051632a87526960e21b815260048101829052602401610937565b610cdb8383612de5565b306001600160a01b037f000000000000000000000000000000000000000000000000000000000000000016146125555760405163703e46dd60e11b815260040160405180910390fd5b5f60048381548110612b1f57612b1f6132e1565b5f9182526020808320868452600682526040808520338652909252922060079091029091019150612b4f84611115565b805415612bb4575f670de0b6b3a76400008360040154835f0154612b739190613309565b612b7d9190613320565b90505f826001015482612b90919061333f565b90508015612bb15780836002015f828254612bab9190613352565b90915550505b50505b8215612bd25782815f015f828254612bcc9190613352565b90915550505b82826001015f828254612be59190613352565b909155505060048201548154670de0b6b3a764000091612c0491613309565b612c0e9190613320565b6001820155604051838152849033907f90890809c654f11d6e72a28fa60149770a0d11ec6c92319d6ceb2bb0a4ea1a159060200160405180910390a350505050565b612c58612525565b5f5160206134875f395f51905f52805460ff191660011781557f62e78cea01bee320cd4e420270b5ea74000d11b0c9f74754ebdbfc544b05a2583361291a565b5f807ff0c57e16840df040f15088dc2f81fe391c3923bec73e23a9662efc9c229c6a0061090c565b612555612e3a565b612cd0612e3a565b612555612e5f565b6040516001600160a01b038481166024830152838116604483015260648201839052610ca29186918216906323b872dd906084016126d2565b5f5f60205f8451602086015f885af180612d30576040513d5f823e3d81fd5b50505f513d91508115612d47578060011415612d54565b6001600160a01b0384163b155b15610ca257604051635274afe760e01b81526001600160a01b0385166004820152602401610937565b612d878282611d64565b610f315760405163e2517d3f60e01b81526001600160a01b038216600482015260248101839052604401610937565b5f5160206134875f395f51905f525460ff1661255557604051638dfc202b60e01b815260040160405180910390fd5b612dee82612e67565b6040516001600160a01b038316907fbc7cd75a20ee27fd9adebab32041f755214dbc6bffa90cc0225b39da2e5c2d3b905f90a2805115612e3257610cdb8282612eca565b610f31612f3c565b612e42612f5b565b61255557604051631afcd79f60e31b815260040160405180910390fd5b612704612e3a565b806001600160a01b03163b5f03612e9c57604051634c9c8ce360e01b81526001600160a01b0382166004820152602401610937565b5f5160206134475f395f51905f5280546001600160a01b0319166001600160a01b0392909216919091179055565b60605f5f846001600160a01b031684604051612ee69190613430565b5f60405180830381855af49150503d805f8114612f1e576040519150601f19603f3d011682016040523d82523d5f602084013e612f23565b606091505b5091509150612f33858383612f74565b95945050505050565b34156125555760405163b398979f60e01b815260040160405180910390fd5b5f612f64612c98565b54600160401b900460ff16919050565b606082612f8957612f8482612fd0565b611ca5565b8151158015612fa057506001600160a01b0384163b155b15612fc957604051639996b31560e01b81526001600160a01b0385166004820152602401610937565b5092915050565b805115612fdf57805160208201fd5b60405163d6bda27560e01b815260040160405180910390fd5b5f60208284031215613008575f5ffd5b81356001600160e01b031981168114611ca5575f5ffd5b80356001600160a01b0381168114613035575f5ffd5b919050565b5f5f6040838503121561304b575f5ffd5b8235915061305b6020840161301f565b90509250929050565b5f60208284031215613074575f5ffd5b5035919050565b5f5f6040838503121561308c575f5ffd5b50508035926020909101359150565b634e487b7160e01b5f52604160045260245ffd5b5f5f604083850312156130c0575f5ffd5b6130c98361301f565b9150602083013567ffffffffffffffff8111156130e4575f5ffd5b8301601f810185136130f4575f5ffd5b803567ffffffffffffffff81111561310e5761310e61309b565b604051601f8201601f19908116603f0116810167ffffffffffffffff8111828210171561313d5761313d61309b565b604052818152828201602001871015613154575f5ffd5b816020840160208301375f602083830101528093505050509250929050565b5f5f5f5f60808587031215613186575f5ffd5b61318f8561301f565b966020860135965060408601359560600135945092505050565b5f602082840312156131b9575f5ffd5b611ca58261301f565b5f5f5f606084860312156131d4575f5ffd5b833592506131e46020850161301f565b929592945050506040919091013590565b602081525f82518060208401528060208501604085015e5f604082850101526040601f19601f83011684010191505092915050565b5f5f6040838503121561323b575f5ffd5b6132448361301f565b946020939093013593505050565b5f5f5f60608486031215613264575f5ffd5b505081359360208301359350604090920135919050565b6020808252600b908201526a1a5b9d985b1a59081c1a5960aa1b604082015260600190565b60208082526021908201527f4d6574614e6f64655374616b653a2057697468647261772069732070617573656040820152601960fa1b606082015260800190565b634e487b7160e01b5f52603260045260245ffd5b634e487b7160e01b5f52601160045260245ffd5b808202811582820484141761090c5761090c6132f5565b5f8261333a57634e487b7160e01b5f52601260045260245ffd5b500490565b8181038181111561090c5761090c6132f5565b8082018082111561090c5761090c6132f5565b5f60018201613376576133766132f5565b5060010190565b634e487b7160e01b5f52603160045260245ffd5b60208082526043908201527f4d6574614e6f64655374616b653a204465706f73697420616d6f756e74206d7560408201527f73742062652067726561746572207468616e206d696e4465706f736974416d6f6060820152621d5b9d60ea1b608082015260a00190565b5f6020828403121561340a575f5ffd5b81518015158114611ca5575f5ffd5b5f60208284031215613429575f5ffd5b5051919050565b5f82518060208501845e5f92019182525091905056fe360894a13ba1a3210667c828492db98dca3e2076cc3735a920a3ca505d382bbc02dd7bc7dec4dceedda775e58dd541e08a116c6c53815c0bd028192f7b626800cd5ed15c6e187e77e9aee88184c21f4f2182ab5827cb3b7e07fbedcd63f033009b779b17422d0df92223018b32b4d1fa46e071723d6817e2486d003becc55f00a49807205ce4d355092ef5a8a18f56e8913cf4a201fbe287825b095693c21775a2646970667358221220124d1baefd26997431ae13654e329a7468e0b8c67d7946346d23fb42b44df88864736f6c634300081c0033",
  "linkReferences": {},
  "deployedLinkReferences": {},
  "immutableReferences": {
    "652": [
      {
        "length": 32,
        "start": 10563
      },
      {
        "length": 32,
        "start": 10604
      },
      {
        "length": 32,
        "start": 10957
      }
    ]
  },
  "inputSourceName": "project/contracts/MetaNodeStake.sol",
  "buildInfoId": "solc-0_8_28-a0d53f42b5a4efea3a12398fe3ed1d72bc4efb95"
}